:1047E0004572726F723A20253032580A0052656362
:1047F000654C656E3D20253034780A00436865635A
:104800006B547970653D20253032780A004D79422D
:104810007566666572203D2025730A004552524F29
:10482000523A20253032780A0054637020436F6E6C
:104830006E6563740A005463702054696D65206F5F
:1048400075740A00496E69742073746174757320FD
:104850003A2047494E545F535441545F5048595F82
:104860004348414E47450A0045746865726E657459
:1048700020446973636F6E6E6563740A00636865D4
:10488000636B203D3D3D3D3D3D2532780A0077611B
:1048900069742073656E64204D61696C20486561A0
:1048A0006465722074696D656F75740A0073746154
:1048B00072743A0A00436F6E6E65637420457468C3
:0748C00065726E65740A00C9
:0761EF007FFA1261F67FFA4E
:0761F600AE071FEE70FA2254
:10616100AD07AF051DEF60081261EF1261EF80F21C
:01617100220B
:09625800D29475D55C43AA08221A
:0D620B008F86E5AA30E7FB53AA7FAF8622FD
:0361A400E4FCFB1D
:0C61A700D294C29412620B7F020261F6D7
:105DC200902795E0FBA3E475F001122773A9F0FA7E
:105DD20012268EFF125DED902795E0FBA3E475F08D
:0B5DE20001122773A9F0FA12268EFFB1
:035DED0002620B44
:0861FD001261A7AF05125DED70
:056205007FFF12620B97
:01620A002271
:086261007F051261A7D294220F
:086269007F031261A7D2942209
:0A6218007F011261A7126205D29403
:016222002259
:02624400AD07A4
:076246007F061261FDD294F6
:01624D00222E
:0F61B300AD077F201261A7AF05125DEDD29422D8
:0A6223007F261261A7126205D294D3
:01622D00224E
:0A622E007F291261A7126205D294C5
:016238002243
:105DF000E4902794F0FD7F271261A7D2947F0A12C6
:105E00006161126199AD07EDB41010902794E0FF25
:0D5E100004F0EFD394C840E57FFA22AF05FF
:015E1D002262
:105BE4009028731227E47F021261A7902873A3A35D
:105BF400A3E0FF125DED902873A3A3E0FEEEFF1275
:105C04005DED902873E0FCA3E0FDA3E0FEA3E0FFBC
:0B5C140078101227BE125DEDD2942222
:056194007F05126161AE
:0A6199007F2C1261A7126205D29458
:0161A30022D9
:0B5F9B00902794EBF0A3EAF0A3E9F0DC
:105FA6007F221261A7E4FE902794125DDC0EEEB408
:045FB60004F5D29488
:015FBA0022C4
:0B5FBB00902794EBF0A3EAF0A3E9F0BC
:105FC6007F231261A7E4FE902794125DDC0EEEB4E7
:045FD60004F5D29468
:015FDA0022A4
:0B5FDB00902794EBF0A3EAF0A3E9F09C
:105FE6007F241261A7E4FE902794125DDC0EEEB4C6
:045FF60004F5D29448
:015FFA002284
:0B5F350090287BEBF0A3EAF0A3E9F05A
:105F40007F211261A7E4FE90287B125DDC0EEEB487
:095F500006F5D2947F6402616140
:0B5CFE00902795EBF0A3EAF0A3E9F07B
:105D09007F401261A7E4FE126205902795E0FBA38C
:105D1900E475F001122773A9F0FAEF1226D40EEEFA
:055D2900B406E4D29471
:015D2E002252
:104E5400AD077F251261A7AF05125DED90285FA312
:104E6400A3A3E0FF125DED90285FA3A3E0FEEEFF95
:104E7400125DED90285FE0FCA3E0FDA3E0FEA3E05B
:104E8400FF78101227BE125DED90285FE0FCA3E0CE
:104E9400FDA3E0FEA3E0FF78181227BE125DEDA388
:104EA400A3A3A3E0FF125DED902863A3A3E0FEEEAD
:104EB400FF125DED902863E0FCA3E0FDA3E0FEA3F8
:104EC400E0FF78101227BE125DED902863E0FCA38A
:104ED400E0FDA3E0FEA3E0FF78181227BE125DED0B
:034EE400D2942243
:0B5D2F009027AEEBF0A3EAF0A3E9F030
:105D3A007F281261A7E4FE1262059027AEE0FBA35A
:105D4A00E475F001122773A9F0FAEF1226D40EEEC9
:055D5A00B408E4D2943E
:015D5F002221
:0D5C940090287EEBF0A3EAF0A3E9F0AD0745
:105CA1007F2D1261A7AF05125DEDE4FE1262059032
:105CB100287EE0FBA3E475F001122773A9F0FAEF47
:0A5CC1001226D40EEEB406E4D294CD
:015CCB0022B6
:105FFB00902795EBF0A3EAF0A3E9F0AD077F311200
:10600B0061A7AF05125DED125DC2125DC2D2942283
:1060EB00AC077F341261A7AF04125DEDAF05125DF3
:0460FB00EDD294222C
:10603600AB077F321261A7AF03125DEDAF05125DAC
:09604600EDECFF125DEDD2942295
:10604F00AB077F331261A7AF03125DEDAF05125D92
:09605F00EDECFF125DEDD294227C
:1060FF00AC077F3E1261A7AF04125DEDAF05125DD5
:04610F00EDD2942217
:0F61C200AD077F3F1261A7AF05125DEDD29422AA
:0D5B5E009027A3EBF0A3EAF0A3E9F0AD0758
:105B6B007F391261A7AF05125DEDA3A3E0FF125DB4
:105B7B00ED9027A6E0FF125DEDE4FDFCD39027A787
:105B8B00E09D9027A6E09C400D9027A3125DDC0DB5
:085B9B00BD00010C80E6D2946C
:015BA30022DF
:02601B00AD07CF
:10601D007F3B1261FDAD077C00126205EFFEE42DA2
:08602D00FDEC3ED294FEAF052C
:016035002248
:0F61D100AD077F2E1261A7AF05125DEDD29422AC
:0B5933009027B4EFF0A3ECF0A3EDF020
:10593E004C60487F3C1261A79027B4E0FF125DEDEA
:10594E00A3A3E0FF125DED9027B5E0FF125DED7FA2
:10595E00011261F6E4FDFCD39027B6E09D9027B5C9
:10596E00E09C4015126205EF1226D4740129F9E469
:0B597E003AFA0DBD00010C80DED2944F
:0159890022FB
:0F61E000AD077F2A1261A7AF05125DEDD29422A1
:10607F00AD07AC067F2A1261A7AF05125DEDECFFED
:06608F00125DEDD2942227
:105BA400902881EBF0A3EAF0A3E9F0AD077F2F1270
:105BB40061FD902881E0FBA3E475F001122773A92D
:105BC400F0FAEF1226D4126205902881E0FBA3E4D8
:105BD40075F001122773A9F0FAEF1226D4D2942299
:025EE900AD0703
:105EEB007F351261A4AF05125DEDD294126194ABB4
:105EFB0007EBB4100CAF040CEFD394C840EE7FFA51
:035F0B0022AF03BF
:015F0E002270
:025F0F00AD07DC
:105F11007F3D1261A4AF05125DEDD294126194AB85
:105F210007EBB4100CAF040CEFD394C840EE7FFA2A
:035F310022AF0399
:015F3400224A
:025E1E00AD07CE
:105E2000E4FCFB7F371261A7AF05125DEDD294123F
:105E30006194AB07EBB4100CAF040CEFD394C840E3
:065E4000EE7FFA22AF0321
:015E46002239
:025E4700AD07A5
:105E4900E4FCFB7F361261A7AF05125DEDD2941217
:105E59006194AB07EBB4100CAF040CEFD394C840BA
:065E6900EE7FFA22AF03F8
:015E6F002210
:025E7000AD077C
:105E7200E4FCFB7F381261A7AF05125DEDD29412EC
:105E82006194AB07EBB4100CAF040CEFD394C84091
:065E9200EE7FFA22AF03CF
:015E980022E7
:02606800AD0782
:10606A007F301261A7AF05125DED7F021261F61251
:04607A006205D29455
:01607E0022FF
:0B40790090283DEBF0A3EAF0A3E9F073
:104084009028481227F004C11DB790284C1227F03D
:10409400FFFFFFFF9028401227F000000000E47F9C
:1040A40006FEFDFC902840E0F8A3E0F9A3E0FAA3A3
:1040B400E0FBC31227A840030241CC90283DE0FB5B
:1040C400A3E475F001122773A9F0FA12268E902842
:1040D40050F09028441227F000000000E47F08FE0E
:1040E400FDFC902844E0F8A3E0F9A3E0FAA3E0FB88
:1040F400C31227A840030241A490284CE0FCA3E08B
:10410400FDA3E0FEA3E0FF781F1227BEA905AA06BF
:10411400AB07A3E0FFEB6FFFEF5401FFEF601890D4
:104124002848E0FCA3E0FDA3E0FEA3E0FFC004C038
:1041340005C006C007800DE4FBFAF9F8C000C00111
:10414400C002C00390284CE0FCA3E0FDA3E0FEA362
:10415400E0FF78011227D1D003D002D001D000EFC4
:104164006BFFEE6AFEED69FDEC68FC90284C1227AB
:10417400E4902850E0C313F0902844E0FCA3E0FD51
:10418400A3E0FEA3E0FFE4FAF9F8EF2401FFEA3E1E
:10419400FEE93DFDE83CFC9028441227E40240E09F
:1041A400902840E0FCA3E0FDA3E0FEA3E0FFE4FAD6
:1041B400F9F8EF2401FFEA3EFEE93DFDE83CFC90FE
:1041C40028401227E40240A290284CE0FCA3E0FD22
:1041D400A3E0FEA3E0FF781A1227BE90284C122712
:0941E400E490284CA3A3A3E0FF22
:0141ED0022AF
:025E9900AD0753
:105E9B00E4FC7F411261A7AF05125DEDD2947F1434
:105EAB00126161126199EFB4100CAE040CEED39435
:065EBB00C840EB7FFA2253
:015EC10022BE
:0A6239007F421261A7126205D294A1
:016243002238
:0B5D6000902884EBF0A3EAF0A3E9F028
:105D6B007F431261A7E4FE126205902884E0FBA337
:105D7B00E475F001122773A9F0FAEF1226D40EEE98
:055D8B00B414E4D29401
:015D900022F0
:10617200AC077FED1261A7AF04125DEDAF05025DC2
:01618200ED2F
:0260C100AD0729
:1060C3007FEC1261A7AF05125DED7F0112616112D2
:0260D300620564
:0160D50022A8
:10613B007FE91261A77F14126161126199EF6410FC
:02614B0060F3FF
:01614D00222F
:0F59DE00902869EBF0A3EAF0A3E9F0AD07AC065F
:1059ED007FEA1261A7AF05125DEDECFF125DEDA32D
:1059FD00E0801D90286CE0FF14F0EF60199028698D
:105A0D00E0FBA3E475F001122773A9F0FA12268EBC
:105A1D00FF125DED80DD7F14126161126199EF64FB
:035A2D001060F313
:015A30002253
:105A7F0090286FEBF0A3EAF0A3E9F0AD07AC067F37
:105A8F00EB1261A7AF05125DEDECFF125DEDA3E028
:105A9F00FF125DED7F01126161902872E0FF14F03B
:105AAF00EF601912620590286FE0FBA3E475F00117
:0D5ABF00122773A9F0FAEF1226D480DD2221
:10614E00AD07AC067F501261A7AF05125DEDECFFF7
:03615E00025DEDF2
:10609500AC077F521261A7AF04125DEDAF05125D2B
:0660A500EDAF03025DED0A
:1060AB00AC077F531261A7AF04125DEDAF05125D14
:0660BB00EDAF03025DEDF4
:10598A00902851EBF0A3EAF0A3E9F0A31227E490E0
:10599A00285DE0FF902858E0FBA3E0FAA3E0F912A3
:1059AA005FFB90285DE0FF90285BE0FCA3E0FD121E
:1059BA006036902851E0FBA3E0FAA3E0F9A3A3A381
:1059CA00E0FFA3E09027A6CFF0A3EFF090285DE0D8
:0459DA00FF025B5E0F
:105A31009028771227E47F551261A7902877A3A3B6
:105A4100A3E0FF125DED902877A3A3E0FEEEFF1225
:105A51005DED902877E0FCA3E0FDA3E0FEA3E0FF6D
:105A610078101227BE125DED902877E0FCA3E0FDCF
:0E5A7100A3E0FEA3E0FF78181227BE025DED51
:105F59007F191261A77F021261F6126205AD077CF3
:105F690000126205EFFEE42DFDEC3ED294FEAF0572
:015F79002205
:105F7A00EF601D7BFF7A4779E09027C3E4F0A3EF37
:105F8A00F01231BE7FC81261617FC812616180F46C
:015F9A0022E4
:025D9100AD075C
:105D9300E4FCFB90280BF09027FDF07F3D1261A7F8
:105DA300AF05125DEDD294126194AB07EBB4100C06
:0E5DB300AF040CEFD394C840EE7FFA22AF038A
:015DC10022BF
:105B16007E007F237D007B017A2079391229307837
:105B2600397C207D017B017A28790C7E007F041266
:105B36002668783D7C207D017B017A28792C7E00C1
:105B46007F0412266878417C207D017B017A2879C2
:085B5600217E007F0402266895
:104DBF007E007F1C7D007B017A20790112293078DB
:104DCF00017C207D017B017A2879197E007F0412F6
:104DDF002668902828E0FFA3E0902012CFF0A3EFE1
:104DEF00F0902833E0FFA3E0902014CFF0A3EFF072
:104DFF0090200B7403F0E490200DF0FE7F1CFD7BE0
:104E0F00017A20791D122930781D7C207D017B01CC
:104E1F007A28791D7E007F0412266890282AE0FFE9
:104E2F00A3E090202ECFF0A3EFF0902838E0FFA35F
:104E3F00E0902030CFF0A3EFF09020277403F0E440
:054E4F00902029F02273
:054B2F00902794EFF057
:104B34007C107D00C004C0057F00C454F0FEEF2447
:104B440000F974003EFA7B01D007D0061229309098
:104B54002794E0FF70069027FD7460F0EFB401061F
:104B64009027FD7450F0902794E075F01CA4240164
:104B7400F9742035F0FA7B01E0FF125FFB90279473
:104B8400E0FF75F01CA4240BF582E43420F583E0E7
:104B9400FD1260EB902794E0FF75F01CA42412F53D
:104BA40082E43420F583E0FCA3E0FD126036902714
:104BB40094E0FF75F01CA42414F582E43420F583FA
:104BC400E0FCA3E0FD12604F902794E0FF125EE941
:0E4BD400125F7A902794E0FF125E1E025F7A55
:053D4F009027AEEFF02B
:103D5400E4A3F0126068A3EFF09027B0E0FF30E135
:103D64000B9027AEE0700590280A04F0EF20E203E0
:103D7400023E929028017401F09027AEE0FF126099
:103D84001B9027B2EEF0A3EFF04E7003023EF1D386
:103D94009027B3E094009027B2E09410400674108A
:103DA400F0A3E4F09027AEE0FFC0079027B2E0FC58
:103DB400A3E0FDEF7B00C454F0FAEB2400F9740097
:103DC4003AFA0BD0071259339027B2E0FEA3E0FF72
:103DD4009027AEE075F01CA42418F582E43420F595
:103DE40083EEF0A3EFF0902808EEF0A3EFF07BFF52
:103DF4007A4779ED9027C3EEF0A3EFF01231BE7B42
:103E0400FF7A4779FC9027FDE0FF9027C3E4F0A3F5
:103E1400EFF01231BE9027AEE07F00C454F0FEEF05
:103E24002400F974003EFA9027C37401F0A3EAF069
:103E3400A3E9F07BFF7A48790D1231BE9027FDE0AB
:103E4400FD604B9027AEE07F00C454F0FEEF2400E9
:103E5400F974003EFA7B01121ABF9027B1EFF060AB
:103E64002D9027AEE0FF700690280B741FF0EFB47E
:103E7400010690280B740FF07BFF7A48791C902779
:103E8400B1E0FF9027C3E4F0A3EFF01231BE902716
:103E9400B0E030E3097BFF7A4879291231BE9027DC
:103EA400B0E030E6487BFF7A4879361231BE902084
:103EB4005C7401F09027AEE075F01CA4240DF5822B
:103EC400E43420F583E070257FC81261619027AE49
:103ED400E0FF125EE99027B1EFF0125F7A9027AE0F
:0D3EE400E0FF125E1E9027B1E0FF125F7A32
:013EF10022AE
:104BE200125F599027A2EEF0A3EFF030E0097B01AB
:104BF2007A2779A4125D2F9027A3E030E2217BFF70
:104C02007A4879441231BE1262237E00EF64017049
:104C12000E90200004F07BFF7A4879681231BE9032
:104C220027A3E030E405E4FF123D4F9027A3E030D4
:104C3200E5057F01123D4F9027A3E030E6057F0294
:104C4200123D4F9027A3E030E7057F03123D4F90BE
:104C520027A2E030E0057F04123D4F9027A2E0300A
:104C6200E1057F05123D4F9027A2E030E2057F0665
:0F4C7200123D4F9027A2E030E3057F07123D4F20
:014C81002210
:105ACC007F65126244902793EFF07BFF7A48797DD3
:105ADC009027C3E4F0A3EFF01231BE902793E0645B
:105AEC009A60037FFA227B017A207939125F9B7BC3
:105AFC00017A20793D125FBB7B017A207941125FDC
:095B0C00DB125DF0902793EFF02D
:015B1500226D
:10618300759850758780758921758DF3D28ED29954
:0161930022E9
:1048C700902799EBF0A3EAF0A3E9F0A3ECF0A3EDAE
:0148D700F0F0
:1048D800A3E09027FDF07E107F00C006C0077D0092
:1048E80090279FE07F00C454F0FEEF2400F9740085
:1048F8003EFA7B01D007D00612293090279FE0FFAF
:10490800902799E0FBA3E0FAA3E0F9A3E0FDA3E078
:104918009027A6CDF0A3EDF0125B5EE490280AF094
:10492800902000F090205CF09027A0F0A3F0902752
:10493800FDE0705890280AE0704F20B303124BE254
:10494800902000E06002800690205CE06007E49020
:10495800280BF0FF227F011261619027A1E004F08B
:1049680070069027A0E004F0D39027A1E09410905F
:1049780027A0E0942740BD7BFF7A48798E1231BE8C
:0E49880090280B741FF07F10227F14227F14E2
:0149960022FE
:105C1F00E4902801F07F641261611261837BFF7A47
:105C2F004879AD1231BE126258125B16125ACC125D
:105C3F005F7A126223BF01077FC812616180F37B15
:0B5C4F00FF7A4879B51231BE024DBF4C
:1013250031386163303738312D396165342D346199
:1013350032612D623566372D3534373936333565AB
:101345006662366200626173653634006762323305
:10135500313200582D4D61696C65723A20582D5710
:1013650043482D4D61696C20436C69656E7420534B
:10137500656E6465720D0A00436F6E74656E742D3B
:101385005472616E736665722D456E636F64696E26
:10139500673A2071756F7465642D7072696E74613A
:1013A500626C650D0A5265706C792D546F3A200098
:1013B500582D50726F6772616D3A2043534D5450EA
:1013C5004D65737361676554657374657200546820
:1013D50069732069732061206D756C74692D706166
:1013E5007274206D65737361676520696E204D4960
:1013F5004D4520666F726D61742E000D0A436F6E48
:1014050074656E742D5472616E736665722D456ECA
:10141500636F64696E673A2071756F7465642D70CA
:1014250072696E7461626C650D0A00414243444500
:10143500464748494A4B4C4D4E4F505152535455CF
:10144500565758595A6162636465666768696A6B7D
:101455006C6D6E6F707172737475767778797A309A
:101465003132333435363738392B2F000D0A003DEC
:1014750025303278003D0D0A006170706C6963613A
:1014850074696F6E2F6F637465742D737472656103
:101495006D000D0A0D0A2D2D25730D0A436F6E740F
:1014A500656E742D547970653A2025733B0D0A20BD
:1014B5006E616D653D222573222573436F6E7465DC
:1014C5006E742D446973706F736974696F6E3A2019
:1014D500096174746163686D656E743B0D0A2066FD
:1014E500696C656E616D653D222573220D0A0D0AD5
:1014F500000D0A2D2D002D2D006D756C7469706120
:1015050072742F6D697865640046726F6D3A20229A
:101515000022203C003E0D0A00546F3A203C005347
:1015250075626A6563743A200052653A2000446129
:1015350074653A20004D494D452D56657273696FA6
:101545006E3A20312E300D0A436F6E74656E742D20
:10155500547970653A20003B0D0A09626F756E6417
:101565006172793D2200220D0A00203C000D0A0D12
:101575000A004D61696C204865616465723A25739E
:101585000A004552524F523A20253032780A00411E
:101595007474616368204865616465723A25730AED
:1015A5000041747461636820446174612073656EE1
:1015B500645F627566663A0A25730A004174746150
:1015C500636820456E64203A25730A007465787453
:1015D5002F706C61696E000D0A2D2D25730D0A4360
:1015E5006F6E74656E742D547970653A2025733B62
:1015F5000D0A09636861727365743D22257322259E
:10160500730D0A004D494D45204865616465723A80
:101615000A25730A0025732025730D0A0045484CD9
:101625004F203A25730A0025730D0A004155544889
:10163500203A25730A0055534552203A25730A006E
:1016450050415353203A25730A002573203C2573D6
:101655003E0D0A004D41494C203A25730A0052437C
:101665005054203A25730A0044415441203A2573C9
:101675000A007465787420646174612025730A001A
:101685000D0A2E0D0A004F564552203A25730A00C1
:1016950053544154203A25730A004C495354203A77
:1016A50025730A0025732025630D0A0052544552FF
:1016B500203A25730A0044454C45203A25730A0013
:1016C5002573200D0A0052534554203A25730A000C
:1016D50025732025632025630D0A00544F50203AB9
:1016E50025730A005549444C203A25730A00736D49
:1016F500747020515549540A00706F70332051554C
:1017050049540A00636C6F737420736D7470207391
:101715006F636B65740A00636C6F736520706F701F
:101725003320736F636B65740A00434F4D4D414E13
:101735004420554E55534546554C4C0A0077656C2B
:10174500636F6D652E000D0A0D0A42657374205294
:10175500656761726473210D0A2D2D2D2D2D204F86
:10176500726967696E616C204D6573736167652089
:101775002D2D2D2D0D0A000D0A7765623A687474BA
:10178500703A2F2F7777772E7763682E636E0D0A61
:101795000048656C6C6F000D0A2020202000210098
:1017A50042206C656E3D20253032580A0049206183
:1017B5006D2000A1A30D0A00546F3A200043633A3F
:1017C500200053656E743A20000D0A5375626A65F0
:1017D50063743A20000A46726F6D3A200031234641
:1017E500726F6D200A003F423F004465634E616D94
:1017F500653A25730A000A43633A2000322343639E
:10180500200A000A446174653A2000332364617438
:1018150065200A000A5375626A6563743A200034CC
:10182500235375626A656374200A004465636F64B7
:10183500657375626A6563743A25730A006E616D36
:10184500653D0035230A00436F6E74656E742D5433
:1018550072616E736665722D456E636F64696E673E
:101865003A200066696C656E616D653D00352362E1
:101875006173653634200A0071756F7465642D7067
:1018850072696E7461626C6500352371756F74657C
:10189500642D7072696E7461626C65200A0036236E
:1018A50066696C656E616D65200A000A0D0A003770
:1018B50023200A00616464723A0A2025730A0073C2
:1018C500656E64206E616D653A0A2025730A0073A2
:1018D50075626A6563743A0A2025730A0061747437
:1018E500616368206E616D653A0A25730A00736548
:1018F5006E642074696D653A0A2025730A00617467
:101905007461636820746578743A0A25730A0077F0
:10191500636800313123200A00323230003235301D
:10192500003333340032333500333534003232314D
:10193500002B4F4B002E0031002D4552524F5200C7
:1019450052657475726E0045484C4F0000000000EA
:10195500000041555448204C4F47494E004D4149E0
:101965004C2046524F4D3A005243505420544F3A62
:1019750000000044415441000000000000005155A2
:101985004954005553455200504153530053544157
:1019950054004C49535400524554520044454C455B
:1019A5000052534554004E4F4F500041504F500088
:1019B500544F5000005549444C00FFFFFFFFFFFF07
:1019C500FFFFFFFFFFFFFFFFFFFFFFFFFFFFFFFF22
:1019D500FFFFFFFFFFFFFFFFFFFFFFFFFFFFFFFF12
:1019E500FFFFFFFFFF3EFFFFFF3F34353637383936
:1019F5003A3B3C3DFFFFFF00FFFFFF0001020304F0
:101A050005060708090A0B0C0D0E0F101112131409
:101A15001516171819FFFFFFFFFFFF1A1B1C1D1EC8
:101A25001F202122232425262728292A2B2C2D2E49
:101A35002F30313233FFFFFFFFFFFFFFFFFFFFFFB7
:101A4500FFFFFFFFFFFFFFFFFFFFFFFFFFFFFFFFA1
:101A5500FFFFFFFFFFFFFFFFFFFFFFFFFFFFFFFF91
:101A6500FFFFFFFFFFFFFFFFFFFFFFFFFFFFFFFF81
:101A7500FFFFFFFFFFFFFFFFFFFFFFFFFFFFFFFF71
:101A8500FFFFFFFFFFFFFFFFFFFFFFFFFFFFFFFF61
:101A9500FFFFFFFFFFFFFFFFFFFFFFFFFFFFFFFF51
:101AA500FFFFFFFFFFFFFFFFFFFFFFFFFFFFFFFF41
:0A1AB500FFFFFFFFFFFFFFFFFFFF31
:1034B80043278AFF1325432790FF134A432787FF93
:1034C8001351432417FF135843278DFF137D4326B9
:1034D80020FF13B543261DFF13D343240EFF14000A
:1034E80043241AFF14306080225D44656D6F6E734B
:1034F80074726174696F6E207465737420636833C5
:103508003935206D61696C2066756E6374696F6EFC
:10351800207763682E636E00000000000000000042
:103528000000000000000000000000000000000093
:103538000000000000000000000000000000000083
:103548000000000000000000000000000000000073
:103558000000000000000000000000000000000063
:10356800000000000000000000006200205D303113
:103578003233343536373839616263646566676873
:10358800696A6B6C6D6E6F7071727374757677782B
:10359800797A000000000000000000000000000030
:1035A8000000000000000000000000000000000013
:1035B8000000000000000000000000000000000003
:1035C80000000000000000000000000000000000F3
:1035D80000000000000000000000000000000000E3
:1035E80000000000000000000000000000000000D3
:1035F80000000000000000000000000000000000C3
:1036080000000000000000000000000000000000B2
:1036180000000000000000000000000000000000A2
:103628000000000000000000000000000000000092
:103638000000000000000000000000000000000082
:103648000000000000000000000000000000000072
:103658000000000000000000000000000000000062
:103668000000000000000000000000000000000052
:103678000000000000000000000000000000000042
:103688000000000000000000000000000000000032
:103698000000000000000000000000000000000022
:1036A8000000000000000000000000000000000012
:1036B8000000000000000000000000000000000002
:1036C80000000000000000000000000000000000F2
:1036D80000000000000000000000000000000000E2
:1036E80000000000000000000000000000000000D2
:1036F80000000000000000000000000000000000C2
:1037080000000000000000000000000000000000B1
:1037180000000000000000000000000000000000A1
:103728000000000000000000000000000000000091
:103738000000000000000000000000000000000081
:103748000000000000000000000000000000000071
:103758000000000000000000000000000000000061
:1037680000000000000000000000000000004324EA
:1037780014FF1742432623FF174B432626FF177CC7
:1029DC00F9E43AFA9027997401F0A37424F0A374E3
:0229EC001DF0DC
:1029EE00902794EBF0A3EAF0A3E9F0A3ECF0A3EDAB
:0129FE00F0E8
:1029FF00E490279CF0A3F0A3F0A3F0902797E0FAC0
:102A0F00A3E0FB7C007D03FFAE02122708C3EB9D02
:102A1F00FFEA9CFEC390279DE09F90279CE09E407D
:102A2F0003022BBB902794E0FBA3E0FAA3E0F990FD
:102A3F00279CE0FEA3E0F5828E831226A713135482
:102A4F003FFF90241AE0FBA3E0FAA3E0F98F827511
:102A5F0083001226A7FF902799E0FBA3E0FAA3E0DB
:102A6F00F990279EE475F00112277385F082F583A4
:102A7F00EF1226E6902794E0FBA3E0FAA3E0F9908B
:102A8F00279DE02401FF90279CE034008F82F5837F
:102A9F001226A7C4540FFD90279CE0FEA3E0F582F9
:102AAF008E831226A775F010A4FFEF4D543FFF90B1
:102ABF00241AE0FBA3E0FAA3E0F98F8275830012DA
:102ACF0026A7FF902799E0FBA3E0FAA3E0F9902750
:102ADF009EE475F00112277385F082F583EF1226BD
:102AEF00E6902794E0FBA3E0FAA3E0F990279CE09F
:102AFF00FCA3E0FDF5828C83A31226A775F004A436
:102B0F00FF8D828C83A3A31226A7C413135403FD36
:102B1F00EF4D543FFF90241AE0FBA3E0FAA3E0F936
:102B2F008F827583001226A7FF902799E0FBA3E001
:102B3F00FAA3E0F990279EE475F00112277385F050
:102B4F0082F583EF1226E6902794E0FBA3E0FAA329
:102B5F00E0F990279DE02402FF90279CE034008F3E
:102B6F0082F5831226A7543FFF90241AE0FBA3E0BF
:102B7F00FAA3E0F98F827583001226A7FF90279999
:102B8F00E0FBA3E0FAA3E0F990279EE475F00112B1
:102B9F00277385F082F583EF1226E690279DE024B8
:102BAF0003F090279CE03400F0022A0A902797E068
:102BBF00FEA3E0FF7C007D03122708ED64014C604B
:102BCF0003022C89902794E0FBA3E0FAA3E0F9908D
:102BDF00279CE0FEA3E0F5828E831226A7131354E1
:102BEF003FFF90241AE0FBA3E0FAA3E0F98F827570
:102BFF0083001226A7FF902799E0FBA3E0FAA3E03A
:102C0F00F990279EE475F00112277385F082F58302
:102C1F00EF1226E6902794E0FBA3E0FAA3E0F990E9
:102C2F00279CE0FEA3E0F5828E831226A775F01095
:102C3F00A4543FFF90241AE0FBA3E0FAA3E0F98F1E
:102C4F00827583001226A7FF902799E0FBA3E0FA75
:102C5F00A3E0F990279EE475F00112277385F082A7
:102C6F00F583EF1226E690279EE475F00112277385
:102C7F0085F082F583743D022DB3902797E0FEA374
:102C8F00E0FF7C007D03122708ED64024C60030215
:102C9F002DCA902794E0FBA3E0FAA3E0F990279CBC
:102CAF00E0FEA3E0F5828E831226A71313543FFF95
:102CBF0090241AE0FBA3E0FAA3E0F98F827583005A
:102CCF001226A7FF902799E0FBA3E0FAA3E0F99063
:102CDF00279EE475F00112277385F082F583EF12BA
:102CEF0026E6902794E0FBA3E0FAA3E0F990279D56
:102CFF00E02401FF90279CE034008F82F583122699
:102D0F00A7C4540FFD90279CE0FEA3E0F5828E83AD
:102D1F001226A775F010A4FFEF4D543FFF90241A11
:102D2F00E0FBA3E0FAA3E0F98F827583001226A7D8
:102D3F00FF902799E0FBA3E0FAA3E0F990279EE428
:102D4F0075F00112277385F082F583EF1226E69056
:102D5F002794E0FBA3E0FAA3E0F990279DE024017C
:102D6F00FF90279CE034008F82F5831226A775F021
:102D7F0004A4543FFF90241AE0FBA3E0FAA3E0F968
:102D8F008F827583001226A7FF902799E0FBA3E09F
:102D9F00FAA3E0F990279EE475F00112277385F0EE
:102DAF0082F583EF1226E690279EE475F001122735
:102DBF007385F082F583743D1226E6902799E0FB28
:102DCF00A3E0FAA3E0F990279EE0FEA3E0F5828E40
:052DDF0083E40226E67A
:103B2C00AC06AD079027C57401F0A37427F0746739
:083B3C00A3F07B017A24791D3E
:103B44009027C0EBF0A3EAF0A3E9F0A3ECF0A3ED17
:013B5400F080
:103B5500E49027C8F0A3F0A3F0A3F09027C3E0FEFC
:103B6500A3E0FF9027C8E0FCA3E0FDC39FEC9E40C7
:103B750003023CBC9027C0E0FBA3E0FAA3E02DF9CB
:103B8500EA3CFA9027CF74FFF0A37414F0A3747184
:103B9500F0A3E4F0A37402F012508DEF700E90279D
:103BA500C9E02402F09027C8E03400F09027C0E077
:103BB500FBA3E0FAA3E0F99027C8E0FEA3E0FFF538
:103BC500828E83A31226A79019BF93C4540FFD8F2D
:103BD500828E831226A79019BF9325E025E04DFF1D
:103BE5009027C5E0FBA3E0FAA3E0F99027CAE475A6
:103BF500F00112277385F082F583EF1226E69027F0
:103C0500C0E0FBA3E0FAA3E0F99027C8E0FEA3E03B
:103C1500FFF5828E83A31226A79019BF93C454F093
:103C2500FD8F828E83A3A31226A79019BF9313132A
:103C3500543F4DFF9027C5E0FBA3E0FAA3E0F990C0
:103C450027CAE475F00112277385F082F583EF1218
:103C550026E69027C0E0FBA3E0FAA3E0F99027C889
:103C6500E0FEA3E0FFF5828E83A3A31226A7901999
:103C7500BF93C4333354C0FD8F828E83A3A3A31295
:103C850026A79019BF934DFF9027C5E0FBA3E0FA47
:103C9500A3E0F99027CAE475F00112277385F08235
:103CA500F583EF1226E69027C9E02404F09027C893
:103CB500E03400F0023B609027C4E05403640370D5
:103CC50023A3E0FBA3E0FAA3E0F91260D6EF24FFFB
:103CD500FFEE34FFFE9027C5E0FBA3E0FAA3E0F971
:103CE5008F82805F9027C4E0540364027041A3E093
:103CF500FBA3E0FAA3E0F91260D6EF24FFFFEE3450
:103D0500FFFE9027C5E0FBA3E0FAA3E0F98F828EC2
:103D150083E41226E61260D6EF24FFFFEE34FFFEA1
:103D25009027C5E0FBA3E0FAA3E0F98F8280149009
:103D350027C5E0FBA3E0FAA3E0F99027CAE0FEA3BC
:093D4500E0F5828E83E41226E60B
:013D4E002252
:0B41EE00902798EBF0A3EAF0A3E9F0A3
:1041F900E49027A2F0A3F0A3F0A3F0A3F0A3F0901A
:1042090027A6F0A3F090279EE0FEA3E0FFC3902726
:10421900A7E09F9027A6E09E400302433C90279881
:10422900E0FBA3E0FAA3E0F912268EFFC394214034
:104239003DEFD3947E5037EF643D603290279BE089
:10424900FBA3E475F001122773A9F0FAEF1226D443
:104259009027A3E004F070069027A2E004F09027CD
:10426900A5E004F070069027A4E004F0805490279C
:10427900C374FFF0A37414F0A37474F0902798E04A
:10428900FBA3E0FAA3E0F912268E9027C6F0902747
:104299009BE0FBA3E0FAA3E0F91231B890279CE474
:1042A90075F00312275D9027A3E02403F09027A25D
:1042B900E03400F09027A5E02403F09027A4E0342F
:1042C90000F09027A1E024FDFF9027A0E034FFFE35
:1042D900C39027A5E09F9027A4E09E403B9027C369
:1042E90074FFF0A37414F0A3747AF090279BE0FB99
:1042F900A3E0FAA3E0F91231B890279CE475F00322
:1043090012275D9027A3E02403F09027A2E0340050
:10431900F0E49027A4F0A3F09027A7E004F070063A
:104329009027A6E004F0902799E475F00112275D23
:1043390002420E90279BE0FBA3E0FAA3E0F9E40216
:0243490026D478
:0B434B009027C0EBF0A3EAF0A3E9F01C
:10435600E49027C8F0A3F0A3F0A3F09027C6E0FEF0
:10436600A3E0FFC39027C9E09F9027C8E09E4003C3
:104376000244669027CF74FFF0A37414F0A3747AF6
:10438600F0A3E4F0A37403F09027C0E0FBA3E0FAE7
:10439600A3E0F912508DEF70199027C175F0031242
:1043A600275D9027C9E02403F09027C8E03400F089
:1043B60080A99027C0E0FBA3E0FAA3E0F912268EBD
:1043C600B43D53C003C002C0019027CF74FFF0A3D1
:1043D6007414F0A37474F09027C3E0FBA3E0FAA36F
:1043E600E0F912268E9027D2F0D001D002D0031227
:1043F60038939027C4E475F00112275D9027C1E435
:1044060075F00312275D9027C9E02403F09027C8B2
:10441600E03400F080369027C0E0FBA3E475F0019D
:10442600122773A9F0FA12268EFF9027C3E0FBA38A
:10443600E475F001122773A9F0FAEF1226D490273B
:10444600C9E004F070069027C8E004F09027CBE09E
:1044560004F060030243619027CAE004F00243615E
:0F4466009027C3E0FBA3E0FAA3E0F9E40226D419
:1058D900E4FEEEC39B5052EF2EF8E654F0F9C4549F
:1058E9000FFC75F00A846006EC2437FC8007E9C4D4
:1058F900540F2430FCA805A6040DEF2EF8E6F95440
:105909000FFC75F00A846006EC2437FC8006E95424
:105919000F2430FCA805A6040DEB14FCEEC39C5023
:0959290005A805762E0D0E80A9DB
:015932002252
:105CCC00902411E0FBA3E0FAA3E02401F9E43AFAF2
:105CDC001260D6D3EF9400EE64809480902411E08F
:105CEC00FBA3E0FAA3E0F95003E48002740112264E
:025CFC00D422B0
:0B4D2100902798EBF0A3EAF0A3E9F064
:104D2C0090279E74FFF0A37414F0A3747EF0902768
:104D3C00C374FFF0A37414F0A37497F090278AE067
:104D4C00F9A3E0FAA3E09027C6C9F0A3EAF0A3E91F
:104D5C00F090279EE0F9A3E0FAA3E09027C9C9F0F0
:104D6C00A3EAF0A3E9F0902798E0F9A3E0FAA3E016
:104D7C009027CCC9F0A3EAF0A3E9F090240EE0F957
:104D8C00A3E0FAA3E09027CFC9F0A3EAF0A3E9F0DF
:104D9C00902798E0F9A3E0FAA3E09027D2C9F0A3FA
:104DAC00EAF0A3E9F090279BE0FBA3E0FAA3E0F97B
:034DBC000231B809
:10511400902798EBF0A3EAF0A3E9F09027A174FF9D
:10512400F0A37414F0A374F6F090279BE0FBA3E0C3
:10513400FAA3E0F912560190278AE0F9A3E0FAA352
:10514400E09027A1C9F0A3EAF0A3E9F090279BE03F
:10515400FBA3E0FAA3E0F91256019027A174FFF033
:10516400A37414F0A374FBF090279BE0FBA3E0FA74
:10517400A3E0F912560190279BE0FBA3E0FAA3E019
:10518400F91260D6902798E0FBA3E0FAA3E0F9EEC9
:055194008FF0022789E5
:102DE40090279574FFF0A37414F0A374FEF07E0290
:102DF4007F007D007B017A24791D1229309027A160
:102E040074FFF0A37415F0A3740EF07B017A247997
:102E14001D125601902411E0FBA3E0FAA3E0241153
:102E2400F9EA3401FA9027A1EBF0A3EAF0A3E9F060
:102E34007B017A24791D1256019027A174FFF0A317
:102E44007415F0A37416F07B017A24791D125601CF
:102E5400902411E0FBA3E0FAA3E02431F9E43AFA68
:102E64009027A1EBF0A3EAF0A3E9F07B017A24799F
:102E74001D1256019027A174FFF0A37415F0A374DA
:102E84001AF07B017A24791D1256019027A174FF50
:102E9400F0A37415F0A3741EF07B017A24791D123B
:102EA4005601902411E0FBA3E0FAA3E02461F9E4C5
:102EB4003AFA9027A1EBF0A3EAF0A3E9F07B017AB8
:102EC40024791D1256019027A174FFF0A37415F004
:102ED400A3741AF07B017A24791D1256019027A15C
:102EE40074FFF0A37415F0A37424F07B017A2479A1
:102EF4001D1256019027A174FFF0A37415F0A3745A
:102F04002EF07B017A24791D125601902411E0FBE6
:102F1400A3E0FAA3E024F1F9E43AFA9027A1EBF054
:102F2400A3EAF0A3E9F07B017A24791D12560190FB
:102F340027A174FFF0A37414F0A37471F07B017AD9
:102F440024791D1256019027A174FFF0A37415F083
:102F5400A37433F07B017A24791D1256019027A1C2
:102F6400E4F0A3F0A3F07B017A24791D12560190BA
:102F740027A174FFF0A37414F0A37471F07B017A99
:102F840024791D125601902417E0F9A3E0FAA3E076
:102F94009027A1C9F0A3EAF0A3E9F07B017A247990
:102FA4001D125601902411E0FBA3E0FAA3E0F912EC
:102FB400268E6401600302303E9027A174FFF0A3C3
:102FC4007415F0A3743AF07B017A24791D1256012A
:102FD400902795E0F9A3E0FAA3E09027A1C9F0A314
:102FE400EAF0A3E9F07B017A24791D1256019027B7
:102FF400A174FFF0A37415F0A3745CF07B017A2430
:10300400791D12560190278AE0F9A3E0FAA3E09013
:1030140027A1C9F0A3EAF0A3E9F07B017A24791D82
:103024001256019027A174FFF0A37415F0A3746BDA
:10303400F07B017A24791D12560190278DE0F9A3C3
:10304400E0FAA3E09027A1C9F0A3EAF0A3E9F07B9A
:10305400017A24791D125601902411E0FBA3E0FAB1
:10306400A3E02411F9EA3401FA9027A1EBF0A3EAD2
:10307400F0A3E9F07B017A24791D1256019027A16F
:1030840074FFF0A37415F0A3746FF07B017A2479B4
:103094001D125601902411E0FBA3E0FAA3E02431B1
:1030A400F9E43AFA9027A1EBF0A3EAF0A3E9F07B64
:1030B400017A24791D1256019027A174FFF0A3749C
:1030C40015F0A3741AF07B017A24791D125601902D
:1030D4002620E0F9A3E0FAA3E09027A1C9F0A3EA2F
:1030E400F0A3E9F07B017A24791D1256019027A1FF
:1030F40074FFF0A37415F0A37472F07B017A247941
:103104001D1256019027C37401F0A37424F0A37414
:103114001DF07BFF7A1579771231BE7B017A247911
:103124001D1260D6AC06AD077B017A24791DE490AC
:10313400279EF0A3F01248C7EF641460117BFF7A56
:0E3144001579879027C3E4F0A3EFF01231BE97
:01315200225A
:103EF2007E027F007D007B017A24791D1229309099
:103F02002411E0FBA3E0FAA3E02401F9E43AFA90D9
:103F1200279B7401F0A37424F0A3741DF0124D21A9
:103F22009027C37401F0A37424F0A3741DF07BFFE7
:103F32007A1579941231BE7B017A24791D1260D6EA
:103F4200AC06AD077B017A24791DE490279EF0A38D
:103F5200F01248C7902797EFF0641460137BFF7A42
:103F6200157987E0FF9027C3E4F0A3EFF01231BE8A
:103F72007E027F007D007B017A24791D1229307B2D
:103F8200017A20795D1260D690279EEEF0A3EFF0C1
:103F920090279B7401F0A37424F0A3741DF0902762
:103FA200A0E4F0A374C8F07B017A20795D1241EE9F
:103FB2009027C37401F0A37424F0A3741DF07BFF57
:103FC2007A1579A61231BE7B017A24791D1260D648
:103FD200AC06AD077B017A24791DE490279EF0A3FD
:103FE200F01248C7902797EFF0641460137BFF7AB2
:103FF200157987E0FF9027C3E4F0A3EFF01231BEFA
:104002007E027F007D007B017A24791D1229309087
:10401200279B7401F0A37424F0A3741DF07B017A32
:104022002779951251149027C37401F0A37424F0D8
:10403200A3741DF07BFF7A1579C11231BE7B017A20
:1040420024791D1260D6AC06AD077B017A24791D56
:10405200E490279EF0A3F01248C7902797EFF064F0
:104062001460137BFF7A157987E0FF9027C3E4F091
:06407200A3EFF01231BEC5
:014078002225
:1046C40090279674FFF0A37415F0A374D1F090268C
:1046D4001DE0FBA3E0FAA3E0F91260D6AC06AD0737
:1046E40090261DE0FBA3E0FAA3E0F9E490279EF0F6
:1046F400A3F01248C7902795EFF0641460137BFF72
:104704007A157987E0FF9027C3E4F0A3EFF0123124
:10471400BE7E027F007D007B017A24791D12293040
:104724009027C374FFF0A37415F0A374DCF09027F2
:104734008AE0F9A3E0FAA3E09027C6C9F0A3EAF05F
:10474400A3E9F0902796E0F9A3E0FAA3E09027C943
:10475400C9F0A3EAF0A3E9F0902787E0F9A3E0FA0F
:10476400A3E09027CCC9F0A3EAF0A3E9F090240ECB
:10477400E0F9A3E0FAA3E09027CFC9F0A3EAF0A3FD
:10478400E9F07B017A24791D1231B89027C37401B2
:10479400F0A37424F0A3741DF07BFF7A1679091238
:1047A40031BE7B017A24791D1260D6AC06AD077B3D
:1047B400017A24791DE490279EF0A3F01248C79053
:1047C4002795EFF0641460137BFF7A157987E0FF77
:0B47D4009027C3E4F0A3EFF01231BE09
:0147DF0022B7
:104A65007E007F207D007B017A277907122930900F
:104A75002411E0FBA3E0FAA3E02411F9EA3401FADA
:104A85001260D690279EEEF0A3EFF0902411E0FB84
:104A9500A3E0FAA3E02411F9EA3401FA90279B7404
:104AA50001F0A37427F0A37407F09027A0E4F0A306
:104AB500744CF01241EE7E027F007D007B017A246A
:104AC500791D1229309027C374FFF0A37416F0A343
:104AD500741AF0A374FFF0A37419F0A3744CF0A337
:104AE5007401F0A37427F0A37407F07B017A24798D
:104AF5001D1231B89027C37401F0A37424F0A37478
:104B05001DF07BFF7A1679221231BE7B017A24795A
:104B15001D1260D6AC06AD077B017A24791D90275E
:0A4B25009E7461F0E4A3F00248C79B
:1057A7007E027F007D007B017A24791D12293090CB
:1057B70027C374FFF0A37416F0A3742CF0A374FF2F
:1057C700F0A37419F0A37457F07B017A24791D12A2
:1057D70031B89027C37401F0A37424F0A3741DF0AB
:1057E7007BFF7A1679311231BE7B017A24791D123B
:1057F70060D6AC06AD077B017A24791D90279E748D
:0858070062F0E4A3F00248C7BF
:104EE7007E027F007D007B017A24791D1229309094
:104EF7002411E0FBA3E0FAA3E024B1F9E43AFA12A3
:104F070060D6AC06AD07902411E0FBA3E0FAA3E05E
:104F170024B11229DC9027C374FFF0A37416F0A301
:104F2700742CF0A37401F0A37424F0A3741DF07B18
:104F3700017A24F91231B89027C37401F0A37424BD
:104F4700F0A3741DF07BFF7A16793B1231BE7B010B
:104F57007A24791D1260D6AC06AD077B017A2479D5
:0D4F67001D90279E7463F0E4A3F00248C77C
:104F74007E027F007D007B017A24791D1229309006
:104F84002411E0FBA3E0FAA3E024D1F9E43AFA12F5
:104F940060D6AC06AD07902411E0FBA3E0FAA3E0D1
:104FA40024D11229DC9027C374FFF0A37416F0A354
:104FB400742CF0A37401F0A37424F0A3741DF07B8B
:104FC400017A24F91231B89027C37401F0A3742430
:104FD400F0A3741DF07BFF7A1679451231BE7B0174
:104FE4007A24791D1260D6AC06AD077B017A247948
:0D4FF4001D90279E7464F0E4A3F00248C7EE
:1052A1007E027F007D007B017A24791D12293090D6
:1052B10027C374FFF0A37416F0A3744FF0A374FF17
:1052C100F0A37419F0A37462F0902411E0FBA3E041
:1052D100FAA3E02431F9E43AFA9027C9EBF0A3EA02
:1052E100F0A3E9F07B017A24791D1231B89027C32C
:1052F1007401F0A37424F0A3741DF07BFF7A167976
:10530100591231BE7B017A24791D1260D6AC06ADEB
:10531100077B017A24791D90279E7465F0E4A3F040
:035321000248C778
:105324007E027F007D007B017A24791D1229309052
:1053340027C374FFF0A37416F0A3744FF0A374FF93
:10534400F0A37419F0A3746DF0902411E0FBA3E0B2
:10535400FAA3E02461F9E43AFA9027C9EBF0A3EA4E
:10536400F0A3E9F07B017A24791D1231B89027C3A8
:105374007401F0A37424F0A3741DF07BFF7A1679F2
:10538400631231BE7B017A24791D1260D6AC06AD5E
:10539400077B017A24791D90279E7466F0E4A3F0BC
:0353A4000248C7F5
:10580F007E027F007D007B017A24791D1229309062
:10581F0027C374FFF0A37416F0A3742CF0A374FFC6
:10582F00F0A37419F0A37478F07B017A24791D1218
:10583F0031B89027C37401F0A37424F0A3741DF042
:10584F007BFF7A16796D1231BE7B017A24791D1296
:10585F0060D6AC06AD077B017A24791D90279E7424
:08586F0067F0E4A3F00248C752
:10459F00125CCC122DE4902411E0FBA3E0FAA3E00F
:1045AF00F912268EB401051246C480377BFF7A14A8
:1045BF0079711260D6AC06AD077BFF7A147971E47E
:1045CF0090279EF0A3F01248C7902794E0FF641441
:1045DF0060117BFF7A1579879027C3E4F0A3EFF082
:1045EF001231BE7E027F007D007B017A24791D127D
:1045FF0029301221469027C37401F0A37424F0A32D
:10460F00741DF07BFF7A1679771231BE7B017A2405
:10461F00791D1260D6AC06AD077B017A24791DE4B3
:10462F0090279EF0A3F01248C7902794EFF06414E0
:10463F0060137BFF7A157987E0FF9027C3E4F0A31F
:10464F00EFF01231BE902411E0FBA3E0FAA3E0F9E2
:10465F0012268EB40103123EF27E027F007D007B94
:10466F00017A24791D1229309027C374FFF0A374A7
:10467F0016F0A37485F07B017A24791D1231B8905E
:10468F0027C37401F0A37424F0A3741DF07BFF7A89
:10469F0016798B1231BE7B017A24791D1260D6AC4C
:1046AF0006AD077B017A24791D90279E7468F0E48C
:0546BF00A3F00248C752
:105199007E027F007D007B017A24791D12293090DF
:1051A90027C374FFF0A37416F0A3741AF0A374FF55
:1051B900F0A37419F0A37488F0902704E0FBA3E02E
:1051C900FAA3E0249BF9E43AFA9027C9EBF0A3EAA1
:1051D900F0A3E9F07B017A24791D1231B89027C335
:1051E9007401F0A37424F0A3741DF07BFF7A16797F
:1051F9003B1231BE7B017A24791D1260D6AC06AD13
:10520900077B017A24791D90279E7451F0A37401BC
:04521900F00248C790
:10521D007E027F007D007B017A24791D122930905A
:10522D0027C374FFF0A37416F0A3741AF0A374FFD0
:10523D00F0A37419F0A3748DF0902704E0FBA3E0A4
:10524D00FAA3E024BBF9E43AFA9027C9EBF0A3EAFC
:10525D00F0A3E9F07B017A24791D1231B89027C3B0
:10526D007401F0A37424F0A3741DF07BFF7A1679FA
:10527D00451231BE7B017A24791D1260D6AC06AD84
:10528D00077B017A24791D90279E7452F0A3740137
:04529D00F00248C70C
:10566C007E027F007D007B017A24791D1229309007
:10567C0027C374FFF0A37416F0A3742CF0A374FF6B
:10568C00F0A37419F0A37492F07B017A24791D12A3
:10569C0031B89027C37401F0A37424F0A3741DF0E7
:1056AC007BFF7A1679951231BE7B017A24791D1213
:1056BC0060D6AC06AD077B017A24791D90279E74C9
:0956CC0053F0A37401F00248C779
:1056D5007E027F007D007B017A24791D122930909E
:1056E50027C374FFF0A37416F0A3742CF0A374FF02
:1056F500F0A37419F0A37497F07B017A24791D1235
:1057050031B89027C37401F0A37424F0A3741DF07D
:105715007BFF7A16799F1231BE7B017A24791D129F
:1057250060D6AC06AD077B017A24791D90279E745F
:0957350054F0A37401F00248C70E
:1054A800902793EFF07E027F007D007B017A2479BC
:1054B8001D1229309027C374FFF0A37416F0A3744B
:1054C800A9F0A374FFF0A37419F0A3749CF09027BB
:1054D80093E09027C9F07B017A24791D1231B890A6
:1054E80027C37401F0A37424F0A3741DF07BFF7A22
:1054F8001679B11231BE7B017A24791D1260D6ACBF
:1055080006AD077B017A24791D90279E7455F0A378
:065518007401F00248C717
:10551E00902793EFF07E027F007D007B017A247945
:10552E001D1229309027C374FFF0A37416F0A374D4
:10553E00A9F0A374FFF0A37419F0A374A1F090273F
:10554E0093E09027C9F07B017A24791D1231B8902F
:10555E0027C37401F0A37424F0A3741DF07BFF7AAB
:10556E001679BB1231BE7B017A24791D1260D6AC3E
:10557E0006AD077B017A24791D90279E7456F0A301
:06558E007401F00248C7A1
:10573E007E027F007D007B017A24791D1229309034
:10574E0027C374FFF0A37416F0A374C5F0A374FFFF
:10575E00F0A37419F0A374A6F07B017A24791D12BC
:10576E0031B89027C37401F0A37424F0A3741DF014
:10577E007BFF7A1679CB1231BE7B017A24791D120A
:10578E0060D6AC06AD077B017A24791D90279E74F6
:09579E0059F0A37401F00248C7A0
:1053A700902793EFF0A3EDF07E027F007D007B0155
:1053B7007A24791D1229309027C374FFF0A374163D
:1053C700F0A374D5F0A374FFF0A37419F0A374B518
:1053D700F0902793E09027C9F0902794E09027CA90
:1053E700F07B017A24791D1231B89027C37401F03C
:1053F700A37424F0A3741DF07BFF7A1679E01231B1
:10540700BE7B017A24791D1260D6AC06AD077B01FD
:105417007A24791D90279E745BF0A37401F00248EB
:01542700C7BD
:10559400902793EFF07E027F007D007B017A2479CF
:1055A4001D1229309027C374FFF0A37416F0A3745E
:1055B400A9F0A374FFF0A37419F0A374BAF09027B0
:1055C40093E09027C9F07B017A24791D1231B890B9
:1055D40027C37401F0A37424F0A3741DF07BFF7A35
:1055E4001679E91231BE7B017A24791D90279E74C5
:0D55F4005CF0A37401F07D007C020248C74A
:104C8200902794EFF07E027F007D007B017A2479E9
:104C92001D1229309027C374FFF0A37416F0A37479
:104CA2002CF0A374FFF0A37419F0A37483F07B01BA
:104CB2007A24791D1231B8902794E0702D7BFF7A07
:104CC2001679F31231BE7B017A24791D1260D6ACBB
:104CD20006AD077B017A24791D90279E7469F090B6
:104CE2002794E090279FF01248C7902794E0B401E0
:104CF2002D7BFF7A1679FE1231BE7B017A24791D53
:104D02001260D6AC06AD077B017A24791D90279EEE
:0F4D12007458F0902794E090279FF01248C72222
:10499700EF1228214A23014A26024A29034A2C04F6
:1049A7004A38064A3D074A56084A2F0F49DB10493D
:1049B700DE1149E11249E41349E71449EA1549EDC3
:1049C7001649F01749FC184A00194A1F1E49F31FD8
:1049D70000004A5B024A650257A7024EE7024F747E
:1049E7000252A102532402580F02459FE4FF124CC2
:1049F70082E4FF8051E4FF803AE49027FDF07BFFDB
:104A07007A1779091231BEE4FF125D91902793EF6F
:104A1700F090280B7409F022E4FF803502519902C7
:104A2700521D02566C0256D57F01124C827F0180BF
:104A3700157F01024C82E49027FDF07BFF7A1779FE
:104A47001C1231BE7F01125D91902793EFF0227FF8
:0D4A570001024B2F7BFF7A17792F1231BE21
:014A6400222F
:105428007B017A267929902704EBF0A3EAF0A3E917
:10543800F07E007FDB7D00122930902704E0FBA37B
:10544800E0FAA3E0247BF9E43AA801FCAD03902834
:1054580013E0FBA3E0FAA3E0F9122913902704E074
:10546800FBA3E0FAA3E0249BF9E43AA801FCAD030E
:1054780090283AE0FBA3E0FAA3E0F9122913902759
:1054880004E0FBA3E0FAA3E024BBF9E43AA801FC9A
:10549800AD039027FEE0FBA3E0FAA3E0F90229138D
:104475007B017A2279DD902411EBF0A3EAF0A3E920
:10448500F0E41226D47E017F31FD902411E0FBA3D8
:10449500E0FAA3E0F9122930902411E0FBA3E0FA39
:1044A500A3E02491F9E43AA801FCAD03902810E0BB
:1044B500FBA3E0FAA3E0F9122913902411E0FBA372
:1044C500E0FAA3E024B1F9E43AA801FCAD03902891
:1044D50035E0FBA3E0FAA3E0F9122913902411E0DB
:1044E500FBA3E0FAA3E024D1F9E43AA801FCAD036B
:1044F5009027FAE0FBA3E0FAA3E0F9122913902430
:1045050011E0FBA3E0FAA3E02431F9E43AA801FCA9
:10451500AD03902830E0FBA3E0FAA3E0F9122913DC
:10452500902411E0FBA3E0FAA3E02411F9EA340199
:10453500A801FCAD03902825E0FBA3E0FAA3E0F970
:10454500122913902411E0FBA3E0FAA3E02461F9FA
:10455500E43AA801FCAD037B017A277927122913D8
:10456500902411E0FBA3E0FAA3E024F1F9E43AA8D2
:1045750001FCAD037B017A27794712291390241199
:10458500E0FBA3E0FAA3E02401F9E43AA801FCADBD
:0A459500037B017A277967022913DE
:102146007E007F807D007B017A22795D1229307BBB
:10215600FF7A1779961260D690279EEEF0A3EFF0DD
:1021660090279B7401F0A37422F0A3745DF090276E
:10217600A0E4F0A3744CF07BFF7A1779961241EE37
:102186009027A17401F0A37422F0A3745DF07B0183
:102196007A24791D1256019027A174FFF0A37417B3
:1021A600F0A3749CF07B017A24791D1256019027C6
:1021B60004E0FBA3E0FAA3E0245BF9E43AFA9027F3
:1021C600A1EBF0A3EAF0A3E9F07B017A24791D12D2
:1021D60056019027A174FFF0A37417F0A374A3F01F
:1021E6007B017A24791D1256017E007F807D007B5B
:1021F600017A22795D122930902414E0FBA3E0FADB
:10220600A3E0F91260D690279EEEF0A3EFF0902798
:102216009B7401F0A37422F0A3745DF09027A0E4F0
:10222600F0A3744CF0902414E0FBA3E0FAA3E0F9C9
:102236001241EE9027A17401F0A37422F0A3745DFD
:10224600F07B017A24791D125601902704E0FBA346
:10225600E0FAA3E0F99000011226A76401600302E8
:1022660023ABFE7F06FDFB7A0079081229307E003B
:102276007F127D007B007A00790E1229307B007A6E
:10228600007908125CFE7B007A0079081260D6ABF2
:10229600077F087D0E1258D97B007A00790E1260EE
:1022A600D69027C3EEF0A3EFF07BFF7A1779A5123D
:1022B60031BE7B007A00790E1260D6D3EF9411EE10
:1022C600648094804003E4F51F9027A174FFF0A377
:1022D6007414F0A37471F07B017A24791D125601EF
:1022E6007E007F807D007B017A22795D1229307B1A
:1022F600FF7A1779B21260D690279EEEF0A3EFF020
:1023060090279B7401F0A37422F0A3745DF09027CC
:10231600A0E4F0A3744CF07BFF7A1779B21241EE79
:102326009027A17401F0A37422F0A3745DF07B01E1
:102336007A24791D1256017E007F807D007B017A0A
:1023460022795D1229307B007A00790E1260D690D0
:10235600279EEEF0A3EFF090279B7401F0A3742262
:10236600F0A3745DF09027A0E4F0A3744CF07B001A
:102376007A00790E1241EE9027A17401F0A374221F
:10238600F0A3745DF07B017A24791D125601902723
:10239600A174FFF0A37417F0A374B8F07B017A243C
:1023A600791D125601902623E0F9A3E0FAA3E090E6
:1023B60027A1C9F0A3EAF0A3E9F07B017A24791DED
:1023C6001256019027A174FFF0A37415F0A3740EA2
:1023D600F07B017A24791D125601902704E0FBA3B5
:1023E600E0FAA3E0245BF9E43AFA9027A1EBF0A324
:1023F600EAF0A3E9F07B017A24791D1256019027B1
:10240600A174FFF0A37415F0A37416F07B017A246F
:10241600791D1256019027A17401F0A37427F0A329
:102426007427F07B017A24791D1256019027A17436
:10243600FFF0A37415F0A3741AF07B017A24791DBA
:102446001256019027A174FFF0A37417F0A374BD70
:10245600F07B017A24791D125601902411E0FBA32A
:10246600E0FAA3E02431F9E43AFA9027A1EBF0A3CD
:10247600EAF0A3E9F07B017A24791D125601902730
:10248600A174FFF0A37414F0A37471F07B017A2495
:10249600791D125601902704E0FBA3E0FAA3E0247D
:1024A6002BF9E43AFA1260D6EF4E60529027A174E7
:1024B600FFF0A37417F0A374C2F07B017A24791D90
:1024C600125601902704E0FBA3E0FAA3E0242BF9BF
:1024D600E43AFA9027A1EBF0A3EAF0A3E9F07B0136
:1024E6007A24791D1256019027A174FFF0A3741463
:1024F600F0A37471F07B017A24791D12560190279E
:10250600A174FFF0A37417F0A374C7F07B017A24BB
:10251600791D125601902704E0FBA3E0FAA3E024FC
:1025260003F9E43AFA9027A1EBF0A3EAF0A3E9F065
:102536007B017A24791D1256019027A174FFF0A31E
:102546007417F0A374CEF07B017A24791D1256011C
:10255600902411E0FBA3E0FAA3E024F1F9E43AFAAF
:102566009027A1EBF0A3EAF0A3E9F07B017A2479A6
:102576001D125601902626E0F9A3E0FAA3E0902763
:10258600A1C9F0A3EAF0A3E9F07B017A24791D0240
:022596005601EC
:0E0003001226D49027B4E0FBA3E0FAA3E0F9A4
:0B0011009027B7EBF0A3EAF0A3E9F0A2
:10001C009027BFE06021E49027BAF0A3F09027BEB0
:10002C00E0FF6402700302105DEF64017003020FC5
:10003C0016EF700302118EE49027BAF0A3F090280B
:10004C0008E0FEA3E0FF9027BAE0FCA3E0FDC39F0D
:10005C00EC9E40030212229027B7E0FBA3E0FAA328
:10006C00E02DF9EA3CFA9027CFEBF0A3EAF0A3E9F4
:10007C00F0A3E4F0A37407F07BFF7A1779DA12503F
:10008C008DEF600302036C9027BBE02407F09027F0
:10009C00BAE03400F07BFF7A1779E21231BE902778
:1000AC00B7E0FBA3E0FAA3E0F9A3E0FEA3E0F5823E
:1000BC008E831226A7B4220E9027BBE004F07006A4
:1000CC009027BAE004F09027B7E0FBA3E0FAA3E096
:1000DC00F9A3E0FEA3E0F5828E831226A7643D60AF
:1000EC00030202429027B7E0FBA3E0FAA3E0F9A3D6
:1000FC00E0FEA3E0FFE92FF9EA3EFA9027CFEBF000
:10010C00A3EAF0A3E9F0A3E4F0A37403F07BFF7A75
:10011C001779EB12508DEF6023902808E0FEA3E0D6
:10012C00FFC39027BBE09F9027BAE09E500EA3E040
:10013C0004F070B09027BAE004F080A89027BBE0E0
:10014C002403F09027BAE03400F0E49027BCF0A32D
:10015C00F07E02FFFD7B017A24791D122930902755
:10016C00B7E0FBA3E0FAA3E0F9A3E0FEA3E0F5827D
:10017C008E831226A7FF643D6053EF643F604E9060
:10018C002808E0FEA3E0FF9027BAE0FCA3E0FDC343
:10019C009FEC9E50388D828C831226A7FF9027BC33
:1001AC00E0FCA3E0241DF58274243CF583EFF09071
:1001BC0027BDE004F070069027BCE004F09027BB4C
:1001CC00E004F070999027BAE004F080917E007FF3
:1001DC00207D00902704E0FBA3E0FAA3E0245BF968
:1001EC00E43AFA1229307B017A24791D1260D6ACDC
:1001FC0006AD07902704E0FBA3E0FAA3E0245BF92B
:10020C00E43AFA9027C5EBF0A3EAF0E9123B3C90F4
:10021C002704E0FBA3E0FAA3E0245BF9E43AFA90AC
:10022C0027C3EBF0A3EAF0A3E9F07BFF7A1779EF91
:10023C001231BE0202C2E49027BCF0A3F09027B7A3
:10024C00E0FBA3E0FAA3E0F9A3E0FEA3E0FFF58254
:10025C008E831226A76422605D902808E0FCA3E040
:10026C00FDC3EF9DEE9C504E9027B7A3A3A3A3E034
:10027C00F5828E831226A7FF902704E0FBA3E0FAF9
:10028C00A3E0245BF9E43AFA9027BCE0FCA3E02954
:10029C00F9EA3CFAEF1226D49027BDE004F0700680
:1002AC009027BCE004F09027BBE004F0708F9027FF
:1002BC00BAE004F080879027B7E0FBA3E0FAA3E054
:1002CC00F9A3E0FEA3E0FFF5828E831226A7643C1F
:1002DC00601F902808E0FCA3E0FDC3EF9DEE9C504E
:1002EC00109027BBE004F070CD9027BAE004F080AA
:1002FC00C59027BBE004F070069027BAE004F0E448
:10030C009027BCF0A3F09027B7E0FBA3E0FAA3E0A2
:10031C00F9A3E0FEA3E0FFF5828E831226A7FD640D
:10032C003E603D902808E0FAA3E0FBC3EF9BEE9AF9
:10033C00502E9027BCA3E02427F582E43427F583C4
:10034C00EDF09027BDE004F070069027BCE004F0BF
:10035C009027BBE004F070AE9027BAE004F080A6C2
:10036C009027B7E0FBA3E0FAA3E0F9A3E0FEA3E03B
:10037C00FFE92FF9EA3EFA9027CFEBF0A3EAF0A3BE
:10038C00E9F0A3E4F0A37405F07BFF7A1779FB1274
:10039C00508DEF60030204749027BBE02405F090AD
:1003AC0027BAE03400F07BFF7A1879011231BE9045
:1003BC0027B7E0FBA3E0FAA3E0F9A3E0FEA3E0F586
:1003CC00828E831226A7643C60109027BBE004F059
:1003DC0070DD9027BAE004F080D59027BBE004F0E4
:1003EC0070069027BAE004F0E49027BCF0A3F090DC
:1003FC0027B7E0FBA3E0FAA3E0F9A3E0FEA3E0FF3C
:10040C00F5828E831226A7643E605D902808E0FC7E
:10041C00A3E0FDC3EF9DEE9C504E9027B7A3A3A382
:10042C00A3E0F5828E831226A7FF902704E0FBA39E
:10043C00E0FAA3E0242BF9E43AFA9027BCE0FCA301
:10044C00E029F9EA3CFAEF1226D49027BDE004F03B
:10045C0070069027BCE004F09027BBE004F0708F8E
:10046C009027BAE004F080879027B7E0FBA3E0FA6E
:10047C00A3E0F9A3E0FEA3E0FFE92FF9EA3EFA902E
:10048C0027CFEBF0A3EAF0A3E9F0A3E4F0A3740701
:10049C00F07BFF7A18790812508DEF600302054348
:1004AC009027BBE02407F09027BAE03400F07BFFE4
:1004BC007A1879101231BEE49027BCF0A3F0902783
:1004CC00B7E0FBA3E0FAA3E0F9A3E0FEA3E0FFF59D
:1004DC00828E831226A7640D605D902808E0FCA331
:1004EC00E0FDC3EF9DEE9C504E9027B7A3A3A3A3B2
:1004FC00E0F5828E831226A7FF902704E0FBA3E091
:10050C00FAA3E02403F9E43AFA9027BCE0FCA3E058
:10051C0029F9EA3CFAEF1226D49027BDE004F070DA
:10052C00069027BCE004F09027BBE004F0708F909D
:10053C0027BAE004F080879027B7E0FBA3E0FAA38A
:10054C00E0F9A3E0FEA3E0FFE92FF9EA3EFA9027D9
:10055C00CFEBF0A3EAF0A3E9F0A3E4F0A3740AF064
:10056C007BFF7A18791912508DEF60030207929075
:10057C0027BBE0240AF09027BAE03400F07BFF7A26
:10058C001879241231BE9027B7E0FBA3E0FAA3E060
:10059C00F9A3E0FEA3E0F5828E831226A7B45B4894
:1005AC009027B7E0FBA3E0FAA3E0F9A3E0FEA3E0F9
:1005BC00FFF5828E831226A7B45D1F902808E0FCFD
:1005CC00A3E0FDC3EF9DEE9C50109027BBE004F020
:1005DC0070CE9027BAE004F080C69027BBE02402CE
:1005EC00F09027BAE03400F09027B7E0FBA3E0FAD4
:1005FC00A3E0F9A3E0FEA3E0F5828E831226A764A4
:10060C003D60030207319027B7E0FBA3E0FAA3E0BB
:10061C00F9A3E0FEA3E0FFE92FF9EA3EFA9027CF19
:10062C00EBF0A3EAF0A3E9F0A3E4F0A37403F07BEE
:10063C00FF7A1779EB12508DEF6023902808E0FEBB
:10064C00A3E0FFC39027BBE09F9027BAE09E500E1B
:10065C00A3E004F070B09027BAE004F080A89027D3
:10066C00BBE02403F09027BAE03400F0E49027BC00
:10067C00F0A3F07E02FFFD7B017A24791D12293054
:10068C009027B7E0FBA3E0FAA3E0F9A3E0FEA3E018
:10069C00F5828E831226A7FF643D6053EF643F60A2
:1006AC004E902808E0FEA3E0FF9027BAE0FCA3E000
:1006BC00FDC39FEC9E50388D828C831226A7FF9031
:1006CC0027BCE0FCA3E0241DF58274243CF583EFE9
:1006DC00F09027BDE004F070069027BCE004F09089
:1006EC0027BBE004F070999027BAE004F080917B6E
:1006FC00017A24791D1260D6AC06AD079027C5741B
:10070C0001F0A37427F0A37447123B3D9027C374E8
:10071C0001F0A37427F0A37447F07BFF7A187930AB
:10072C001231BE8061E49027BCF0A3F09027B7E0B3
:10073C00FBA3E0FAA3E0F9A3E0FEA3E0FFF5828EB1
:10074C00831226A7FD640D603D902808E0FAA3E013
:10075C00FBC3EF9BEE9A502E9027BCA3E02447F5E9
:10076C0082E43427F583EDF09027BDE004F07006A9
:10077C009027BCE004F09027BBE004F070AE90270B
:10078C00BAE004F080A69027B7E0FBA3E0FAA3E060
:10079C00F9A3E0FEA3E0FFE92FF9EA3EFA9027CF98
:1007AC00EBF0A3EAF0A3E9F0A3E4F0A37405F07B6B
:1007BC00FF7A18794212508DEF60030212117BFF01
:1007CC007A1879481231BE9027BBE02405F09027A7
:1007DC00BAE03400F09027B7E0FBA3E0FAA3E0F90D
:1007EC00A3E0FEA3E0FFE92FF9EA3EFA9027CFEB56
:1007FC00F0A3EAF0A3E9F0A3E4F0A3741BF07BFFF1
:10080C007A18794C12508DEF60599027B7E0FBA302
:10081C00E0FAA3E0F9A3E0FEA3E0FFE92FF9EA3E3A
:10082C00FA9027CFEBF0A3EAF0A3E9F0A3E4F0A34E
:10083C007409F07BFF7A18796812508DEF60249060
:10084C002808E0FEA3E0FFC39027BBE09F9027BAE7
:10085C00E09E500FA3E004F070069027BAE004F07D
:10086C000207E19027B7E0FBA3E0FAA3E0F9A3E0CD
:10087C00FEA3E0FFE92FF9EA3EFA9027CFEBF0A3B5
:10088C00EAF0A3E9F0A3E4F0A3741BF07BFF7A1861
:10089C00794C12508DEF6003020B849027BBE0243F
:1008AC001BF09027BAE03400F09027B7E0FBA3E0F0
:1008BC00FAA3E0F9A3E0FEA3E0FFE92FF9EA3EFA80
:1008CC009027CFEBF0A3EAF0A3E9F0A3E4F0A37434
:1008DC0006F07BFF7A13794A12508DEF701F7BFF65
:1008EC007A1879721231BE9027BBE02406F090275B
:1008FC00BAE03400F09027BE7401F080599027B70D
:10090C00E0FBA3E0FAA3E0F9A3E0FEA3E0FFE92FEC
:10091C00F9EA3EFA9027CFEBF0A3EAF0A3E9F0A3B3
:10092C00E4F0A37410F07BFF7A18797D12508DEFF0
:10093C00701F7BFF7A18798E1231BE9027BBE02492
:10094C0010F09027BAE03400F09027BE7402F080CB
:10095C0005E49027BEF09027B7E0FBA3E0FAA3E0F4
:10096C00F9A3E0FEA3E0FFE92FF9EA3EFA9027CFC6
:10097C00EBF0A3EAF0A3E9F0A3E4F0A37409F07B95
:10098C00FF7A18796812508DEF60109027BBE00445
:10099C00F070C39027BAE004F080BB9027BBE02432
:1009AC0009F09027BAE03400F09027B7E0FBA3E001
:1009BC00FAA3E0F9A3E0FEA3E0FFF5828E831226F2
:1009CC00A76422601F902808E0FCA3E0FDC3EF9D04
:1009DC00EE9C50109027BBE004F070CD9027BAE04D
:1009EC0004F080C59027BBE004F070069027BAE0B5
:1009FC0004F07BFF7A1879A31231BE9027B7E0FB85
:100A0C00A3E0FAA3E0F9A3E0FEA3E0F5828E831243
:100A1C0026A7643D6003020B1D9027B7E0FBA3E003
:100A2C00FAA3E0F9A3E0FEA3E0FFE92FF9EA3EFA0E
:100A3C009027CFEBF0A3EAF0A3E9F0A3E4F0A374C2
:100A4C0003F07BFF7A1779EB12508DEF602390281F
:100A5C0008E0FEA3E0FFC39027BBE09F9027BAE01D
:100A6C009E500EA3E004F070B09027BAE004F08022
:100A7C00A89027BBE02403F09027BAE03400F0E400
:100A8C009027BCF0A3F07E02FFFD7B017A24791D38
:100A9C001229309027B7E0FBA3E0FAA3E0F9A3E01A
:100AAC00FEA3E0F5828E831226A7FF643D6053EF10
:100ABC00643F604E902808E0FEA3E0FF9027BAE068
:100ACC00FCA3E0FDC39FEC9E50388D828C831226D4
:100ADC00A7FF9027BCE0FCA3E0241DF58274243C06
:100AEC00F583EFF09027BDE004F070069027BCE092
:100AFC0004F09027BBE004F070999027BAE004F062
:100B0C0080917B017A24791D1260D6123B2C020E47
:100B1C0092E49027BCF0A3F09027B7E0FBA3E0FA97
:100B2C00A3E0F9A3E0FEA3E0FFF5828E831226A7D3
:100B3C00FD64227003020E92902808E0FAA3E0FBF9
:100B4C00C3EF9BEE9A4003020E929027BCA3E024C5
:100B5C0067F582E43427F583EDF09027BDE004F0CF
:100B6C0070069027BCE004F09027BBE004F070A85E
:100B7C009027BAE004F080A09027B7E0FBA3E0FA3E
:100B8C00A3E0F9A3E0FEA3E0FFE92FF9EA3EFA9017
:100B9C0027CFEBF0A3EAF0A3E9F0A3E4F0A37409E8
:100BAC00F07BFF7A18796812508DEF6003020E9279
:100BBC007BFF7A1879A31231BE9027BBE02409F091
:100BCC009027BAE03400F09027B7E0FBA3E0FAA33B
:100BDC00E0F9A3E0FEA3E0FFF5828E831226A76462
:100BEC0022601F902808E0FCA3E0FDC3EF9DEE9C63
:100BFC0050109027BBE004F070CD9027BAE004F0C1
:100C0C0080C59027BBE004F070069027BAE004F092
:100C1C009027B7E0FBA3E0FAA3E0F9A3E0FEA3E082
:100C2C00F5828E831226A7643D6003020D31902756
:100C3C00B7E0FBA3E0FAA3E0F9A3E0FEA3E0FFE931
:100C4C002FF9EA3EFA9027CFEBF0A3EAF0A3E9F0F4
:100C5C00A3E4F0A37403F07BFF7A1779EB12508DA9
:100C6C00EF6023902808E0FEA3E0FFC39027BBE0D1
:100C7C009F9027BAE09E500EA3E004F070B090272E
:100C8C00BAE004F080A89027BBE02403F09027BAC8
:100C9C00E03400F0E49027BCF0A3F07E02FFFD7B73
:100CAC00017A24791D1229309027B7E0FBA3E0FAD2
:100CBC00A3E0F9A3E0FEA3E0F5828E831226A7FF42
:100CCC00643D6053EF643F604E902808E0FEA3E063
:100CDC00FF9027BAE0FCA3E0FDC39FEC9E50388D3B
:100CEC00828C831226A7FF9027BCE0FCA3E0241D76
:100CFC00F58274243CF583EFF09027BDE004F0708E
:100D0C00069027BCE004F09027BBE004F0709990AB
:100D1C0027BAE004F080917B017A24791D1260D609
:100D2C00123B2C8061E49027BCF0A3F09027B7E035
:100D3C00FBA3E0FAA3E0F9A3E0FEA3E0FFF5828EAB
:100D4C00831226A7FD6422603D902808E0FAA3E0F8
:100D5C00FBC3EF9BEE9A502E9027BCA3E02467F5C3
:100D6C0082E43427F583EDF09027BDE004F07006A3
:100D7C009027BCE004F09027BBE004F070AE902705
:100D8C00BAE004F080A69027B7E0FBA3E0FAA3E05A
:100D9C00F9A3E0FEA3E0FFE92FF9EA3EFA9027CF92
:100DAC00EBF0A3EAF0A3E9F0A3E4F0A3741BF07B4F
:100DBC00FF7A18794C12508DEF60109027BBE0042D
:100DCC00F070C39027BAE004F080BB9027BBE024FE
:100DDC001BF09027BAE03400F09027B7E0FBA3E0BB
:100DEC00FAA3E0F9A3E0FEA3E0FFE92FF9EA3EFA4B
:100DFC009027CFEBF0A3EAF0A3E9F0A3E4F0A374FF
:100E0C0006F07BFF7A13794A12508DEF701F7BFF2F
:100E1C007A1879721231BE9027BBE02406F0902725
:100E2C00BAE03400F09027BE7401F080599027B7D7
:100E3C00E0FBA3E0FAA3E0F9A3E0FEA3E0FFE92FB7
:100E4C00F9EA3EFA9027CFEBF0A3EAF0A3E9F0A37E
:100E5C00E4F0A37410F07BFF7A18797D12508DEFBB
:100E6C00701F7BFF7A18798E1231BE9027BBE0245D
:100E7C0010F09027BAE03400F09027BE7402F08096
:100E8C0005E49027BEF09027B7E0FBA3E0FAA3E0BF
:100E9C00F9A3E0FEA3E0FFE92FF9EA3EFA9027CF91
:100EAC00EBF0A3EAF0A3E9F0A3E4F0A37403F07B66
:100EBC00FF7A1879B012508DEF6023902808E0FE6D
:100ECC00A3E0FFC39027BBE09F9027BAE09E500E93
:100EDC00A3E004F070B09027BAE004F080A890274B
:100EEC00BBE02403F09027BAE03400F09027BEE07A
:100EFC006401600302103F9027BCF0A3F07E02FF58
:100F0C00FD7B017A24791D1229309027B7E0FBA3D1
:100F1C00E0FAA3E0F9A3E0FEA3E0FFF5828E8312D2
:100F2C0026A7643D7003020FFC9027B7A3A3E02F04
:100F3C00F9EA3EFA9027CFEBF0A3EAF0A3E9F0A38D
:100F4C00E4F0A37404F07BFF7A1479F612508DEF61
:100F5C007003020FFC9027B7E0FBA3E0FAA3E0F9C3
:100F6C00A3E0FEA3E0FFE92FF9EA3EFA9027CFEBCE
:100F7C00F0A3EAF0A3E9F0A3E4F0A37404F07BFF80
:100F8C007A15797212508DEF6066902808E0FEA3F6
:100F9C00E0FFC39027BBE09F9027BAE09E50519092
:100FAC0027BCE0FEA3E0FFC3EE940250439027B7AA
:100FBC00E0FBA3E0FAA3E0F9A3E0FCA3E0F5828C4C
:100FCC00831226A7FD741D2FF58274243EF583ED44
:100FDC00F09027BDE004F070069027BCE004F09080
:100FEC0027BBE004F070069027BAE004F0020F165D
:100FFC00902809E024FFFF902808E034FFFEC390FE
:10100C0027BBE09F9027BAE09E400302120BE490AE
:10101C0027BFF07B017A24791D1260D6AC06AD0790
:10102C009027C57401F0A37420F0A3745D123B3DAE
:10103C000212119027BEE06402600302117E902719
:10104C00BCF0A3F07E02FFFD7B017A24791D1229EE
:10105C00309027B7E0FBA3E0FAA3E0F9A3E0FEA3EE
:10106C00E0FFE92FF9EA3EFA9027CFEBF0A3EAF084
:10107C00A3E9F0A3E4F0A37405F07BFF7A1679855D
:10108C0012508DEF70030211309027B7E0FBA3E0F4
:10109C00FAA3E0F9A3E0FEA3E0FFE92FF9EA3EFA98
:1010AC009027CFEBF0A3EAF0A3E9F0A3E4F0A3744C
:1010BC0004F07BFF7A1479F612508DEF606690285D
:1010CC0008E0FEA3E0FFC39027BBE09F9027BAE0A7
:1010DC009E50519027BCE0FEA3E0FFC3EE9402505B
:1010EC00439027B7E0FBA3E0FAA3E0F9A3E0FCA34D
:1010FC00E0F5828C831226A7FD741D2FF5827424D3
:10110C003EF583EDF09027BDE004F070069027BC0F
:10111C00E004F09027BBE004F070069027BAE004DE
:10112C00F002105D902809E024FFFF902808E034BD
:10113C00FFFEC39027BBE09F9027BAE09E400302BE
:10114C00120BE49027BFF07B017A24791D1260D634
:10115C009027C6EEF0A3EFF09027C37401F0A374B0
:10116C0020F0A3745DF07B017A24791D12434B02AD
:10117C0012117BFF7A1879B41231BEE49027BCF0BF
:10118C00A3F09027B7E0FBA3E0FAA3E0F9A3E0FEFD
:10119C00A3E0FFF5828E831226A7FD640D604790B5
:1011AC002808E0FAA3E0FBC3EF9BEE9A5038902797
:1011BC00BCE0FEA3E0FFC3EE9402502A745D2FF551
:1011CC008274203EF583EDF09027BDE004F07006AC
:1011DC009027BCE004F09027BBE004F070A49027AB
:1011EC00BAE004F0809C902809E024FFFF902808C6
:1011FC00E034FFFEC39027BBE09F9027BAE09E909F
:10120C0027BF7401F09027BBE004F070069027BA5A
:10121C00E004F002004A9027C37401F0A37427F095
:10122C00A37427F07BFF7A1879B91231BE9027048A
:10123C00E0FBA3E0FAA3E0245BF9E43AFA9027C3BD
:10124C00EBF0A3EAF0A3E9F07BFF7A1879C4123132
:10125C00BE9027C37401F0A37427F0A37447F07BEE
:10126C00FF7A1879D41231BE9027C37401F0A3749D
:10127C0027F0A37467F07BFF7A1879E21231BE90E5
:10128C002704E0FBA3E0FAA3E02403F9E43AFA9084
:10129C0027C3EBF0A3EAF0A3E9F07BFF7A1879F30C
:1012AC001231BE9027C37401F0A37420F0A3745DB7
:1012BC00F07BFF7A1979031231BE902704E0FBA36F
:1012CC00E0FAA3E0F912268E604E9027CF7401F05D
:1012DC00A37420F0A3745DF0A3E4F0A37403F07B7B
:1012EC00FF7A19791412508DEF902704700FE0FBE0
:1012FC00A3E0FAA3E0F99000017401800CE0FBA3D9
:10130C00E0FAA3E0F9900001E41226E67BFF7A19DB
:08131C0079181231BE1244756C
:0113240022A6
:101ABF009027B4EBF0A3EAF0A3E9F0ED24B0B41A49
:101ACF00004003022143901AE375F003A4C5832558
:101ADF00F0C58373021D82021DB4021DE7021E1A98
:101AEF00021E4D021F5A022048022143021F01020B
:101AFF00207B0221430220AE02210F02214302214B
:101B0F0043022143021B31021B64021B97021BF588
:101B1F00021C28021C5B021C8E021CC1021CF40258
:101B2F001D279027B4E0F9A3E0FAA3E09027CFC9CF
:101B3F00F0A3EAF0A3E9F0A3E4F0A37403F07BFFB2
:101B4F007A19791E12508DEF700890280B741002BD
:101B5F00213C7F31229027B4E0F9A3E0FAA3E09073
:101B6F0027CFC9F0A3EAF0A3E9F0A3E4F0A374032D
:101B7F00F07BFF7A19792212508DEF700890280BA5
:101B8F00741102213C7F32229027B4E0F9A3E0FACE
:101B9F00A3E09027CFC9F0A3EAF0A3E9F0A3E4F004
:101BAF00A37403F07BFF7A19792212508DEF700323
:101BBF00021E759027B4E0F9A3E0FAA3E09027CFB7
:101BCF00C9F0A3EAF0A3E9F0A3E4F0A37403F07B58
:101BDF00FF7A19792612508DEF700890280B741226
:101BEF0002213C7F33229027B4E0F9A3E0FAA3E06F
:101BFF009027CFC9F0A3EAF0A3E9F0A3E4F0A37410
:101C0F0003F07BFF7A19792612508DEF7008902818
:101C1F000B741302213C7F34229027B4E0F9A3E028
:101C2F00FAA3E09027CFC9F0A3EAF0A3E9F0A3E469
:101C3F00F0A37403F07BFF7A19792A12508DEF709D
:101C4F000890280B741402213C7F35229027B4E0B2
:101C5F00F9A3E0FAA3E09027CFC9F0A3EAF0A3E934
:101C6F00F0A3E4F0A37403F07BFF7A1979221250EA
:101C7F008DEF700890280B741502213C7F3622904F
:101C8F0027B4E0F9A3E0FAA3E09027CFC9F0A3EAC5
:101C9F00F0A3E9F0A3E4F0A37403F07BFF7A1979C2
:101CAF002212508DEF700890280B741602213C7F82
:101CBF0037229027B4E0F9A3E0FAA3E09027CFC929
:101CCF00F0A3EAF0A3E9F0A3E4F0A37403F07BFF21
:101CDF007A19792E12508DEF700890280B74170215
:101CEF00213C7F38229027B4E0F9A3E0FAA3E090DB
:101CFF0027CFC9F0A3EAF0A3E9F0A3E4F0A374039C
:101D0F00F07BFF7A19792212508DEF700890280B13
:101D1F00741802213C7F39229027B4E0F9A3E0FA2E
:101D2F00A3E09027CFC9F0A3EAF0A3E9F0A3E4F072
:101D3F00A37403F07BFF7A19791E12508DEF602880
:101D4F009027B4E0F9A3E0FAA3E09027CFC9F0A35E
:101D5F00EAF0A3E9F0A3E4F0A37403F07BFF7A1990
:101D6F00793212508DEF700890280B741902213CB4
:101D7F007F3A229027B4E0F9A3E0FAA3E09027CFAF
:101D8F00C9F0A3EAF0A3E9F0A3E4F0A37403F07B96
:101D9F00FF7A19793612508DEF700790280B0402D5
:101DAF00213C7F20229027B4E0F9A3E0FAA3E09032
:101DBF0027CFC9F0A3EAF0A3E9F0A3E4F0A37403DB
:101DCF00F07BFF7A19793612508DEF700890280B3F
:101DDF00740202213C7F21229027B4E0F9A3E0FA9C
:101DEF00A3E09027CFC9F0A3EAF0A3E9F0A3E4F0B2
:101DFF00A37403F07BFF7A19793612508DEF7008B8
:101E0F0090280B740302213C7F22229027B4E0F923
:101E1F00A3E0FAA3E09027CFC9F0A3EAF0A3E9F07B
:101E2F00A3E4F0A37403F07BFF7A19793612508D77
:101E3F00EF700890280B740402213C7F2322902717
:101E4F00B4E0F9A3E0FAA3E09027CFC9F0A3EAF03A
:101E5F00A3E9F0A3E4F0A37403F07BFF7A197936BA
:101E6F0012508DEF700690280BF0FF229027B4E0F0
:101E7F00F9A3E0FAA3E09027CFC9F0A3EAF0A3E912
:101E8F00F0A3E4F0A304F07BFF7A19793A12508D96
:101E9F00EF701B902704E0FBA3E0FAA3E0F990009A
:101EAF000274011226E690280B740602213C90273B
:101EBF00B4E0F9A3E0FAA3E09027CFC9F0A3EAF0CA
:101ECF00A3E9F0A3E4F0A304F07BFF7A19793C12A5
:101EDF00508DEF701A902704E0FBA3E0FAA3E0F90E
:101EEF00900002E41226E690280B740502213C7F35
:101EFF0024229027B4E0F9A3E0FAA3E09027CFC9FA
:101F0F00F0A3EAF0A3E9F0A3E4F0A37403F07BFFDE
:101F1F007A19793612508DEF702E902704E0FBA3BB
:101F2F00E0FAA3E0F99000021226A760127FC81210
:101F3F0061617FC812616190280B7408F080069070
:101F4F00280B7407F07F00227F27229027B4E0F937
:101F5F00A3E0FAA3E09027CFC9F0A3EAF0A3E9F03A
:101F6F00A3E4F0A37403F07BFF7A19793612508D36
:101F7F00EF703790280BF07E02FFFD7B017A2079FE
:101F8F005D1229307E007F607D007B017A277927E3
:101F9F001229307E007FDB7D00902704E0FBA3E059
:101FAF00FAA3E0F91229307F00229027B4E0F9A3B9
:101FBF00E0FAA3E09027CFC9F0A3EAF0A3E9F0A3DA
:101FCF00E4F0A37406F07BFF7A19793E12508DEF7F
:101FDF0060649027B4E0FBA3E0FAA3E0F99028092E
:101FEF00E024FBFF902808E034FFFEE92FF9EA3EDA
:101FFF00FA9027CFEBF0A3EAF0A3E9F0A3E4F0A364
:10200F007405F07BFF7A16798512508DEF902704B7
:10201F007015E0FBA3E0FAA3E0F97401120003903E
:10202F00280B741EF0800CE0FBA3E0FAA3E0F9E4A8
:10203F001200037F00227F25229027B4E0F9A3E04E
:10204F00FAA3E09027CFC9F0A3EAF0A3E9F0A3E445
:10205F00F0A37403F07BFF7A19793612508DEF706D
:10206F000890280B740602213C7F26229027B4E0AB
:10207F00F9A3E0FAA3E09027CFC9F0A3EAF0A3E910
:10208F00F0A3E4F0A37403F07BFF7A1979361250B2
:10209F008DEF700890280B740602213C7F28229048
:1020AF0027B4E0F9A3E0FAA3E09027CFC9F0A3EAA1
:1020BF00F0A3E9F0A3E4F0A37403F07BFF7A19799E
:1020CF003612508DEF700790280B7406805F9027A3
:1020DF00B4E0F9A3E0FAA3E09027CFC9F0A3EAF0A8
:1020EF00A3E9F0A3E4F0A37406F07BFF7A19794516
:1020FF0012508DEF700790280B740680307F2B22C3
:10210F009027B4E0F9A3E0FAA3E09027CFC9F0A39A
:10211F00EAF0A3E9F0A3E4F0A37403F07BFF7A19CC
:10212F00793612508DEF700990280B7406F07F00EE
:07213F00227F2C227F3F22CA
:105C5A00303030303030300030303000303030309A
:105C6A003030303000303030303030303030006F4B
:105C7A006E65003030303030300074657874006DF5
:0A5C8A005F66696C652E7478740083
:1037880044280CC0A8016444282CC0A8010144287E
:1037980021FFFFFF004428193AD52DBA42282800F6
:1037A80019422833184444281D3AD52DBA42282AEC
:1037B800006E4228381FD8432810FF5C5A4328352A
:1037C800FF5C624327FAFF5C66432830FF5C6F4367
:1037D8002825FF5C79432802FF5C7D432805FF5CB0
:1037E80084432816FF5C89432813FF5C6643283A04
:1037F800FF5C5A4327FEFF5C5A4128010041280A12
:0138080000BF
:10587700125C1F1244751254287F01124B2F20B35C
:1058870003124BE2902801E060F4E4F090280BE06B
:10589700FF12499790280BE0B405057F311254A8F1
:1058A70090280BE0B409057F3112551E90280BE0B4
:1058B700B40A0312573E90280BE0B40B077D337FE1
:1058C700311253A790280BE0B40EB37F31125594D1
:0258D70080ACA3
:03000000025001AA
:0C500100787FE4F6D8FD75812602504847
:10259800E709F608DFFA8046E709F208DFFA803E25
:1025A80088828C83E709F0A3DFFA8032E309F60812
:1025B800DFFA8078E309F208DFFA807088828C837A
:1025C800E309F0A3DFFA806489828A83E0A3F6082E
:1025D800DFFA805889828A83E0A3F208DFFA804C08
:1025E80080D280FA80C680D4806980F280338010DF
:1025F80080A680EA809A80A880DA80E280CA803348
:1026080089828A83ECFAE493A3C8C582C8CCC583BF
:10261800CCF0A3C8C582C8CCC583CCDFE9DEE7808F
:102628000D89828A83E493A3F608DFF9ECFAA9F00E
:10263800EDFB2289828A83ECFAE0A3C8C582C8CC64
:10264800C583CCF0A3C8C582C8CCC583CCDFEADE7D
:10265800E880DB89828A83E493A3F208DFF980CCDF
:1026680088F0EF60010E4E60C388F0ED2402B404D8
:102678000050B9F582EB2402B4040050AF2323457F
:0626880082239025E87397
:10268E00BB010689828A83E0225002E722BBFE024A
:09269E00E32289828A83E493227D
:1026A700BB010CE58229F582E5833AF583E02250E8
:1026B70006E92582F8E622BBFE06E92582F8E22232
:0D26C700E58229F582E5833AF583E493224C
:1026D400BB010689828A83F0225002F722BBFE01E5
:0226E400F322DF
:1026E600F8BB010DE58229F582E5833AF583E8F02A
:1026F600225006E92582C8F622BBFE05E92582C8D6
:02270600F222BD
:10270800BC000BBE0029EF8DF084FFADF022E4CCB5
:10271800F875F008EF2FFFEE33FEEC33FCEE9DEC7E
:10272800984005FCEE9DFE0FD5F0E9E4CEFD22EDC4
:10273800F8F5F0EE8420D21CFEADF075F008EF2F0E
:10274800FFED33FD4007985006D5F0F222C398FDFF
:052758000FD5F0EA229C
:10275D00C5F0F8A3E028F0C5F0F8E5821582700207
:06276D001583E038F022A4
:10277300A3F8E0C5F025F0F0E58215827002158319
:06278300E0C838F0E82276
:10278900BB010A89828A83F0E5F0A3F0225006F79B
:0F27990009A7F01922BBFE06F3E5F009F3192298
:1027A800EB9FF5F0EA9E42F0E99D42F0EC6480C8A8
:0627B80064809845F02248
:1027BE00E8600FECC313FCED13FDEE13FEEF13FFF9
:0327CE00D8F1221D
:1027D100E8600FEFC333FFEE33FEED33FDEC33FC66
:0327E100D8F1220A
:0C27E400ECF0A3EDF0A3EEF0A3EFF02268
:1027F000A8828583F0D083D082122807122807127E
:102800002807122807E473E493A3C583C5F0C583A2
:10281000C8C582C8F0A3C583C5F0C583C8C582C832
:012820002295
:10282100D083D082F8E4937012740193700DA3A346
:1028310093F8740193F5828883E47374029368605A
:06284100EFA3A3A380DF5A
:10315300E52224C3F582E43427F583E00522229097
:1031630027C03007039027C3E475F00112298D02AD
:10317300268E2000E97F2ED2008018EF540F249072
:10318300D43440D4FF30040BEF24BFB41A005003EF
:103193002461FFE523600215230526E52670020559
:1031A3002530070E9027C0E475F00112298DEF0238
:1031B30026D4025EC27403D2078003E4C207F52259
:1031C3009027C01229BBE4F523F525F526E52360F6
:1031D300077F2012319680F57524FFC201C200C219
:1031E30002C203C205C206C208123162FF700D306B
:1031F30007057F001231A7AF26AE2522B4255FC293
:10320300D5C204123162FF24D0B40A00501A75F0FB
:103213000A782330D50508B6FF0106C6A426F62092
:10322300D5047002D20380D924CFB41A00EF50041E
:10323300C2E5D2040233A8D20180C6D20080C0D234
:103243000280BCD2D580BAD20580B47F20123196D9
:103253002002077401B5230040F1123153FF1231EC
:10326300960231D0D208D2068095123153FB123127
:1032730053FA123153F94A4B700679797A347BFF4A
:1032830020022EE523602A7E008E8275830012269B
:10329300A760060EEE652470F0C2D5EBC0E0EAC06D
:1032A300E0E9C0E0EE1233EFD0E0F9D0E0FAD0E08D
:1032B300FB12268EFF60AAEBC0E0EAC0E0E9C0E0A3
:1032C300123196D0E02401F9D0E03400FAD0E0FBCB
:1032D300E5240460DCD524D980877BFF7A3379EB3E
:1032E300D202809C791080027908C206C208800845
:1032F300D2D5790A8004790AC2D5E524047002F58F
:1033030024E4FAFDFEFF123153FC7B082001131263
:103313003153FD7B1030000A123153FE123153FF3B
:103323007B20EC3382D592D55013C3E43000069F43
:10333300FFE49EFEE42001039DFDE49CFCE4CBF846
:10334300C201EC700CCFCECDCCE824F8F870F3803A
:1033530017C3EF33FFEE33FEED33FDEC33FCEB33FA
:10336300FB994002FB0FD8E9EB300105F8D0E0C42C
:1033730048B201C0E00AEC4D4E4F78207B0070C28A
:10338300EAB5240040BCC0E01233F1D0F0D0E02015
:103393000104C4C0E0C4B201C0F012317FD0F0D543
:1033A300F0EB0231D0122821326D5332E758323E0E
:1033B3004C323A4232EB4F32F34432F34932534305
:0833C30032F95532DD4632DD1E
:1033CB004532DD4734995032422D32462E32692B2D
:1033DB00324A2332672034822A320248000032619B
:1033EB003F3F3F00790AA2D5200314300509B910DD
:1033FB00020404B9080104A2D520060250010420DE
:10340B0002689202B523005034C0E07F20300319CC
:10341B007F30A20272067205500F123448C202C2EC
:10342B0006C205C2087F30800F300503E9C0E012E9
:10343B003196300503D0E0F9D0E0B523CC30051739
:10344B007F30B9100C1231967F583004077F78808B
:10345B0003B908031231963002057F2D0231967F96
:10346B00202008F87F2B2006F322920280CF286EB3
:10347B00756C6C2900D2011231533001F8C20178FE
:10348B002330D50108F60232022D50434958123130
:10349B00532403B405004001E49034949312318714
:0D34AB00743A123187D2037523040232E710
:10380A00E52230030104F8232824CFF582E4342783
:10381A00F583229027CC3003039027CFE475F0017B
:10382A0012298D02268E60EAC5267002152514C556
:10383A0026200304FF0262719027CC74FFF5F00280
:10384A0029A4FF026127E5236006D523037F00220E
:10385A0020030F126113EF60080526E526700205A2
:10386A0025229027CC12298412268EFF60E8902701
:10387A00CCE475F00112298D80DC12385AEFC0E0D1
:10388A0012384CD0E040F3809DD2038002C20390EC
:10389A0027CC1229BBE4F524F522F525F526752354
:1038AA0000C202C200C201C20412381DFF7005AF75
:1038BA00247E0022B4253012381DFF24D0B40A0019
:1038CA00500C75F00AC523A42523F52380E924CFDB
:1038DA00B41A00EF5002C2E5023AF8D20180D8D2F7
:1038EA000080D4D20480D0EF12384C5008123884A9
:1038FA00EF600E80A9EFC0E012385AD0E06F609EE8
:10390A00EF607412383080A712385AEF6069E523E5
:10391A0070070523800312385AEF601420040E1230
:10392A00380AE475F00112298DEF1226D4D523E660
:10393A002004040522052480BA123850EFC0E01290
:10394A00384CD0E05004123830E4FF20040E12380C
:10395A000AE475F00112298DEF1226D4EF70DA20ED
:10396A00040405220524808BE5236002052312380E
:10397A0084123850EF70C6300304E4123830E5245C
:10398A0060030238B97EFF7FFF2220041174FFFC16
:10399A00FDFEFF12380A12298412296A052202380A
:1039AA00A8D0E080D27900800A7910800679088050
:1039BA0002790AD205E52360020523E9C0E012383C
:1039CA0084EF60DD12385ABF2D04D2028003BF2B68
:1039DA0009123884EF60CA123850D0E0B40A028063
:1039EA0033B40802802EBF302770027408C205C0A3
:1039FA00E0123850D0E0BF78028003BF5816052382
:103A0A00D523028007D52304D205800B74108019B0
:103A1A007002740ABF000AEFF8E4FCFDFEFF023AE6
:103A2A00ABC0E0EF123830D0E0F9E4FCFDFEFFE96C
:103A3A00C0E0ECC0E0EDC0E0EEC0E0EFC0E012385C
:103A4A0050EFF8D0E0FFD0E0FED0E0FDD0E0FCD0AF
:103A5A00F0E8604DB461004007B47B005002C2E553
:103A6A0024D0503DFA24F6500724F95034240AFA97
:103A7A00EAB5F000502BCFA9F0A42FFF92D5E9C5E3
:103A8A00F0CEA4A2D53EFE92D5E9C5F0CDA4A2D52A
:103A9A003DFD92D5E9C5F0CCA4A2D53CFCC2058077
:063AAA008EE8C0E02004DC
:103AB0002A200508052430020312295C12380A1254
:103AC0002984052220000B20010DEE8FF01227899A
:103AD000800912296A8004EF1226D4D0E01238300F
:103AE0000238A820041012380A1229840522E5257C
:103AF0008526F012278980E812282139725339B3BC
:103B00005838E94C38E54238C14839B74F39BB44D9
:103B100039124339AF4939BB55399446399445393F
:0C3B2000944738ED2A3AE34E000038F1DB
:1056010090279EEBF0A3EAF0A3E9F09027A4EBF03A
:10561100A3EAF0A3E9F090279EE0FBA3E475F00173
:10562100122773A9F0FA12268E70EB90279F74FF50
:10563100F5F012275D9027A1E0FBA3E475F00112BC
:105641002773A9F0FA12268EFF90279EE0FBA3E4B0
:1056510075F001122773A9F0FAEF1226D470D690D3
:0B56610027A4E0FBA3E0FAA3E0F9227D
:10508D009027CCEBF0A3EAF0A3E9F09027CFE0FB5B
:10509D00A3E0FAA3E0F912268EFE9027CCE0FBA345
:1050AD00E0FAA3E0F912268EFF6E702AEF600E90E3
:1050BD0027D274FFF5F012275D45F070037F0022B3
:1050CD009027CDE475F00112275D9027D0E475F09F
:1050DD000112275D80B59027CCE0FBA3E0FAA3E099
:1050ED00F912268EFDD3EE6480F8ED6480984003AE
:1050FD007F01229027CFE0FBA3E0FAA3E0F912266F
:07510D008EFFC3ED9FFF229E
:10284700E709F60870FA8046E709F20870FA803E51
:1028570088828C83E709F0A370FA807EE309F60883
:1028670070FA8076E309F20870FA806E88828C83AA
:10287700E309F0A370FA806289828A83E0A3F608ED
:1028870070FA805689828A83E0A3F20870FA804A38
:1028970080D280FA80C680D4806580F28031801033
:1028A70080A680EA809A80A880DA80E280CA803198
:1028B70089828A83ECFAE493A3C8C582C8CCC5830E
:1028C700CCF0A3C8C582C8CCC583CC70E9800D897C
:1028D700828A83E493A3F60870F9ECFAA9F0EDFB7A
:1028E7002289828A83ECFAE0A3C8C582C8CCC58353
:1028F700CCF0A3C8C582C8CCC583CC70EA80DD897B
:10290700828A83E493A3F20870F980CE88F0ED24DD
:1029170002B4040050C4F582EB2402B4040050BA98
:09292700232345822390289773B5
:1060D600E4FFFE12268E600C0FEF70010E09E970C8
:0560E600F20A80EF2228
:10293000EF4E6012EF60010EEDBB010B89828A83BE
:10294000F0A3DFFCDEFA2289F05007F709DFFCA9CB
:0C295000F022BBFEFCF309DFFCA9F02222
:10500D00025877E493A3F8E493A34003F68001F2EA
:10501D0008DFF48029E493A3F85407240CC8C333A4
:10502D00C4540F4420C8834004F456800146F6DF73
:10503D00E4800B01020408102040809034B8E47E17
:10504D00019360BCA3FF543F30E509541FFEE49368
:10505D00A360010ECF54C025E060A840B8E493A32F
:10506D00FAE493A3F8E493A3C8C582C8CAC583CA5A
:10507D00F0A3C8C582C8CAC583CADFE9DEE780BE12
:0138090000BE
:0E295C00C3E49FFFE49EFEE49DFDE49CFC228C
:10296A00BB010789828A830227E45005E9F8022914
:0A297A00C4BBFE05E9F80229D022D3
:09298400E0FBA3E0FAA3E0F92254
:10298D00F8E0FBA3A3E0F925F0F0E58215827002D3
:07299D001583E0FA38F02277
:1029A400F8E0FBA3A3E025F0F9F0E58215827002BC
:0729B4001583E038FAF02260
:0929BB00EBF0A3EAF0A3E9F0221D
:105EC200EFB40A07740D125ECD740A309811A899C6
:105ED200B8130CC2983098FDA899C298B811F63040
:075EE20099FDC299F5992218
:1061130010090B12624EBF0D027F0A025EC2902865
:0461230087E0FF22F0
:08627100902887EFF0D209220A
:10612700EFC394094005EF940E4004EFB42003D366
:046137008001C322FE
:0C29C400ECF608EDF608EEF608EFF6223F
:0C29D000ECF208EDF208EEF208EFF22243
:0A624E003098FDAF99C2987E00223F
:00000001FF
