Component: ARM Compiler 5.05 update 1 (build 106) Tool: armlink [4d0efa]

==============================================================================

Section Cross References

    main.o(.text) refers to ch395spi.o(.text) for xWriteCH395Cmd
    main.o(.text) refers to system.o(.text) for NVIC_Configuration
    main.o(.text) refers to usart.o(.text) for uart_init
    main.o(.text) refers to gpio.o(.text) for GpioInit
    main.o(.text) refers to delay.o(.text) for DelayInit
    main.o(.text) refers to timer.o(.text) for Timer2_Config
    main.o(.text) refers to iwdg.o(.text) for IWDG_Init
    main.o(.text) refers to printf8.o(i.__0printf$8) for __2printf
    main.o(.text) refers to buffermanage.o(.text) for BufferManageRead
    main.o(.text) refers to timer.o(.data) for Timer2Cnt
    main.o(.text) refers to usart.o(.bss) for buff_manage_struct_usart1_recv
    main.o(.text) refers to usart.o(.data) for Usart3SendDataCnt
    system.o(.text) refers to misc.o(.text) for NVIC_PriorityGroupConfig
    system.o(.text) refers to printf8.o(i.__0printf$8) for __2printf
    system.o(.text) refers to system.o(.data) for idAddr
    delay.o(.text) refers to misc.o(.text) for SysTick_CLKSourceConfig
    delay.o(.text) refers to system_stm32f10x.o(.data) for SystemCoreClock
    delay.o(.text) refers to delay.o(.data) for fac_us
==============================================================================

Removing Unused input sections from the image.

    Removing main.o(.bss), (200 bytes).
    Removing main.o(.data), (8 bytes).
    Removing cstring.o(.text), (452 bytes).
    Removing cstring.o(.data), (9 bytes).
    Removing key.o(.text), (104 bytes).
    Removing key.o(.bss), (28 bytes).
    Removing core_cm3.o(.emb_text), (32 bytes).
    Removing stm32f10x_flash.o(.text), (1468 bytes).
    Removing startup_stm32f10x_hd.o(HEAP), (512 bytes).
    Removing dadd.o(.text), (334 bytes).
    Removing dmul.o(.text), (228 bytes).
    Removing ddiv.o(.text), (222 bytes).
    Removing dfixul.o(.text), (48 bytes).
    Removing cdrcmple.o(.text), (48 bytes).
    Removing depilogue.o(.text), (186 bytes).

15 unused section(s) (total 3879 bytes) removed from the image.

==============================================================================

Image Symbol Table

    Local Symbols

    Symbol Name                              Value     Ov Type        Size  Object(Section)

    ../clib/microlib/division.c              0x00000000   Number         0  uldiv.o ABSOLUTE
    ../clib/microlib/division.c              0x00000000   Number         0  uidiv.o ABSOLUTE
    ../clib/microlib/init/entry.s            0x00000000   Number         0  entry8b.o ABSOLUTE
    ../clib/microlib/init/entry.s            0x00000000   Number         0  entry10b.o ABSOLUTE
    ../clib/microlib/init/entry.s            0x00000000   Number         0  entry.o ABSOLUTE
    ../clib/microlib/init/entry.s            0x00000000   Number         0  entry5.o ABSOLUTE
    ../clib/microlib/init/entry.s            0x00000000   Number         0  entry10a.o ABSOLUTE
    ../clib/microlib/init/entry.s            0x00000000   Number         0  entry9b.o ABSOLUTE
    ../clib/microlib/init/entry.s            0x00000000   Number         0  entry9a.o ABSOLUTE
    ../clib/microlib/init/entry.s            0x00000000   Number         0  entry7a.o ABSOLUTE
    ../clib/microlib/init/entry.s            0x00000000   Number         0  entry2.o ABSOLUTE
    ../clib/microlib/init/entry.s            0x00000000   Number         0  entry8a.o ABSOLUTE
    ../clib/microlib/init/entry.s            0x00000000   Number         0  entry7b.o ABSOLUTE
    ../clib/microlib/init/entry.s            0x00000000   Number         0  entry11b.o ABSOLUTE
    ../clib/microlib/init/entry.s            0x00000000   Number         0  entry11a.o ABSOLUTE
    ../clib/microlib/longlong.c              0x00000000   Number         0  llsshr.o ABSOLUTE
    ../clib/microlib/longlong.c              0x00000000   Number         0  llushr.o ABSOLUTE
    ../clib/microlib/longlong.c              0x00000000   Number         0  llshl.o ABSOLUTE
    ../clib/microlib/malloc/malloc.c         0x00000000   Number         0  mallocra.o ABSOLUTE
    ../clib/microlib/malloc/malloc.c         0x00000000   Number         0  malloca.o ABSOLUTE
    ../clib/microlib/malloc/malloc.c         0x00000000   Number         0  mallocr.o ABSOLUTE
    ../clib/microlib/malloc/malloc.c         0x00000000   Number         0  malloc.o ABSOLUTE
    ../clib/microlib/malloc/mvars.c          0x00000000   Number         0  mvars.o ABSOLUTE
    ../clib/microlib/printf/printf.c         0x00000000   Number         0  printf8.o ABSOLUTE
    ../clib/microlib/printf/printf.c         0x00000000   Number         0  printf7.o ABSOLUTE
    ../clib/microlib/printf/printf.c         0x00000000   Number         0  printf6.o ABSOLUTE
    ../clib/microlib/printf/printf.c         0x00000000   Number         0  printf5.o ABSOLUTE
    ../clib/microlib/printf/printf.c         0x00000000   Number         0  printf4.o ABSOLUTE
    ../clib/microlib/printf/printf.c         0x00000000   Number         0  printf3.o ABSOLUTE
    ../clib/microlib/printf/printf.c         0x00000000   Number         0  printf2.o ABSOLUTE
    ../clib/microlib/printf/printf.c         0x00000000   Number         0  printf1.o ABSOLUTE
    ../clib/microlib/printf/printf.c         0x00000000   Number         0  printf0.o ABSOLUTE
    ../clib/microlib/printf/printf.c         0x00000000   Number         0  printfb.o ABSOLUTE
    ../clib/microlib/printf/printf.c         0x00000000   Number         0  printfa.o ABSOLUTE
    ../clib/microlib/printf/stubs.s          0x00000000   Number         0  stubs.o ABSOLUTE
    ../clib/microlib/stdio/streams.c         0x00000000   Number         0  stdout.o ABSOLUTE
    ../clib/microlib/string/memcpy.c         0x00000000   Number         0  memcpyb.o ABSOLUTE
    ../clib/microlib/string/memcpy.c         0x00000000   Number         0  memcpya.o ABSOLUTE
    ../clib/microlib/string/memset.c         0x00000000   Number         0  memseta.o ABSOLUTE
    ../clib/microlib/string/strlen.c         0x00000000   Number         0  strlen.o ABSOLUTE
    ../clib/microlib/string/strstr.c         0x00000000   Number         0  strstr.o ABSOLUTE
    ../clib/microlib/string/strtok.c         0x00000000   Number         0  strtok.o ABSOLUTE
    ../clib/microlib/string/strtok.c         0x00000000   Number         0  strtok_r.o ABSOLUTE
    ../clib/microlib/stubs.s                 0x00000000   Number         0  iusefp.o ABSOLUTE
    ../fplib/microlib/fpadd.c                0x00000000   Number         0  dadd.o ABSOLUTE
    ../fplib/microlib/fpdiv.c                0x00000000   Number         0  ddiv.o ABSOLUTE
    ../fplib/microlib/fpepilogue.c           0x00000000   Number         0  depilogue.o ABSOLUTE
    ../fplib/microlib/fpfix.c                0x00000000   Number         0  dfixul.o ABSOLUTE
    ../fplib/microlib/fpmul.c                0x00000000   Number         0  dmul.o ABSOLUTE
    ..\CH395\CH395SPI.C                      0x00000000   Number         0  ch395spi.o ABSOLUTE
    ..\CMSIS\core_cm3.c                      0x00000000   Number         0  core_cm3.o ABSOLUTE
    ..\CMSIS\system_stm32f10x.c              0x00000000   Number         0  system_stm32f10x.o ABSOLUTE
    ..\Libraries\src\misc.c                  0x00000000   Number         0  misc.o ABSOLUTE
    ..\Libraries\src\stm32f10x_flash.c       0x00000000   Number         0  stm32f10x_flash.o ABSOLUTE
    ..\Libraries\src\stm32f10x_gpio.c        0x00000000   Number         0  stm32f10x_gpio.o ABSOLUTE
    ..\Libraries\src\stm32f10x_iwdg.c        0x00000000   Number         0  stm32f10x_iwdg.o ABSOLUTE
    ..\Libraries\src\stm32f10x_rcc.c         0x00000000   Number         0  stm32f10x_rcc.o ABSOLUTE
    ..\Libraries\src\stm32f10x_spi.c         0x00000000   Number         0  stm32f10x_spi.o ABSOLUTE
    ..\Libraries\src\stm32f10x_tim.c         0x00000000   Number         0  stm32f10x_tim.o ABSOLUTE
    ..\Libraries\src\stm32f10x_usart.c       0x00000000   Number         0  stm32f10x_usart.o ABSOLUTE
    ..\Startup\startup_stm32f10x_hd.s        0x00000000   Number         0  startup_stm32f10x_hd.o ABSOLUTE
    ..\User\System.c                         0x00000000   Number         0  system.o ABSOLUTE
    ..\User\cString.c                        0x00000000   Number         0  cstring.o ABSOLUTE
    ..\User\delay.c                          0x00000000   Number         0  delay.o ABSOLUTE
    ..\User\gpio.c                           0x00000000   Number         0  gpio.o ABSOLUTE
    ..\User\iwdg.c                           0x00000000   Number         0  iwdg.o ABSOLUTE
    ..\User\key.c                            0x00000000   Number         0  key.o ABSOLUTE
    ..\User\main.c                           0x00000000   Number         0  main.o ABSOLUTE
    ..\User\stm32f10x_it.c                   0x00000000   Number         0  stm32f10x_it.o ABSOLUTE
    ..\User\timer.c                          0x00000000   Number         0  timer.o ABSOLUTE
    ..\User\usart.c                          0x00000000   Number         0  usart.o ABSOLUTE
    ..\\CMSIS\\core_cm3.c                    0x00000000   Number         0  core_cm3.o ABSOLUTE
    ..\mem\BufferManage.c                    0x00000000   Number         0  buffermanage.o ABSOLUTE
    ..\mem\LoopList.c                        0x00000000   Number         0  looplist.o ABSOLUTE
    cdrcmple.s                               0x00000000   Number         0  cdrcmple.o ABSOLUTE
    dc.s                                     0x00000000   Number         0  dc.o ABSOLUTE
    handlers.s                               0x00000000   Number         0  handlers.o ABSOLUTE
    init.s                                   0x00000000   Number         0  init.o ABSOLUTE
    RESET                                    0x08000000   Section      304  startup_stm32f10x_hd.o(RESET)
    .ARM.Collect$$$$00000000                 0x08000130   Section        0  entry.o(.ARM.Collect$$$$00000000)
    .ARM.Collect$$$$00000001                 0x08000130   Section        4  entry2.o(.ARM.Collect$$$$00000001)
    .ARM.Collect$$$$00000004                 0x08000134   Section        4  entry5.o(.ARM.Collect$$$$00000004)
    .ARM.Collect$$$$00000008                 0x08000138   Section        0  entry7b.o(.ARM.Collect$$$$00000008)
    .ARM.Collect$$$$0000000A                 0x08000138   Section        0  entry8b.o(.ARM.Collect$$$$0000000A)
    .ARM.Collect$$$$0000000B                 0x08000138   Section        8  entry9a.o(.ARM.Collect$$$$0000000B)
    .ARM.Collect$$$$0000000D                 0x08000140   Section        0  entry10a.o(.ARM.Collect$$$$0000000D)
    .ARM.Collect$$$$0000000F                 0x08000140   Section        0  entry11a.o(.ARM.Collect$$$$0000000F)
    .ARM.Collect$$$$00002712                 0x08000140   Section        4  entry2.o(.ARM.Collect$$$$00002712)
    __lit__00000000                          0x08000140   Data           4  entry2.o(.ARM.Collect$$$$00002712)
    .text                                    0x08000144   Section        0  stm32f10x_it.o(.text)
    .text                                    0x08000184   Section        0  main.o(.text)
    .text                                    0x08000a54   Section        0  system.o(.text)
    .text                                    0x08000b4c   Section        0  delay.o(.text)
    .text                                    0x08000c20   Section        0  usart.o(.text)
    .text                                    0x080011dc   Section        0  gpio.o(.text)
    .text                                    0x08001240   Section        0  iwdg.o(.text)
    .text                                    0x0800126c   Section        0  timer.o(.text)
    .text                                    0x080012e4   Section        0  system_stm32f10x.o(.text)
    SetSysClockTo72                          0x080012e5   Thumb Code   214  system_stm32f10x.o(.text)
    SetSysClock                              0x080013bb   Thumb Code     8  system_stm32f10x.o(.text)
    .text                                    0x080014c4   Section        0  misc.o(.text)
    .text                                    0x080015a0   Section        0  stm32f10x_rcc.o(.text)
    .text                                    0x08001944   Section        0  stm32f10x_usart.o(.text)
    .text                                    0x08001d4c   Section        0  stm32f10x_gpio.o(.text)
    .text                                    0x080020a8   Section        0  stm32f10x_tim.o(.text)
    TI4_Config                               0x0800254f   Thumb Code   130  stm32f10x_tim.o(.text)
    TI3_Config                               0x080025e3   Thumb Code   122  stm32f10x_tim.o(.text)
    TI2_Config                               0x08002677   Thumb Code   130  stm32f10x_tim.o(.text)
    TI1_Config                               0x0800270b   Thumb Code   108  stm32f10x_tim.o(.text)
    .text                                    0x08002ec4   Section        0  stm32f10x_iwdg.o(.text)
    .text                                    0x08002f04   Section        0  stm32f10x_spi.o(.text)
    .text                                    0x08003210   Section       36  startup_stm32f10x_hd.o(.text)
    .text                                    0x08003234   Section        0  buffermanage.o(.text)
    .text                                    0x08003308   Section        0  looplist.o(.text)
    .text                                    0x08003504   Section        0  ch395spi.o(.text)
    .text                                    0x0800363c   Section        0  memcpya.o(.text)
    .text                                    0x08003660   Section        0  uldiv.o(.text)
    .text                                    0x080036c4   Section       36  init.o(.text)
    .text                                    0x080036e8   Section        0  llshl.o(.text)
    .text                                    0x08003706   Section        0  llushr.o(.text)
    i.__0printf$8                            0x08003728   Section        0  printf8.o(i.__0printf$8)
    i.__scatterload_copy                     0x08003748   Section       14  handlers.o(i.__scatterload_copy)
    i.__scatterload_null                     0x08003756   Section        2  handlers.o(i.__scatterload_null)
    i.__scatterload_zeroinit                 0x08003758   Section       14  handlers.o(i.__scatterload_zeroinit)
    i._printf_core                           0x08003768   Section        0  printf8.o(i._printf_core)
    _printf_core                             0x08003769   Thumb Code   996  printf8.o(i._printf_core)
    i._printf_post_padding                   0x08003b78   Section        0  printf8.o(i._printf_post_padding)
    _printf_post_padding                     0x08003b79   Thumb Code    36  printf8.o(i._printf_post_padding)
    i._printf_pre_padding                    0x08003b9c   Section        0  printf8.o(i._printf_pre_padding)
    _printf_pre_padding                      0x08003b9d   Thumb Code    46  printf8.o(i._printf_pre_padding)
    .data                                    0x20000000   Section       40  system.o(.data)
    .data                                    0x20000028   Section        4  delay.o(.data)
    fac_us                                   0x20000028   Data           1  delay.o(.data)
    fac_ms                                   0x2000002a   Data           2  delay.o(.data)
    .data                                    0x2000002c   Section       41  usart.o(.data)
    flage                                    0x20000054   Data           1  usart.o(.data)
    .data                                    0x20000058   Section        4  timer.o(.data)
    .data                                    0x2000005c   Section       20  system_stm32f10x.o(.data)
    .data                                    0x20000070   Section       20  stm32f10x_rcc.o(.data)
    APBAHBPrescTable                         0x20000070   Data          16  stm32f10x_rcc.o(.data)
    ADCPrescTable                            0x20000080   Data           4  stm32f10x_rcc.o(.data)
    .data                                    0x20000084   Section        4  stdout.o(.data)
    .bss                                     0x20000088   Section    11248  usart.o(.bss)
    STACK                                    0x20002c78   Section     1024  startup_stm32f10x_hd.o(STACK)

    Global Symbols

    Symbol Name                              Value     Ov Type        Size  Object(Section)

    BuildAttributes$$THM_ISAv4$P$D$K$B$S$PE$A:L22UL41UL21$X:L11$S22US41US21$IEEE1$IW$USESV6$~STKCKD$USESV7$~SHL$OSPACE$ROPI$EBA8$MICROLIB$REQ8$PRES8$EABIv2 0x00000000   Number         0  anon$$obj.o ABSOLUTE
    __ARM_use_no_argv                        0x00000000   Number         0  main.o ABSOLUTE
    _printf_a                                0x00000000   Number         0  stubs.o ABSOLUTE
    _printf_c                                0x00000000   Number         0  stubs.o ABSOLUTE
    _printf_charcount                        0x00000000   Number         0  stubs.o ABSOLUTE
    _printf_d                                0x00000000   Number         0  stubs.o ABSOLUTE
    _printf_e                                0x00000000   Number         0  stubs.o ABSOLUTE
    _printf_f                                0x00000000   Number         0  stubs.o ABSOLUTE
    _printf_flags                            0x00000000   Number         0  stubs.o ABSOLUTE
    _printf_fp_dec                           0x00000000   Number         0  stubs.o ABSOLUTE
    _printf_fp_hex                           0x00000000   Number         0  stubs.o ABSOLUTE
    _printf_g                                0x00000000   Number         0  stubs.o ABSOLUTE
    _printf_i                                0x00000000   Number         0  stubs.o ABSOLUTE
    _printf_int_dec                          0x00000000   Number         0  stubs.o ABSOLUTE
    _printf_l                                0x00000000   Number         0  stubs.o ABSOLUTE
    _printf_lc                               0x00000000   Number         0  stubs.o ABSOLUTE
    _printf_ll                               0x00000000   Number         0  stubs.o ABSOLUTE
    _printf_lld                              0x00000000   Number         0  stubs.o ABSOLUTE
    _printf_lli                              0x00000000   Number         0  stubs.o ABSOLUTE
    _printf_llo                              0x00000000   Number         0  stubs.o ABSOLUTE
    _printf_llu                              0x00000000   Number         0  stubs.o ABSOLUTE
    _printf_llx                              0x00000000   Number         0  stubs.o ABSOLUTE
    _printf_longlong_dec                     0x00000000   Number         0  stubs.o ABSOLUTE
    _printf_longlong_hex                     0x00000000   Number         0  stubs.o ABSOLUTE
    _printf_longlong_oct                     0x00000000   Number         0  stubs.o ABSOLUTE
    _printf_ls                               0x00000000   Number         0  stubs.o ABSOLUTE
    _printf_mbtowc                           0x00000000   Number         0  stubs.o ABSOLUTE
    _printf_n                                0x00000000   Number         0  stubs.o ABSOLUTE
    _printf_o                                0x00000000   Number         0  stubs.o ABSOLUTE
    _printf_p                                0x00000000   Number         0  stubs.o ABSOLUTE
    _printf_percent                          0x00000000   Number         0  stubs.o ABSOLUTE
    _printf_pre_padding                      0x00000000   Number         0  stubs.o ABSOLUTE
    _printf_return_value                     0x00000000   Number         0  stubs.o ABSOLUTE
    _printf_s                                0x00000000   Number         0  stubs.o ABSOLUTE
    _printf_sizespec                         0x00000000   Number         0  stubs.o ABSOLUTE
    _printf_str                              0x00000000   Number         0  stubs.o ABSOLUTE
    _printf_truncate_signed                  0x00000000   Number         0  stubs.o ABSOLUTE
    _printf_truncate_unsigned                0x00000000   Number         0  stubs.o ABSOLUTE
    _printf_u                                0x00000000   Number         0  stubs.o ABSOLUTE
    _printf_wc                               0x00000000   Number         0  stubs.o ABSOLUTE
    _printf_wctomb                           0x00000000   Number         0  stubs.o ABSOLUTE
    _printf_widthprec                        0x00000000   Number         0  stubs.o ABSOLUTE
    _printf_x                                0x00000000   Number         0  stubs.o ABSOLUTE
    __cpp_initialize__aeabi_                  - Undefined Weak Reference
    __cxa_finalize                            - Undefined Weak Reference
    __decompress                              - Undefined Weak Reference
    _clock_init                               - Undefined Weak Reference
    _microlib_exit                            - Undefined Weak Reference
    __Vectors_Size                           0x00000130   Number         0  startup_stm32f10x_hd.o ABSOLUTE
    __Vectors                                0x08000000   Data           4  startup_stm32f10x_hd.o(RESET)
    __Vectors_End                            0x08000130   Data           0  startup_stm32f10x_hd.o(RESET)
    __main                                   0x08000131   Thumb Code     0  entry.o(.ARM.Collect$$$$00000000)
    _main_stk                                0x08000131   Thumb Code     0  entry2.o(.ARM.Collect$$$$00000001)
    _main_scatterload                        0x08000135   Thumb Code     0  entry5.o(.ARM.Collect$$$$00000004)
    __main_after_scatterload                 0x08000139   Thumb Code     0  entry5.o(.ARM.Collect$$$$00000004)
    _main_clock                              0x08000139   Thumb Code     0  entry7b.o(.ARM.Collect$$$$00000008)
    _main_cpp_init                           0x08000139   Thumb Code     0  entry8b.o(.ARM.Collect$$$$0000000A)
    _main_init                               0x08000139   Thumb Code     0  entry9a.o(.ARM.Collect$$$$0000000B)
    __rt_final_cpp                           0x08000141   Thumb Code     0  entry10a.o(.ARM.Collect$$$$0000000D)
    __rt_final_exit                          0x08000141   Thumb Code     0  entry11a.o(.ARM.Collect$$$$0000000F)
    NMI_Handler                              0x08000145   Thumb Code     2  stm32f10x_it.o(.text)
    HardFault_Handler                        0x08000147   Thumb Code    36  stm32f10x_it.o(.text)
    MemManage_Handler                        0x0800016b   Thumb Code     4  stm32f10x_it.o(.text)
    BusFault_Handler                         0x0800016f   Thumb Code     4  stm32f10x_it.o(.text)
    UsageFault_Handler                       0x08000173   Thumb Code     4  stm32f10x_it.o(.text)
    SVC_Handler                              0x08000177   Thumb Code     2  stm32f10x_it.o(.text)
    DebugMon_Handler                         0x08000179   Thumb Code     2  stm32f10x_it.o(.text)
    PendSV_Handler                           0x0800017b   Thumb Code     2  stm32f10x_it.o(.text)
    CH395CMDReset                            0x08000185   Thumb Code    10  main.o(.text)
    CH395CMDSleep                            0x0800018f   Thumb Code    10  main.o(.text)
    CH395CMDGetVer                           0x08000199   Thumb Code    18  main.o(.text)
    CH395CMDCheckExist                       0x080001ab   Thumb Code    26  main.o(.text)
    CH395CMDSetPHY                           0x080001c5   Thumb Code    18  main.o(.text)
    CH395CMDGetPHYStatus                     0x080001d7   Thumb Code    18  main.o(.text)
    CH395CMDGetGlobIntStatus                 0x080001e9   Thumb Code    18  main.o(.text)
    CH395GetCmdStatus                        0x080001fb   Thumb Code    18  main.o(.text)
    CH395CMDInitCH395                        0x0800020d   Thumb Code    54  main.o(.text)
    CH395CMDSetUartBaudRate                  0x08000243   Thumb Code    34  main.o(.text)
    CH395CMDSetIPAddr                        0x08000265   Thumb Code    32  main.o(.text)
    CH395CMDSetGWIPAddr                      0x08000285   Thumb Code    32  main.o(.text)
    CH395CMDSetMASKAddr                      0x080002a5   Thumb Code    32  main.o(.text)
    CH395CMDSetMACAddr                       0x080002c5   Thumb Code    38  main.o(.text)
    CH395CMDGetMACAddr                       0x080002eb   Thumb Code    32  main.o(.text)
    CH395CMDSetMACFilt                       0x0800030b   Thumb Code    78  main.o(.text)
    CH395CMDGetUnreachIPPT                   0x08000359   Thumb Code    32  main.o(.text)
    CH395CMDGetRemoteIPP                     0x08000379   Thumb Code    40  main.o(.text)
    CH395SetSocketDesIP                      0x080003a1   Thumb Code    52  main.o(.text)
    CH395SetSocketProtType                   0x080003d5   Thumb Code    26  main.o(.text)
    CH395SetSocketDesPort                    0x080003ef   Thumb Code    32  main.o(.text)
    CH395SetSocketSourPort                   0x0800040f   Thumb Code    32  main.o(.text)
    CH395SetSocketIPRAWProto                 0x0800042f   Thumb Code    26  main.o(.text)
    CH395EnablePing                          0x08000449   Thumb Code    18  main.o(.text)
    CH395SendData                            0x0800045b   Thumb Code    58  main.o(.text)
    CH395GetRecvLength                       0x08000495   Thumb Code    36  main.o(.text)
    CH395ClearRecvBuf                        0x080004b9   Thumb Code    18  main.o(.text)
    CH395GetRecvData                         0x080004cb   Thumb Code    70  main.o(.text)
    CH395CMDSetRetryCount                    0x08000511   Thumb Code    18  main.o(.text)
    CH395CMDSetRetryPeriod                   0x08000523   Thumb Code    24  main.o(.text)
    CH395CMDGetSocketStatus                  0x0800053b   Thumb Code    36  main.o(.text)
    CH395OpenSocket                          0x0800055f   Thumb Code    62  main.o(.text)
    CH395CloseSocket                         0x0800059d   Thumb Code    62  main.o(.text)
    CH395TCPConnect                          0x080005db   Thumb Code    62  main.o(.text)
    CH395TCPListen                           0x08000619   Thumb Code    62  main.o(.text)
    CH395TCPDisconnect                       0x08000657   Thumb Code    62  main.o(.text)
    CH395GetSocketInt                        0x08000695   Thumb Code    32  main.o(.text)
    CH395CRCRet6Bit                          0x080006b5   Thumb Code    62  main.o(.text)
    CH395DHCPEnable                          0x080006f3   Thumb Code    60  main.o(.text)
    CH395GetDHCPStatus                       0x0800072f   Thumb Code    18  main.o(.text)
    CH395GetIPInf                            0x08000741   Thumb Code    32  main.o(.text)
    CH395WriteGPIOAddr                       0x08000761   Thumb Code    26  main.o(.text)
    CH395ReadGPIOAddr                        0x0800077b   Thumb Code    32  main.o(.text)
    CH395EEPROMErase                         0x0800079b   Thumb Code    38  main.o(.text)
    CH395EEPROMWrite                         0x080007c1   Thumb Code    86  main.o(.text)
    CH395EEPROMRead                          0x08000817   Thumb Code    60  main.o(.text)
    CH395SetTCPMss                           0x08000853   Thumb Code    24  main.o(.text)
    CH395SetSocketRecvBuf                    0x0800086b   Thumb Code    34  main.o(.text)
    CH395SetSocketSendBuf                    0x0800088d   Thumb Code    34  main.o(.text)
    CH395UDPSendTo                           0x080008af   Thumb Code    46  main.o(.text)
    CH395SetStartPara                        0x080008dd   Thumb Code    40  main.o(.text)
    CH395CMDGetGlobIntStatus_ALL             0x08000905   Thumb Code    34  main.o(.text)
    main                                     0x08000927   Thumb Code   208  main.o(.text)
    NVIC_Configuration                       0x08000a55   Thumb Code   126  system.o(.text)
    Reset_MCU                                0x08000ad3   Thumb Code    32  system.o(.text)
    GetSTM32MCUID                            0x08000af3   Thumb Code    50  system.o(.text)
    DelayInit                                0x08000b4d   Thumb Code    50  delay.o(.text)
    delay_us                                 0x08000b7f   Thumb Code    72  delay.o(.text)
    delay_ms                                 0x08000bc7   Thumb Code    72  delay.o(.text)
    uart_init                                0x08000c21   Thumb Code   414  usart.o(.text)
    UsartOutStrIT                            0x08000dbf   Thumb Code    94  usart.o(.text)
    UsartOutStr                              0x08000e1d   Thumb Code    44  usart.o(.text)
    UsartOutChar                             0x08000e49   Thumb Code    30  usart.o(.text)
    USART1_IRQHandler                        0x08000e67   Thumb Code   214  usart.o(.text)
    USART2_IRQHandler                        0x08000f3d   Thumb Code   344  usart.o(.text)
    USART3_IRQHandler                        0x08001095   Thumb Code   232  usart.o(.text)
    fputc                                    0x0800117d   Thumb Code    58  usart.o(.text)
    GpioInit                                 0x080011dd   Thumb Code    92  gpio.o(.text)
    IWDG_Init                                0x08001241   Thumb Code    36  iwdg.o(.text)
    IWDG_Feed                                0x08001265   Thumb Code     8  iwdg.o(.text)
    Timer2_Config                            0x0800126d   Thumb Code    80  timer.o(.text)
    TIM2_IRQHandler                          0x080012bd   Thumb Code    34  timer.o(.text)
    SystemInit                               0x080013c3   Thumb Code    78  system_stm32f10x.o(.text)
    SystemCoreClockUpdate                    0x08001411   Thumb Code   142  system_stm32f10x.o(.text)
    NVIC_PriorityGroupConfig                 0x080014c5   Thumb Code    10  misc.o(.text)
    NVIC_Init                                0x080014cf   Thumb Code   100  misc.o(.text)
    NVIC_SetVectorTable                      0x08001533   Thumb Code    14  misc.o(.text)
    NVIC_SystemLPConfig                      0x08001541   Thumb Code    34  misc.o(.text)
    SysTick_CLKSourceConfig                  0x08001563   Thumb Code    40  misc.o(.text)
    RCC_DeInit                               0x080015a1   Thumb Code    64  stm32f10x_rcc.o(.text)
    RCC_HSEConfig                            0x080015e1   Thumb Code    70  stm32f10x_rcc.o(.text)
    RCC_GetFlagStatus                        0x08001627   Thumb Code    56  stm32f10x_rcc.o(.text)
    RCC_WaitForHSEStartUp                    0x0800165f   Thumb Code    56  stm32f10x_rcc.o(.text)
    RCC_AdjustHSICalibrationValue            0x08001697   Thumb Code    20  stm32f10x_rcc.o(.text)
    RCC_HSICmd                               0x080016ab   Thumb Code     6  stm32f10x_rcc.o(.text)
    RCC_PLLConfig                            0x080016b1   Thumb Code    24  stm32f10x_rcc.o(.text)
    RCC_PLLCmd                               0x080016c9   Thumb Code     6  stm32f10x_rcc.o(.text)
    RCC_SYSCLKConfig                         0x080016cf   Thumb Code    18  stm32f10x_rcc.o(.text)
    RCC_GetSYSCLKSource                      0x080016e1   Thumb Code    10  stm32f10x_rcc.o(.text)
    RCC_HCLKConfig                           0x080016eb   Thumb Code    18  stm32f10x_rcc.o(.text)
    RCC_PCLK1Config                          0x080016fd   Thumb Code    18  stm32f10x_rcc.o(.text)
    RCC_PCLK2Config                          0x0800170f   Thumb Code    20  stm32f10x_rcc.o(.text)
    RCC_ITConfig                             0x08001723   Thumb Code    26  stm32f10x_rcc.o(.text)
    RCC_USBCLKConfig                         0x0800173d   Thumb Code     8  stm32f10x_rcc.o(.text)
    RCC_ADCCLKConfig                         0x08001745   Thumb Code    18  stm32f10x_rcc.o(.text)
    RCC_LSEConfig                            0x08001757   Thumb Code    50  stm32f10x_rcc.o(.text)
    RCC_LSICmd                               0x08001789   Thumb Code     6  stm32f10x_rcc.o(.text)
    RCC_RTCCLKConfig                         0x0800178f   Thumb Code    12  stm32f10x_rcc.o(.text)
    RCC_RTCCLKCmd                            0x0800179b   Thumb Code     8  stm32f10x_rcc.o(.text)
    RCC_GetClocksFreq                        0x080017a3   Thumb Code   192  stm32f10x_rcc.o(.text)
    RCC_AHBPeriphClockCmd                    0x08001863   Thumb Code    26  stm32f10x_rcc.o(.text)
    RCC_APB2PeriphClockCmd                   0x0800187d   Thumb Code    26  stm32f10x_rcc.o(.text)
    RCC_APB1PeriphClockCmd                   0x08001897   Thumb Code    26  stm32f10x_rcc.o(.text)
    RCC_APB2PeriphResetCmd                   0x080018b1   Thumb Code    26  stm32f10x_rcc.o(.text)
    RCC_APB1PeriphResetCmd                   0x080018cb   Thumb Code    26  stm32f10x_rcc.o(.text)
    RCC_BackupResetCmd                       0x080018e5   Thumb Code     8  stm32f10x_rcc.o(.text)
    RCC_ClockSecuritySystemCmd               0x080018ed   Thumb Code     6  stm32f10x_rcc.o(.text)
    RCC_MCOConfig                            0x080018f3   Thumb Code     6  stm32f10x_rcc.o(.text)
    RCC_ClearFlag                            0x080018f9   Thumb Code    14  stm32f10x_rcc.o(.text)
    RCC_GetITStatus                          0x08001907   Thumb Code    20  stm32f10x_rcc.o(.text)
    RCC_ClearITPendingBit                    0x0800191b   Thumb Code     6  stm32f10x_rcc.o(.text)
    USART_DeInit                             0x08001945   Thumb Code   134  stm32f10x_usart.o(.text)
    USART_Init                               0x080019cb   Thumb Code   210  stm32f10x_usart.o(.text)
    USART_StructInit                         0x08001a9d   Thumb Code    24  stm32f10x_usart.o(.text)
    USART_ClockInit                          0x08001ab5   Thumb Code    34  stm32f10x_usart.o(.text)
    USART_ClockStructInit                    0x08001ad7   Thumb Code    12  stm32f10x_usart.o(.text)
    USART_Cmd                                0x08001ae3   Thumb Code    24  stm32f10x_usart.o(.text)
    USART_ITConfig                           0x08001afb   Thumb Code    74  stm32f10x_usart.o(.text)
    USART_DMACmd                             0x08001b45   Thumb Code    18  stm32f10x_usart.o(.text)
    USART_SetAddress                         0x08001b57   Thumb Code    18  stm32f10x_usart.o(.text)
    USART_WakeUpConfig                       0x08001b69   Thumb Code    18  stm32f10x_usart.o(.text)
    USART_ReceiverWakeUpCmd                  0x08001b7b   Thumb Code    24  stm32f10x_usart.o(.text)
    USART_LINBreakDetectLengthConfig         0x08001b93   Thumb Code    18  stm32f10x_usart.o(.text)
    USART_LINCmd                             0x08001ba5   Thumb Code    24  stm32f10x_usart.o(.text)
    USART_SendData                           0x08001bbd   Thumb Code     8  stm32f10x_usart.o(.text)
    USART_ReceiveData                        0x08001bc5   Thumb Code    10  stm32f10x_usart.o(.text)
    USART_SendBreak                          0x08001bcf   Thumb Code    10  stm32f10x_usart.o(.text)
    USART_SetGuardTime                       0x08001bd9   Thumb Code    16  stm32f10x_usart.o(.text)
    USART_SetPrescaler                       0x08001be9   Thumb Code    16  stm32f10x_usart.o(.text)
    USART_SmartCardCmd                       0x08001bf9   Thumb Code    24  stm32f10x_usart.o(.text)
    USART_SmartCardNACKCmd                   0x08001c11   Thumb Code    24  stm32f10x_usart.o(.text)
    USART_HalfDuplexCmd                      0x08001c29   Thumb Code    24  stm32f10x_usart.o(.text)
    USART_OverSampling8Cmd                   0x08001c41   Thumb Code    22  stm32f10x_usart.o(.text)
    USART_OneBitMethodCmd                    0x08001c57   Thumb Code    24  stm32f10x_usart.o(.text)
    USART_IrDAConfig                         0x08001c6f   Thumb Code    18  stm32f10x_usart.o(.text)
    USART_IrDACmd                            0x08001c81   Thumb Code    24  stm32f10x_usart.o(.text)
    USART_GetFlagStatus                      0x08001c99   Thumb Code    26  stm32f10x_usart.o(.text)
    USART_ClearFlag                          0x08001cb3   Thumb Code    18  stm32f10x_usart.o(.text)
    USART_GetITStatus                        0x08001cc5   Thumb Code    84  stm32f10x_usart.o(.text)
    USART_ClearITPendingBit                  0x08001d19   Thumb Code    52  stm32f10x_usart.o(.text)
    GPIO_DeInit                              0x08001d4d   Thumb Code   172  stm32f10x_gpio.o(.text)
    GPIO_AFIODeInit                          0x08001df9   Thumb Code    20  stm32f10x_gpio.o(.text)
    GPIO_Init                                0x08001e0d   Thumb Code   278  stm32f10x_gpio.o(.text)
    GPIO_StructInit                          0x08001f23   Thumb Code    16  stm32f10x_gpio.o(.text)
    GPIO_ReadInputDataBit                    0x08001f33   Thumb Code    18  stm32f10x_gpio.o(.text)
    GPIO_ReadInputData                       0x08001f45   Thumb Code     8  stm32f10x_gpio.o(.text)
    GPIO_ReadOutputDataBit                   0x08001f4d   Thumb Code    18  stm32f10x_gpio.o(.text)
    GPIO_ReadOutputData                      0x08001f5f   Thumb Code     8  stm32f10x_gpio.o(.text)
    GPIO_SetBits                             0x08001f67   Thumb Code     4  stm32f10x_gpio.o(.text)
    GPIO_ResetBits                           0x08001f6b   Thumb Code     4  stm32f10x_gpio.o(.text)
    GPIO_WriteBit                            0x08001f6f   Thumb Code    10  stm32f10x_gpio.o(.text)
    GPIO_Write                               0x08001f79   Thumb Code     4  stm32f10x_gpio.o(.text)
    GPIO_PinLockConfig                       0x08001f7d   Thumb Code    18  stm32f10x_gpio.o(.text)
    GPIO_EventOutputConfig                   0x08001f8f   Thumb Code    26  stm32f10x_gpio.o(.text)
    GPIO_EventOutputCmd                      0x08001fa9   Thumb Code     6  stm32f10x_gpio.o(.text)
    GPIO_PinRemapConfig                      0x08001faf   Thumb Code   138  stm32f10x_gpio.o(.text)
    GPIO_EXTILineConfig                      0x08002039   Thumb Code    66  stm32f10x_gpio.o(.text)
    GPIO_ETH_MediaInterfaceConfig            0x0800207b   Thumb Code     8  stm32f10x_gpio.o(.text)
    TIM_DeInit                               0x080020a9   Thumb Code   424  stm32f10x_tim.o(.text)
    TIM_TimeBaseInit                         0x08002251   Thumb Code   122  stm32f10x_tim.o(.text)
    TIM_OC1Init                              0x080022cb   Thumb Code   132  stm32f10x_tim.o(.text)
    TIM_OC2Init                              0x0800234f   Thumb Code   154  stm32f10x_tim.o(.text)
    TIM_OC3Init                              0x080023e9   Thumb Code   150  stm32f10x_tim.o(.text)
    TIM_OC4Init                              0x0800247f   Thumb Code   182  stm32f10x_tim.o(.text)
    TIM_SetIC4Prescaler                      0x08002535   Thumb Code    26  stm32f10x_tim.o(.text)
    TIM_SetIC3Prescaler                      0x080025d1   Thumb Code    18  stm32f10x_tim.o(.text)
    TIM_SetIC2Prescaler                      0x0800265d   Thumb Code    26  stm32f10x_tim.o(.text)
    TIM_SetIC1Prescaler                      0x080026f9   Thumb Code    18  stm32f10x_tim.o(.text)
    TIM_ICInit                               0x08002777   Thumb Code   150  stm32f10x_tim.o(.text)
    TIM_PWMIConfig                           0x0800280d   Thumb Code   124  stm32f10x_tim.o(.text)
    TIM_BDTRConfig                           0x08002889   Thumb Code    32  stm32f10x_tim.o(.text)
    TIM_TimeBaseStructInit                   0x080028a9   Thumb Code    18  stm32f10x_tim.o(.text)
    TIM_OCStructInit                         0x080028bb   Thumb Code    20  stm32f10x_tim.o(.text)
    TIM_ICStructInit                         0x080028cf   Thumb Code    18  stm32f10x_tim.o(.text)
    TIM_BDTRStructInit                       0x080028e1   Thumb Code    40  stm32f10x_tim.o(.text)
    TIM_Cmd                                  0x08002909   Thumb Code    24  stm32f10x_tim.o(.text)
    TIM_CtrlPWMOutputs                       0x08002921   Thumb Code    30  stm32f10x_tim.o(.text)
    TIM_ITConfig                             0x0800293f   Thumb Code    18  stm32f10x_tim.o(.text)
    TIM_GenerateEvent                        0x08002951   Thumb Code     4  stm32f10x_tim.o(.text)
    TIM_DMAConfig                            0x08002955   Thumb Code    10  stm32f10x_tim.o(.text)
    TIM_DMACmd                               0x0800295f   Thumb Code    18  stm32f10x_tim.o(.text)
    TIM_InternalClockConfig                  0x08002971   Thumb Code    12  stm32f10x_tim.o(.text)
    TIM_SelectInputTrigger                   0x0800297d   Thumb Code    18  stm32f10x_tim.o(.text)
    TIM_ITRxExternalClockConfig              0x0800298f   Thumb Code    24  stm32f10x_tim.o(.text)
    TIM_TIxExternalClockConfig               0x080029a7   Thumb Code    62  stm32f10x_tim.o(.text)
    TIM_ETRConfig                            0x080029e5   Thumb Code    28  stm32f10x_tim.o(.text)
    TIM_ETRClockMode1Config                  0x08002a01   Thumb Code    54  stm32f10x_tim.o(.text)
    TIM_ETRClockMode2Config                  0x08002a37   Thumb Code    32  stm32f10x_tim.o(.text)
    TIM_PrescalerConfig                      0x08002a57   Thumb Code     6  stm32f10x_tim.o(.text)
    TIM_CounterModeConfig                    0x08002a5d   Thumb Code    18  stm32f10x_tim.o(.text)
    TIM_EncoderInterfaceConfig               0x08002a6f   Thumb Code    66  stm32f10x_tim.o(.text)
    TIM_ForcedOC1Config                      0x08002ab1   Thumb Code    18  stm32f10x_tim.o(.text)
    TIM_ForcedOC2Config                      0x08002ac3   Thumb Code    26  stm32f10x_tim.o(.text)
    TIM_ForcedOC3Config                      0x08002add   Thumb Code    18  stm32f10x_tim.o(.text)
    TIM_ForcedOC4Config                      0x08002aef   Thumb Code    26  stm32f10x_tim.o(.text)
    TIM_ARRPreloadConfig                     0x08002b09   Thumb Code    24  stm32f10x_tim.o(.text)
    TIM_SelectCOM                            0x08002b21   Thumb Code    24  stm32f10x_tim.o(.text)
    TIM_SelectCCDMA                          0x08002b39   Thumb Code    24  stm32f10x_tim.o(.text)
    TIM_CCPreloadControl                     0x08002b51   Thumb Code    24  stm32f10x_tim.o(.text)
    TIM_OC1PreloadConfig                     0x08002b69   Thumb Code    18  stm32f10x_tim.o(.text)
    TIM_OC2PreloadConfig                     0x08002b7b   Thumb Code    26  stm32f10x_tim.o(.text)
    TIM_OC3PreloadConfig                     0x08002b95   Thumb Code    18  stm32f10x_tim.o(.text)
    TIM_OC4PreloadConfig                     0x08002ba7   Thumb Code    26  stm32f10x_tim.o(.text)
    TIM_OC1FastConfig                        0x08002bc1   Thumb Code    18  stm32f10x_tim.o(.text)
    TIM_OC2FastConfig                        0x08002bd3   Thumb Code    26  stm32f10x_tim.o(.text)
    TIM_OC3FastConfig                        0x08002bed   Thumb Code    18  stm32f10x_tim.o(.text)
    TIM_OC4FastConfig                        0x08002bff   Thumb Code    26  stm32f10x_tim.o(.text)
    TIM_ClearOC1Ref                          0x08002c19   Thumb Code    18  stm32f10x_tim.o(.text)
    TIM_ClearOC2Ref                          0x08002c2b   Thumb Code    24  stm32f10x_tim.o(.text)
    TIM_ClearOC3Ref                          0x08002c43   Thumb Code    18  stm32f10x_tim.o(.text)
    TIM_ClearOC4Ref                          0x08002c55   Thumb Code    24  stm32f10x_tim.o(.text)
    TIM_OC1PolarityConfig                    0x08002c6d   Thumb Code    18  stm32f10x_tim.o(.text)
    TIM_OC1NPolarityConfig                   0x08002c7f   Thumb Code    18  stm32f10x_tim.o(.text)
    TIM_OC2PolarityConfig                    0x08002c91   Thumb Code    26  stm32f10x_tim.o(.text)
    TIM_OC2NPolarityConfig                   0x08002cab   Thumb Code    26  stm32f10x_tim.o(.text)
    TIM_OC3PolarityConfig                    0x08002cc5   Thumb Code    26  stm32f10x_tim.o(.text)
    TIM_OC3NPolarityConfig                   0x08002cdf   Thumb Code    26  stm32f10x_tim.o(.text)
    TIM_OC4PolarityConfig                    0x08002cf9   Thumb Code    26  stm32f10x_tim.o(.text)
    TIM_CCxCmd                               0x08002d13   Thumb Code    30  stm32f10x_tim.o(.text)
    TIM_CCxNCmd                              0x08002d31   Thumb Code    30  stm32f10x_tim.o(.text)
    TIM_SelectOCxM                           0x08002d4f   Thumb Code    82  stm32f10x_tim.o(.text)
    TIM_UpdateDisableConfig                  0x08002da1   Thumb Code    24  stm32f10x_tim.o(.text)
    TIM_UpdateRequestConfig                  0x08002db9   Thumb Code    24  stm32f10x_tim.o(.text)
    TIM_SelectHallSensor                     0x08002dd1   Thumb Code    24  stm32f10x_tim.o(.text)
    TIM_SelectOnePulseMode                   0x08002de9   Thumb Code    18  stm32f10x_tim.o(.text)
    TIM_SelectOutputTrigger                  0x08002dfb   Thumb Code    18  stm32f10x_tim.o(.text)
    TIM_SelectSlaveMode                      0x08002e0d   Thumb Code    18  stm32f10x_tim.o(.text)
    TIM_SelectMasterSlaveMode                0x08002e1f   Thumb Code    18  stm32f10x_tim.o(.text)
    TIM_SetCounter                           0x08002e31   Thumb Code     4  stm32f10x_tim.o(.text)
    TIM_SetAutoreload                        0x08002e35   Thumb Code     4  stm32f10x_tim.o(.text)
    TIM_SetCompare1                          0x08002e39   Thumb Code     4  stm32f10x_tim.o(.text)
    TIM_SetCompare2                          0x08002e3d   Thumb Code     4  stm32f10x_tim.o(.text)
    TIM_SetCompare3                          0x08002e41   Thumb Code     4  stm32f10x_tim.o(.text)
    TIM_SetCompare4                          0x08002e45   Thumb Code     6  stm32f10x_tim.o(.text)
    TIM_SetClockDivision                     0x08002e4b   Thumb Code    18  stm32f10x_tim.o(.text)
    TIM_GetCapture1                          0x08002e5d   Thumb Code     6  stm32f10x_tim.o(.text)
    TIM_GetCapture2                          0x08002e63   Thumb Code     6  stm32f10x_tim.o(.text)
    TIM_GetCapture3                          0x08002e69   Thumb Code     6  stm32f10x_tim.o(.text)
    TIM_GetCapture4                          0x08002e6f   Thumb Code     8  stm32f10x_tim.o(.text)
    TIM_GetCounter                           0x08002e77   Thumb Code     6  stm32f10x_tim.o(.text)
    TIM_GetPrescaler                         0x08002e7d   Thumb Code     6  stm32f10x_tim.o(.text)
    TIM_GetFlagStatus                        0x08002e83   Thumb Code    18  stm32f10x_tim.o(.text)
    TIM_ClearFlag                            0x08002e95   Thumb Code     6  stm32f10x_tim.o(.text)
    TIM_GetITStatus                          0x08002e9b   Thumb Code    34  stm32f10x_tim.o(.text)
    TIM_ClearITPendingBit                    0x08002ebd   Thumb Code     6  stm32f10x_tim.o(.text)
    IWDG_WriteAccessCmd                      0x08002ec5   Thumb Code     6  stm32f10x_iwdg.o(.text)
    IWDG_SetPrescaler                        0x08002ecb   Thumb Code     6  stm32f10x_iwdg.o(.text)
    IWDG_SetReload                           0x08002ed1   Thumb Code     6  stm32f10x_iwdg.o(.text)
    IWDG_ReloadCounter                       0x08002ed7   Thumb Code    10  stm32f10x_iwdg.o(.text)
    IWDG_Enable                              0x08002ee1   Thumb Code    10  stm32f10x_iwdg.o(.text)
    IWDG_GetFlagStatus                       0x08002eeb   Thumb Code    20  stm32f10x_iwdg.o(.text)
    SPI_I2S_DeInit                           0x08002f05   Thumb Code    76  stm32f10x_spi.o(.text)
    SPI_Init                                 0x08002f51   Thumb Code    60  stm32f10x_spi.o(.text)
    I2S_Init                                 0x08002f8d   Thumb Code   226  stm32f10x_spi.o(.text)
    SPI_StructInit                           0x0800306f   Thumb Code    24  stm32f10x_spi.o(.text)
    I2S_StructInit                           0x08003087   Thumb Code    20  stm32f10x_spi.o(.text)
    SPI_Cmd                                  0x0800309b   Thumb Code    24  stm32f10x_spi.o(.text)
    I2S_Cmd                                  0x080030b3   Thumb Code    24  stm32f10x_spi.o(.text)
    SPI_I2S_ITConfig                         0x080030cb   Thumb Code    32  stm32f10x_spi.o(.text)
    SPI_I2S_DMACmd                           0x080030eb   Thumb Code    18  stm32f10x_spi.o(.text)
    SPI_I2S_SendData                         0x080030fd   Thumb Code     4  stm32f10x_spi.o(.text)
    SPI_I2S_ReceiveData                      0x08003101   Thumb Code     6  stm32f10x_spi.o(.text)
    SPI_NSSInternalSoftwareConfig            0x08003107   Thumb Code    30  stm32f10x_spi.o(.text)
    SPI_SSOutputCmd                          0x08003125   Thumb Code    24  stm32f10x_spi.o(.text)
    SPI_DataSizeConfig                       0x0800313d   Thumb Code    18  stm32f10x_spi.o(.text)
    SPI_TransmitCRC                          0x0800314f   Thumb Code    10  stm32f10x_spi.o(.text)
    SPI_CalculateCRC                         0x08003159   Thumb Code    24  stm32f10x_spi.o(.text)
    SPI_GetCRC                               0x08003171   Thumb Code    16  stm32f10x_spi.o(.text)
    SPI_GetCRCPolynomial                     0x08003181   Thumb Code     6  stm32f10x_spi.o(.text)
    SPI_BiDirectionalLineConfig              0x08003187   Thumb Code    28  stm32f10x_spi.o(.text)
    SPI_I2S_GetFlagStatus                    0x080031a3   Thumb Code    18  stm32f10x_spi.o(.text)
    SPI_I2S_ClearFlag                        0x080031b5   Thumb Code     6  stm32f10x_spi.o(.text)
    SPI_I2S_GetITStatus                      0x080031bb   Thumb Code    52  stm32f10x_spi.o(.text)
    SPI_I2S_ClearITPendingBit                0x080031ef   Thumb Code    20  stm32f10x_spi.o(.text)
    Reset_Handler                            0x08003211   Thumb Code     8  startup_stm32f10x_hd.o(.text)
    SysTick_Handler                          0x08003229   Thumb Code     2  startup_stm32f10x_hd.o(.text)
    ADC1_2_IRQHandler                        0x0800322b   Thumb Code     0  startup_stm32f10x_hd.o(.text)
    ADC3_IRQHandler                          0x0800322b   Thumb Code     0  startup_stm32f10x_hd.o(.text)
    CAN1_RX1_IRQHandler                      0x0800322b   Thumb Code     0  startup_stm32f10x_hd.o(.text)
    CAN1_SCE_IRQHandler                      0x0800322b   Thumb Code     0  startup_stm32f10x_hd.o(.text)
    DMA1_Channel1_IRQHandler                 0x0800322b   Thumb Code     0  startup_stm32f10x_hd.o(.text)
    DMA1_Channel2_IRQHandler                 0x0800322b   Thumb Code     0  startup_stm32f10x_hd.o(.text)
    DMA1_Channel3_IRQHandler                 0x0800322b   Thumb Code     0  startup_stm32f10x_hd.o(.text)
    DMA1_Channel4_IRQHandler                 0x0800322b   Thumb Code     0  startup_stm32f10x_hd.o(.text)
    DMA1_Channel5_IRQHandler                 0x0800322b   Thumb Code     0  startup_stm32f10x_hd.o(.text)
    DMA1_Channel6_IRQHandler                 0x0800322b   Thumb Code     0  startup_stm32f10x_hd.o(.text)
    DMA1_Channel7_IRQHandler                 0x0800322b   Thumb Code     0  startup_stm32f10x_hd.o(.text)
    DMA2_Channel1_IRQHandler                 0x0800322b   Thumb Code     0  startup_stm32f10x_hd.o(.text)
    DMA2_Channel2_IRQHandler                 0x0800322b   Thumb Code     0  startup_stm32f10x_hd.o(.text)
    DMA2_Channel3_IRQHandler                 0x0800322b   Thumb Code     0  startup_stm32f10x_hd.o(.text)
    DMA2_Channel4_5_IRQHandler               0x0800322b   Thumb Code     0  startup_stm32f10x_hd.o(.text)
    EXTI0_IRQHandler                         0x0800322b   Thumb Code     0  startup_stm32f10x_hd.o(.text)
    EXTI15_10_IRQHandler                     0x0800322b   Thumb Code     0  startup_stm32f10x_hd.o(.text)
    EXTI1_IRQHandler                         0x0800322b   Thumb Code     0  startup_stm32f10x_hd.o(.text)
    EXTI2_IRQHandler                         0x0800322b   Thumb Code     0  startup_stm32f10x_hd.o(.text)
    EXTI3_IRQHandler                         0x0800322b   Thumb Code     0  startup_stm32f10x_hd.o(.text)
    EXTI4_IRQHandler                         0x0800322b   Thumb Code     0  startup_stm32f10x_hd.o(.text)
    EXTI9_5_IRQHandler                       0x0800322b   Thumb Code     0  startup_stm32f10x_hd.o(.text)
    FLASH_IRQHandler                         0x0800322b   Thumb Code     0  startup_stm32f10x_hd.o(.text)
    FSMC_IRQHandler                          0x0800322b   Thumb Code     0  startup_stm32f10x_hd.o(.text)
    I2C1_ER_IRQHandler                       0x0800322b   Thumb Code     0  startup_stm32f10x_hd.o(.text)
    I2C1_EV_IRQHandler                       0x0800322b   Thumb Code     0  startup_stm32f10x_hd.o(.text)
    I2C2_ER_IRQHandler                       0x0800322b   Thumb Code     0  startup_stm32f10x_hd.o(.text)
    I2C2_EV_IRQHandler                       0x0800322b   Thumb Code     0  startup_stm32f10x_hd.o(.text)
    PVD_IRQHandler                           0x0800322b   Thumb Code     0  startup_stm32f10x_hd.o(.text)
    RCC_IRQHandler                           0x0800322b   Thumb Code     0  startup_stm32f10x_hd.o(.text)
    RTCAlarm_IRQHandler                      0x0800322b   Thumb Code     0  startup_stm32f10x_hd.o(.text)
    RTC_IRQHandler                           0x0800322b   Thumb Code     0  startup_stm32f10x_hd.o(.text)
    SDIO_IRQHandler                          0x0800322b   Thumb Code     0  startup_stm32f10x_hd.o(.text)
    SPI1_IRQHandler                          0x0800322b   Thumb Code     0  startup_stm32f10x_hd.o(.text)
    SPI2_IRQHandler                          0x0800322b   Thumb Code     0  startup_stm32f10x_hd.o(.text)
    SPI3_IRQHandler                          0x0800322b   Thumb Code     0  startup_stm32f10x_hd.o(.text)
    TAMPER_IRQHandler                        0x0800322b   Thumb Code     0  startup_stm32f10x_hd.o(.text)
    TIM1_BRK_IRQHandler                      0x0800322b   Thumb Code     0  startup_stm32f10x_hd.o(.text)
    TIM1_CC_IRQHandler                       0x0800322b   Thumb Code     0  startup_stm32f10x_hd.o(.text)
    TIM1_TRG_COM_IRQHandler                  0x0800322b   Thumb Code     0  startup_stm32f10x_hd.o(.text)
    TIM1_UP_IRQHandler                       0x0800322b   Thumb Code     0  startup_stm32f10x_hd.o(.text)
    TIM3_IRQHandler                          0x0800322b   Thumb Code     0  startup_stm32f10x_hd.o(.text)
    TIM4_IRQHandler                          0x0800322b   Thumb Code     0  startup_stm32f10x_hd.o(.text)
    TIM5_IRQHandler                          0x0800322b   Thumb Code     0  startup_stm32f10x_hd.o(.text)
    TIM6_IRQHandler                          0x0800322b   Thumb Code     0  startup_stm32f10x_hd.o(.text)
    TIM7_IRQHandler                          0x0800322b   Thumb Code     0  startup_stm32f10x_hd.o(.text)
    TIM8_BRK_IRQHandler                      0x0800322b   Thumb Code     0  startup_stm32f10x_hd.o(.text)
    TIM8_CC_IRQHandler                       0x0800322b   Thumb Code     0  startup_stm32f10x_hd.o(.text)
    TIM8_TRG_COM_IRQHandler                  0x0800322b   Thumb Code     0  startup_stm32f10x_hd.o(.text)
    TIM8_UP_IRQHandler                       0x0800322b   Thumb Code     0  startup_stm32f10x_hd.o(.text)
    UART4_IRQHandler                         0x0800322b   Thumb Code     0  startup_stm32f10x_hd.o(.text)
    UART5_IRQHandler                         0x0800322b   Thumb Code     0  startup_stm32f10x_hd.o(.text)
    USBWakeUp_IRQHandler                     0x0800322b   Thumb Code     0  startup_stm32f10x_hd.o(.text)
    USB_HP_CAN1_TX_IRQHandler                0x0800322b   Thumb Code     0  startup_stm32f10x_hd.o(.text)
    USB_LP_CAN1_RX0_IRQHandler               0x0800322b   Thumb Code     0  startup_stm32f10x_hd.o(.text)
    WWDG_IRQHandler                          0x0800322b   Thumb Code     0  startup_stm32f10x_hd.o(.text)
    BufferManageCreate                       0x08003235   Thumb Code    64  buffermanage.o(.text)
    BufferManageWrite                        0x08003275   Thumb Code    84  buffermanage.o(.text)
    BufferManageRead                         0x080032c9   Thumb Code    64  buffermanage.o(.text)
    rbCreate                                 0x08003309   Thumb Code    20  looplist.o(.text)
    rbDelete                                 0x0800331d   Thumb Code    18  looplist.o(.text)
    rbCapacity                               0x0800332f   Thumb Code    14  looplist.o(.text)
    rbCanRead                                0x0800333d   Thumb Code    56  looplist.o(.text)
    rbCanWrite                               0x08003375   Thumb Code    30  looplist.o(.text)
    rbRead                                   0x08003393   Thumb Code   164  looplist.o(.text)
    rbWrite                                  0x08003437   Thumb Code   160  looplist.o(.text)
    PutData                                  0x080034d7   Thumb Code    46  looplist.o(.text)
    mDelayuS                                 0x08003505   Thumb Code    12  ch395spi.o(.text)
    mDelaymS                                 0x08003511   Thumb Code    12  ch395spi.o(.text)
    CH395_PORT_INIT                          0x0800351d   Thumb Code   166  ch395spi.o(.text)
    Spi395Exchange                           0x080035c3   Thumb Code    42  ch395spi.o(.text)
    xWriteCH395Cmd                           0x080035ed   Thumb Code    32  ch395spi.o(.text)
    xWriteCH395Data                          0x0800360d   Thumb Code    12  ch395spi.o(.text)
    xReadCH395Data                           0x08003619   Thumb Code    10  ch395spi.o(.text)
    Query395Interrupt                        0x08003623   Thumb Code    14  ch395spi.o(.text)
    __aeabi_memcpy                           0x0800363d   Thumb Code    36  memcpya.o(.text)
    __aeabi_memcpy4                          0x0800363d   Thumb Code     0  memcpya.o(.text)
    __aeabi_memcpy8                          0x0800363d   Thumb Code     0  memcpya.o(.text)
    __aeabi_uldivmod                         0x08003661   Thumb Code    98  uldiv.o(.text)
    __scatterload                            0x080036c5   Thumb Code    28  init.o(.text)
    __scatterload_rt2                        0x080036c5   Thumb Code     0  init.o(.text)
    __aeabi_llsl                             0x080036e9   Thumb Code    30  llshl.o(.text)
    _ll_shift_l                              0x080036e9   Thumb Code     0  llshl.o(.text)
    __aeabi_llsr                             0x08003707   Thumb Code    32  llushr.o(.text)
    _ll_ushift_r                             0x08003707   Thumb Code     0  llushr.o(.text)
    __0printf$8                              0x08003729   Thumb Code    22  printf8.o(i.__0printf$8)
    __1printf$8                              0x08003729   Thumb Code     0  printf8.o(i.__0printf$8)
    __2printf                                0x08003729   Thumb Code     0  printf8.o(i.__0printf$8)
    __scatterload_copy                       0x08003749   Thumb Code    14  handlers.o(i.__scatterload_copy)
    __scatterload_null                       0x08003757   Thumb Code     2  handlers.o(i.__scatterload_null)
    __scatterload_zeroinit                   0x08003759   Thumb Code    14  handlers.o(i.__scatterload_zeroinit)
    Region$$Table$$Base                      0x08003bcc   Number         0  anon$$obj.o(Region$$Table)
    Region$$Table$$Limit                     0x08003bec   Number         0  anon$$obj.o(Region$$Table)
    idAddr                                   0x20000000   Data          40  system.o(.data)
    Usart2SendData                           0x2000002c   Data           4  usart.o(.data)
    Usart3SendData                           0x20000030   Data           4  usart.o(.data)
    Usart1RecvCnt                            0x20000034   Data           4  usart.o(.data)
    Usart1SendBits                           0x20000038   Data           1  usart.o(.data)
    Usart1SendData                           0x2000003c   Data           4  usart.o(.data)
    Usart1SendDataCnt                        0x20000040   Data           4  usart.o(.data)
    Usart2RecvCnt                            0x20000044   Data           4  usart.o(.data)
    Usart2SendDataCnt                        0x20000048   Data           4  usart.o(.data)
    Usart3RecvCnt                            0x2000004c   Data           4  usart.o(.data)
    Usart3SendDataCnt                        0x20000050   Data           4  usart.o(.data)
    Timer2Cnt                                0x20000058   Data           4  timer.o(.data)
    SystemCoreClock                          0x2000005c   Data           4  system_stm32f10x.o(.data)
    AHBPrescTable                            0x20000060   Data          16  system_stm32f10x.o(.data)
    __stdout                                 0x20000084   Data           4  stdout.o(.data)
    buff_manage_struct_usart1_recv           0x20000088   Data          60  usart.o(.bss)
    rb_t_usart1_send                         0x200000c4   Data          16  usart.o(.bss)
    Usart1RecvBufferMemory                   0x200000d4   Data        1024  usart.o(.bss)
    Usart1RecvBufferMemoryCopy               0x200004d4   Data         500  usart.o(.bss)
    Usart1RecvBufferMemoryManage             0x200006c8   Data         200  usart.o(.bss)
    Usart1SendBuff                           0x20000790   Data        1024  usart.o(.bss)
    buff_manage_struct_usart2_recv           0x20000b90   Data          60  usart.o(.bss)
    Usart2RecvBufferMemory                   0x20000bcc   Data        1024  usart.o(.bss)
    Usart2RecvBufferMemoryCopy               0x20000fcc   Data         500  usart.o(.bss)
    Usart2RecvBufferMemoryManage             0x200011c0   Data         200  usart.o(.bss)
    buff_manage_struct_usart3_recv           0x20001288   Data          60  usart.o(.bss)
    Usart3RecvBufferMemory                   0x200012c4   Data        1024  usart.o(.bss)
    Usart3RecvBufferMemoryCopy               0x200016c4   Data         500  usart.o(.bss)
    Usart3RecvBufferMemoryManage             0x200018b8   Data         200  usart.o(.bss)
    buff_manage_struct_usart3_send           0x20001980   Data          60  usart.o(.bss)
    Usart3SendBufferMemory                   0x200019bc   Data        1024  usart.o(.bss)
    Usart3SendBufferMemoryCopy               0x20001dbc   Data         500  usart.o(.bss)
    Usart3SendBufferMemoryManage             0x20001fb0   Data         200  usart.o(.bss)
    Usart1RecvBuff                           0x20002078   Data        1024  usart.o(.bss)
    Usart2RecvBuff                           0x20002478   Data        1024  usart.o(.bss)
    Usart3RecvBuff                           0x20002878   Data        1024  usart.o(.bss)
    __initial_sp                             0x20003078   Data           0  startup_stm32f10x_hd.o(STACK)



==============================================================================

Memory Map of the image

  Image Entry point : 0x08000131

  Load Region LR_IROM1 (Base: 0x08000000, Size: 0x00003c74, Max: 0x00010000, ABSOLUTE)

    Execution Region ER_IROM1 (Base: 0x08000000, Size: 0x00003bec, Max: 0x00010000, ABSOLUTE)

    Base Addr    Size         Type   Attr      Idx    E Section Name        Object

    0x08000000   0x00000130   Data   RO          458    RESET               startup_stm32f10x_hd.o
    0x08000130   0x00000000   Code   RO          511  * .ARM.Collect$$$$00000000  mc_w.l(entry.o)
    0x08000130   0x00000004   Code   RO          819    .ARM.Collect$$$$00000001  mc_w.l(entry2.o)
    0x08000134   0x00000004   Code   RO          822    .ARM.Collect$$$$00000004  mc_w.l(entry5.o)
    0x08000138   0x00000000   Code   RO          824    .ARM.Collect$$$$00000008  mc_w.l(entry7b.o)
    0x08000138   0x00000000   Code   RO          826    .ARM.Collect$$$$0000000A  mc_w.l(entry8b.o)
    0x08000138   0x00000008   Code   RO          827    .ARM.Collect$$$$0000000B  mc_w.l(entry9a.o)
    0x08000140   0x00000000   Code   RO          829    .ARM.Collect$$$$0000000D  mc_w.l(entry10a.o)
    0x08000140   0x00000000   Code   RO          831    .ARM.Collect$$$$0000000F  mc_w.l(entry11a.o)
    0x08000140   0x00000004   Code   RO          820    .ARM.Collect$$$$00002712  mc_w.l(entry2.o)
    0x08000144   0x00000040   Code   RO            1    .text               stm32f10x_it.o
    0x08000184   0x000008d0   Code   RO          104    .text               main.o
    0x08000a54   0x000000f8   Code   RO          183    .text               system.o
    0x08000b4c   0x000000d4   Code   RO          205    .text               delay.o
    0x08000c20   0x000005bc   Code   RO          222    .text               usart.o
    0x080011dc   0x00000064   Code   RO          248    .text               gpio.o
    0x08001240   0x0000002c   Code   RO          296    .text               iwdg.o
    0x0800126c   0x00000078   Code   RO          311    .text               timer.o
    0x080012e4   0x000001e0   Code   RO          340    .text               system_stm32f10x.o
    0x080014c4   0x000000dc   Code   RO          358    .text               misc.o
    0x080015a0   0x000003a4   Code   RO          370    .text               stm32f10x_rcc.o
    0x08001944   0x00000408   Code   RO          384    .text               stm32f10x_usart.o
    0x08001d4c   0x0000035c   Code   RO          408    .text               stm32f10x_gpio.o
    0x080020a8   0x00000e1a   Code   RO          420    .text               stm32f10x_tim.o
    0x08002ec2   0x00000002   PAD
    0x08002ec4   0x00000040   Code   RO          432    .text               stm32f10x_iwdg.o
    0x08002f04   0x0000030c   Code   RO          444    .text               stm32f10x_spi.o
    0x08003210   0x00000024   Code   RO          459    .text               startup_stm32f10x_hd.o
    0x08003234   0x000000d4   Code   RO          463    .text               buffermanage.o
    0x08003308   0x000001fc   Code   RO          478    .text               looplist.o
    0x08003504   0x00000138   Code   RO          493    .text               ch395spi.o
    0x0800363c   0x00000024   Code   RO          514    .text               mc_w.l(memcpya.o)
    0x08003660   0x00000062   Code   RO          836    .text               mc_w.l(uldiv.o)
    0x080036c2   0x00000002   PAD
    0x080036c4   0x00000024   Code   RO          851    .text               mc_w.l(init.o)
    0x080036e8   0x0000001e   Code   RO          853    .text               mc_w.l(llshl.o)
    0x08003706   0x00000020   Code   RO          855    .text               mc_w.l(llushr.o)
    0x08003726   0x00000002   PAD
    0x08003728   0x00000020   Code   RO          737    i.__0printf$8       mc_w.l(printf8.o)
    0x08003748   0x0000000e   Code   RO          863    i.__scatterload_copy  mc_w.l(handlers.o)
    0x08003756   0x00000002   Code   RO          864    i.__scatterload_null  mc_w.l(handlers.o)
    0x08003758   0x0000000e   Code   RO          865    i.__scatterload_zeroinit  mc_w.l(handlers.o)
    0x08003766   0x00000002   PAD
    0x08003768   0x00000410   Code   RO          744    i._printf_core      mc_w.l(printf8.o)
    0x08003b78   0x00000024   Code   RO          745    i._printf_post_padding  mc_w.l(printf8.o)
    0x08003b9c   0x0000002e   Code   RO          746    i._printf_pre_padding  mc_w.l(printf8.o)
    0x08003bca   0x00000002   PAD
    0x08003bcc   0x00000020   Data   RO          861    Region$$Table       anon$$obj.o


    Execution Region RW_IRAM1 (Base: 0x20000000, Size: 0x00003078, Max: 0x00005000, ABSOLUTE)

    Base Addr    Size         Type   Attr      Idx    E Section Name        Object

    0x20000000   0x00000028   Data   RW          184    .data               system.o
    0x20000028   0x00000004   Data   RW          206    .data               delay.o
    0x2000002c   0x00000029   Data   RW          224    .data               usart.o
    0x20000055   0x00000003   PAD
    0x20000058   0x00000004   Data   RW          312    .data               timer.o
    0x2000005c   0x00000014   Data   RW          341    .data               system_stm32f10x.o
    0x20000070   0x00000014   Data   RW          371    .data               stm32f10x_rcc.o
    0x20000084   0x00000004   Data   RW          833    .data               mc_w.l(stdout.o)
    0x20000088   0x00002bf0   Zero   RW          223    .bss                usart.o
    0x20002c78   0x00000400   Zero   RW          456    STACK               startup_stm32f10x_hd.o


==============================================================================

Image component sizes


      Code (inc. data)   RO Data    RW Data    ZI Data      Debug   Object Name

       212          0          0          0          0       2148   buffermanage.o
       312         12          0          0          0       6011   ch395spi.o
         0          0          0          0          0         32   core_cm3.o
       212         18          0          4          0        962   delay.o
       100          8          0          0          0        487   gpio.o
        44          0          0          0          0        618   iwdg.o
       508          0          0          0          0       3219   looplist.o
      2256         94          0          0          0      18101   main.o
       220         22          0          0          0       1741   misc.o
        36          8        304          0       1024        788   startup_stm32f10x_hd.o
       860         38          0          0          0       5593   stm32f10x_gpio.o
        64          8          0          0          0     274405   stm32f10x_it.o
        64          6          0          0          0       1245   stm32f10x_iwdg.o
       932         36          0         20          0       8748   stm32f10x_rcc.o
       780         14          0          0          0       6470   stm32f10x_spi.o
      3610         88          0          0          0      22076   stm32f10x_tim.o
      1032         22          0          0          0       8312   stm32f10x_usart.o
       248         40          0         40          0       1514   system.o
       480         38          0         20          0       1755   system_stm32f10x.o
       120          6          0          4          0        836   timer.o
      1468        150          0         41      11248       7418   usart.o

    ----------------------------------------------------------------------
     13560        608        336        132      12272     372479   Object Totals
         0          0         32          0          0          0   (incl. Generated)
         2          0          0          3          0          0   (incl. Padding)

    ----------------------------------------------------------------------

      Code (inc. data)   RO Data    RW Data    ZI Data      Debug   Library Member Name

         0          0          0          0          0          0   entry.o
         0          0          0          0          0          0   entry10a.o
         0          0          0          0          0          0   entry11a.o
         8          4          0          0          0          0   entry2.o
         4          0          0          0          0          0   entry5.o
         0          0          0          0          0          0   entry7b.o
         0          0          0          0          0          0   entry8b.o
         8          4          0          0          0          0   entry9a.o
        30          0          0          0          0          0   handlers.o
        36          8          0          0          0         68   init.o
        30          0          0          0          0         68   llshl.o
        32          0          0          0          0         68   llushr.o
        36          0          0          0          0         68   memcpya.o
      1154         54          0          0          0        352   printf8.o
         0          0          0          4          0          0   stdout.o
        98          0          0          0          0         92   uldiv.o

    ----------------------------------------------------------------------
      1444         70          0          4          0        716   Library Totals
         8          0          0          0          0          0   (incl. Padding)

    ----------------------------------------------------------------------

      Code (inc. data)   RO Data    RW Data    ZI Data      Debug   Library Name

      1436         70          0          4          0        716   mc_w.l

    ----------------------------------------------------------------------
      1444         70          0          4          0        716   Library Totals

    ----------------------------------------------------------------------

==============================================================================


      Code (inc. data)   RO Data    RW Data    ZI Data      Debug   

     15004        678        336        136      12272     371319   Grand Totals
     15004        678        336        136      12272     371319   ELF Image Totals
     15004        678        336        136          0          0   ROM Totals

==============================================================================

    Total RO  Size (Code + RO Data)                15340 (  14.98kB)
    Total RW  Size (RW Data + ZI Data)             12408 (  12.12kB)
    Total ROM Size (Code + RO Data + RW Data)      15476 (  15.11kB)

==============================================================================

