:020000040800F2
:1000000068020020C1030008C5030008C7030008F8
:10001000C9030008CB030008CD030008000000005E
:10002000000000000000000000000000CF030008F6
:10003000D103000800000000D3030008D503000826
:10004000A3010008A5010008A7010008A9010008F4
:10005000AB010008AD010008AF010008B1010008C4
:10006000B3010008B5010008B7010008B901000894
:10007000BB010008BD010008BF010008C101000864
:10008000C3010008C5010008C7010008C901000834
:10009000CB010008CD010008CF010008D101000804
:1000A000D3010008D5010008D7010008D9010008D4
:1000B000D7030008DB010008DD010008DF010008AC
:1000C000E1010008E3010008E5010008E70100087C
:1000D000E9010008EB0100082302000825020008DE
:1000E00027020008290200082B02000800F002F88D
:1000F00000F03AF80AA090E8000C82448344AAF188
:100100000107DA4501D100F02FF8AFF2090EBAE885
:100110000F0013F0010F18BFFB1A43F0010318473B
:100120005C0800007C080000103A24BF78C878C141
:10013000FAD8520724BF30C830C144BF04680C60ED
:10014000704700000023002400250026103A28BF35
:1001500078C1FBD8520728BF30C148BF0B60704739
:100160001FB51FBD10B510BD00F047F91146FFF7D0
:10017000F7FF00F008F800F065F903B4FFF7F2FFAD
:1001800003BC00F069F910B500F0CEF8002010BDF6
:1001900070477047704770477047704770477047A7
:1001A0007047704770477047704770477047704797
:1001B0007047704770477047704770477047704787
:1001C0007047704770477047704770477047704777
:1001D0007047704770477047704770477047704767
:1001E0007047704770477047704770B50F4C40F2CA
:1001F00025552946204600F038FB18B129462046EF
:1002000000F01CFB40F226652946204600F02DFB3D
:10021000002805D029462046BDE8704000F00EBBFE
:1002200070BD704770477047704770470038014095
:1002300008B500214FF0006000F0B8F91C208DF8DF
:10024000000000208DF801008DF8020001208DF8DB
:100250000300684600F070F908BD10B586B04FF491
:100260000070ADF8100003208DF812001820524CD9
:100270008DF8130004A9204600F00EF92115ADF801
:10028000101004218DF8131004A9204600F004F981
:100290004FF4E13000900020ADF80400ADF8060006
:1002A000ADF80800ADF80C000C20444CADF80A0085
:1002B0006946204600F010FB012240F225512046FD
:1002C00000F0F2FA0121204600F0BEFA06B010BD9F
:1002D00070B53A4D0446C1B2284600F041FB4021BA
:1002E000284600F0BBFA0028F9D0204670BD3EB584
:1002F00048F6A040ADF804000120ADF80000002051
:10030000ADF80600ADF802004FF080446946204683
:1003100000F076FA0121204600F05EFA0122114633
:10032000204600F064FA3EBD10B500F005F8FFF776
:100330007FFFBDE8104090E710B500F059F94FF489
:100340008034204600F0E6F900F02CFA012800D0B5
:10035000FEE7102000F088F8022000F091F800205D
:1003600000F0CEF9002000F0F9F94FF4806000F0C1
:10037000EBF94FF4E011204600F000FA012000F004
:10038000F7F9392000F09CF90028FAD0022000F09B
:10039000FFF900F0ADF90828FBD10121084600F073
:1003A0000FF9012144F23C2000F016F90121BDE8CB
:1003B0001040084600F010B9000801400038014024
:1003C00008480047FEE7FEE7FEE7FEE7FEE7FEE738
:1003D000FEE7FEE7FEE7FEE703480449024A044B56
:1003E00070470000ED00000868000020680200204F
:1003F00068000020704770477047754600F028F885
:10040000AE4605006946534620F00700854618B001
:1004100020B5FFF7E1FFBDE820404FF000064FF0A8
:1004200000074FF000084FF0000B21F00701AC4629
:10043000ACE8C009ACE8C009ACE8C009ACE8C00948
:100440008D4670470446AFF300802046FFF795FEC7
:10045000004870470800002001491820ABBEFEE7A5
:10046000260002007047000004490A6822F01002CA
:100470000A600A6802430A607047000000200240D8
:1004800004490A6802F038020A600A6802430A60F6
:100490007047000000200240F0B5CB780022DC0657
:1004A00003F00F0301D58C7823430C880F2714F039
:1004B000FF0F4FF0010C1CD0D0F800500E880CFA42
:1004C00002F42640A64210D1960007FA06FE25EA5D
:1004D0000E0E03FA06F5CE7845EA0E05282E00D159
:1004E0004461CE78482E00D10461521C082AE5D31D
:1004F00005600A88FF2A1ED94568002202F1080615
:100500000CFA06F40E882640A64210D1960007FA8F
:1005100006FE25EA0E0E03FA06F5CE7845EA0E052C
:10052000282E00D14461CE78482E00D10461521C9F
:10053000082AE3D34560F0BDF0B50F23C2780178F7
:100540004FF0E024012742B3D4F80C2D467802F492
:10055000E062C2F5E062120AC2F10405D34082787B
:10056000AE401A40324315018A07D20E954021F061
:1005700003010B19D3F80064FF2191408E430D4015
:100580002E43C3F800640078410900F01F0004EB1B
:1005900081018740C1F80071F0BD01F01F00874064
:1005A000480904EB8000C0F88071F0BD024A114098
:1005B000014302480160704780FFFF1F08ED00E023
:1005C000044A0029516901D0014300E0814351618F
:1005D0007047000000100240044A0029916901D0D0
:1005E000014300E081439161704700000010024028
:1005F0000B48016841F0010101604168094A11405E
:1006000041600168084A11400160016821F48021BD
:1006100001604268002122F4FE024260816070475E
:10062000001002400000FFF8FFFFF6FE30B5204A40
:100630005168204B11F00C0103D0042901D0082986
:1006400001D0036011E05168022401F4701104EB41
:1006500091415468184D14F4803F02D05468A403AB
:1006600001D5694300E0594301605168134B01F023
:10067000F00109095C5C0168E1404160546804F4E0
:10068000E064240A1C5D21FA04F48460546804F4D4
:100690006054E40A1B5DD940C1605268074B02F404
:1006A0004042920B1B1F9A5CB1FBF2F1016130BD1D
:1006B0000010024000127A0000093D006C09000899
:1006C000034600205909094A012901D1116804E0B3
:1006D000022901D1116A00E0516A03F01F020123CF
:1006E00093400B4200D001207047000000100240F0
:1006F0000248406800F00C00704700000010024003
:10070000034A516821F0F001014351607047000035
:10071000001002400B490A6822F480320A600A681D
:10072000B0F5803F22F480220A6007D0B0F5802F18
:1007300003D1086840F4A02008607047086840F4BE
:100740008030F9E700100240034A516821F4E0616B
:10075000014351607047000000100240034A516895
:1007600021F4605141EAC00050607047001002401F
:10077000014908667047000000004242034B5A6876
:10078000084322F47C121043586070470010024066
:10079000034A516821F00301014351607047000092
:1007A0000010024030B50B4C40F2FF153120FFF72E
:1007B00087FF20706068401C6060207810B9606816
:1007C000A842F3D13120FFF77BFF002800D00120A1
:1007D00030BD0000000000200029018802D041F057
:1007E000010102E040F2FE32114001807047002A10
:1007F000828901D00A4300E08A4382817047000069
:1008000010B5028802F08F020280CA884B880488E3
:100810001A43224302808A88064C012382850A8873
:10082000A0420285838202D0034A904201D1097A14
:10083000018610BD002C0140003401400A0A01214C
:100840009140C943018070470029818902D041F459
:10085000005101E021F40051818170470246128865
:1008600000200A4200D00120704770B501F01F053A
:1008700001260024C1F3421306FA05F2012B01D12F
:10088000838904E0022B01D1038A00E0838A4FEAC6
:1008900011210088134206FA01F600EA060001D091
:1008A00000B10124204670BD10B5C1F3421301F020
:1008B0001F040121A140012B01D10C3004E0022BC7
:1008C00001D1103000E01430002A026801D00A4340
:1008D00000E08A43026010BD30B50446008A85B04E
:1008E0000D464CF6FF710840E98801432182A0893A
:1008F0004EF6F3110840A9882A8911436A890243F8
:100900001143A181A08A4FF6FF410840A989014304
:10091000A1826846FFF78AFE1048844201D10398FD
:1009200000E0029819214843296864228900B0FB3D
:10093000F1F0B0FBF2F109010B096FF018056B4300
:10094000322500EB830005EB0010B0FBF2F000F065
:100950000F000843208105B030BD00000038014081
:10096000C1F30801818070470204060800000000FE
:100970000102030401020304060708099C09000898
:10098000000000200800000028010008A409000859
:100990000800002060020000440100080000000080
:0409A0000000000053
:04000005080003C12B
:00000001FF
