:100866004572726F723A20253032580A00726563FB
:1008760065697665206C656E203D2025640A005406
:10088600637020436F6E6E6563740A004950206181
:10089600646472657373203D2025642E25642E25BD
:1008A600642E25640A00506F7274203D2025640A68
:1008B60000496E697420737461747573203A204719
:1008C600494E545F535441545F5048595F43484121
:1008D6004E47450A0043483339354556542054653A
:1008E60073742044656D6F0A004572726F723A2008
:1008F6004E6F7420537570706F7274210A004348EE
:1009060033393520436F6E6E6563742045746865B0
:06091600726E65740A0018
:10122E00441D6CC0A8010A441D97C0A80101441DAD
:0A123E0093FFFFFF00421D9B138881
:0713E6007FFA1213ED7FFAFC
:0713ED00AE071FEE70FA22AB
:071295007FC812129C7FC804
:10129C00AD07AF051DEF60081213E61213E680F2DE
:0112AC00221F
:09144500D29475D55C43AA08227B
:0D1402008F86E5AA30E7FB53AA7FAF862254
:03139B00E4FCFB74
:0C139E00D294C2941214027F020213EDDC
:100FB000901E18E0FBA3E475F00112049BA9F0FA5F
:100FC00012045EFF120FDB901E18E0FBA3E475F025
:0B0FD0000112049BA9F0FA12045EFF5E
:030FDB00021402FB
:0813F40012139EAF05120FDB7E
:0513FC007FFF12140246
:0114010022C8
:08144E007F0512139ED29422C7
:081456007F0312139ED29422C1
:0A140F007F0112139E1213FCD29409
:0114190022B0
:02143B00AD07FB
:07143D007F061213F4D294A4
:011444002285
:0F13AA00AD077F2012139EAF05120FDBD29422E6
:0A141A007F2612139E1213FCD294D9
:0114240022A5
:0A1425007F2912139E1213FCD294CB
:01142F00229A
:100FDE00E4901D9EF0FD7F2712139ED2947F0A127D
:100FEE00129C121390AD07EDB41010901D9EE0FFF1
:0D0FFE0004F0EFD394C840E57FFA22AF0560
:01100B0022C2
:100EAA00901E0E1204ED7F0212139E901E0EA3A333
:100EBA00A3E0FF120FDB901E0EA3A3E0FEEEFF12CB
:100ECA000FDB901E0EE0FCA3E0FDA3E0FEA3E0FF13
:0B0EDA0078101204C7120FDBD2942224
:05138B007F0512129C19
:0A1390007F2C12139E1213FCD2945E
:01139A002230
:0B119300901D9EEBF0A3EAF0A3E9F032
:10119E007F2212139EE4FE901D9E120FCA0EEEB415
:0411AE0004F5D294DE
:0111B200221A
:0B11B300901D9EEBF0A3EAF0A3E9F012
:1011BE007F2312139EE4FE901D9E120FCA0EEEB4F4
:0411CE0004F5D294BE
:0111D20022FA
:0B11D300901D9EEBF0A3EAF0A3E9F0F2
:1011DE007F2412139EE4FE901D9E120FCA0EEEB4D3
:0411EE0004F5D2949E
:0111F20022DA
:0B114E00901E12EBF0A3EAF0A3E9F002
:101159007F2112139EE4FE901E12120FCA0EEEB4E6
:0911690006F5D2947F6402129C89
:0B0F1D00901E15EBF0A3EAF0A3E9F032
:100F28007F4012139EE4FE1213FC901E15E0FBA3F3
:100F3800E475F00112049BA9F0FAEF1204770EEEA3
:050F4800B406E4D294A0
:010F4D002281
:10091C00AD077F2512139EAF05120FDB901DFAA3B6
:10092C00A3A3E0FF120FDB901DFAA3A3E0FEEEFFE2
:10093C00120FDB901DFAE0FCA3E0FDA3E0FEA3E0A8
:10094C00FF78101204C7120FDB901DFAE0FCA3E035
:10095C00FDA3E0FEA3E0FF78181204C7120FDBA37F
:10096C00A3A3A3E0FF120FDB901DFEA3A3E0FEEEFA
:10097C00FF120FDB901DFEE0FCA3E0FDA3E0FEA345
:10098C00E0FF78101204C7120FDB901DFEE0FCA3F1
:10099C00E0FDA3E0FEA3E0FF78181204C7120FDB02
:0309AC00D29422C0
:0B0F4E00901DAAEBF0A3EAF0A3E9F06D
:100F59007F2812139EE4FE1213FC901DAAE0FBA346
:100F6900E475F00112049BA9F0FAEF1204770EEE72
:050F7900B408E4D2946D
:010F7E002250
:0D0EE500901DB0EBF0A3EAF0A3E9F0AD071B
:100EF2007F2D12139EAF05120FDBE4FE1213FC903E
:100F02001DB0E0FBA3E475F00112049BA9F0FAEF17
:0A0F12001204770EEEB406E4D29448
:010F1C0022B2
:1011F300901E18EBF0A3EAF0A3E9F0AD077F3112DC
:10120300139EAF05120FDB120FB0120FB0D2942250
:10131B00AC077F3412139EAF04120FDBAF05120F15
:04132B00DBD294225B
:10126300AB077F3212139EAF03120FDBAF05120FD2
:09127300DBECFF120FDBD2942228
:10127C00AB077F3312139EAF03120FDBAF05120FB8
:09128C00DBECFF120FDBD294220F
:10132F00AC077F3E12139EAF04120FDBAF05120FF7
:04133F00DBD2942247
:0F13B900AD077F3F12139EAF05120FDBD29422B8
:0D0DE800901DB1EBF0A3EAF0A3E9F0AD0718
:100DF5007F3912139EAF05120FDBA3A3E0FF120F7D
:100E0500DB901DB4E0FF120FDBE4FDFCD3901DB5B4
:100E1500E09D901DB4E09C400D901DB1120FCA0DD0
:080E2500BD00010C80E6D2942F
:010E2D0022A2
:02121300AD0725
:101215007F3B1213F4AD077C001213FCEFFEE42DA7
:08122500FDEC3ED294FEAF0582
:01122D00229E
:0F13C800AD077F2E12139EAF05120FDBD29422BA
:0B0BBD00901DB0EFF0A3ECF0A3EDF0F2
:100BC8004C60487F3C12139E901DB0E0FF120FDB73
:100BD800A3A3E0FF120FDB901DB1E0FF120FDB7F34
:100BE800011213EDE4FDFCD3901DB2E09D901DB100
:100BF800E09C40151213FCEF120477740129F9E404
:0B0C08003AFA0DBD00010C80DED29412
:010C130022BE
:0F13D700AD077F2A12139EAF05120FDBD29422AF
:1012C400AD07AC067F2A12139EAF05120FDBECFFAD
:0612D400120FDBD2942290
:100E2E00901E1BEBF0A3EAF0A3E9F0AD077F2F12A3
:100E3E0013F4901E1BE0FBA3E475F00112049BA9B2
:100E4E00F0FAEF1204771213FC901E1BE0FBA3E4E2
:100E5E0075F00112049BA9F0FAEF120477D29422D6
:02110200AD0737
:101104007F3512139BAF05120FDBD29412138BABF6
:1011140007EBB4100CAF040CEFD394C840EE7FFA85
:0311240022AF03F4
:0111270022A5
:02112800AD0711
:10112A007F3D12139BAF05120FDBD29412138BABC8
:10113A0007EBB4100CAF040CEFD394C840EE7FFA5F
:03114A0022AF03CE
:01114D00227F
:02103700AD0703
:10103900E4FCFB7F3712139EAF05120FDBD294122B
:10104900138BAB07EBB4100CAF040CEFD394C8406F
:06105900EE7FFA22AF0356
:01105F00226E
:02106000AD07DA
:10106200E4FCFB7F3612139EAF05120FDBD2941203
:10107200138BAB07EBB4100CAF040CEFD394C84046
:06108200EE7FFA22AF032D
:011088002245
:02108900AD07B1
:10108B00E4FCFB7F3812139EAF05120FDBD29412D8
:10109B00138BAB07EBB4100CAF040CEFD394C8401D
:0610AB00EE7FFA22AF0304
:0110B100221C
:0212AD00AD078B
:1012AF007F3012139EAF05120FDB7F021213ED1268
:0412BF0013FCD294B6
:0112C3002208
:0B05C900901DD8EBF0A3EAF0A3E9F0CE
:1005D400901DE31204F904C11DB7901DE71204F93C
:1005E400FFFFFFFF901DDB1204F900000000E47F11
:1005F40006FEFDFC901DDBE0F8A3E0F9A3E0FAA3FE
:10060400E0FBC31204B1400302071C901DD8E0FBB9
:10061400A3E475F00112049BA9F0FA12045E901D84
:10062400EBF0901DDF1204F900000000E47F08FEE7
:10063400FDFC901DDFE0F8A3E0F9A3E0FAA3E0FBE2
:10064400C31204B140030206F4901DE7E0FCA3E0EA
:10065400FDA3E0FEA3E0FF781F1204C7A905AA06C4
:10066400AB07A3E0FFEB6FFFEF5401FFEF601890BF
:100674001DE3E0FCA3E0FDA3E0FEA3E0FFC004C093
:1006840005C006C007800DE4FBFAF9F8C000C001FC
:10069400C002C003901DE7E0FCA3E0FDA3E0FEA3BD
:1006A400E0FF78011204DAD003D002D001D000EFC9
:1006B4006BFFEE6AFEED69FDEC68FC901DE7120429
:1006C400ED901DEBE0C313F0901DDFE0FCA3E0FD13
:1006D400A3E0FEA3E0FFE4FAF9F8EF2401FFEA3E09
:1006E400FEE93DFDE83CFC901DDF1204ED020630FE
:1006F400901DDBE0FCA3E0FDA3E0FEA3E0FFE4FA31
:10070400F9F8EF2401FFEA3EFEE93DFDE83CFC90E8
:100714001DDB1204ED0205F2901DE7E0FCA3E0FDF1
:10072400A3E0FEA3E0FF781A1204C7901DE71204A9
:09073400ED901DE7A3A3A3E0FF73
:01073D002299
:0210B200AD0788
:1010B400E4FC7F4112139EAF05120FDBD2947F1420
:1010C40012129C121390EFB4100CAE040CEED394D5
:0610D400C840EB7FFA2288
:0110DA0022F3
:0A1430007F4212139E1213FCD294A7
:01143A00228F
:0B0F7F00901E1EEBF0A3EAF0A3E9F0C7
:100F8A007F4312139EE4FE1213FC901E1EE0FBA385
:100F9A00E475F00112049BA9F0FAEF1204770EEE41
:050FAA00B414E4D29430
:010FAF00221F
:10136900AC077FED12139EAF04120FDBAF05020F1E
:01137900DB98
:02130600AD0731
:101308007FEC12139EAF05120FDB7F0112129C12A5
:0213180013FCC4
:01131A0022B0
:101343007FE912139E7F1412129C121390EF641004
:0213530060F345
:011355002275
:0F0C6800901E04EBF0A3EAF0A3E9F0AD07AC0691
:100C77007FEA12139EAF05120FDBECFF120FDBA307
:100C8700E0801D901E07E0FF14F0EF6019901E042E
:100C9700E0FBA3E475F00112049BA9F0FA12045ECD
:100CA700FF120FDB80DD7F1412129C121390EF648A
:030CB7001060F3D7
:010CBA002217
:100D0900901E0AEBF0A3EAF0A3E9F0AD07AC067F69
:100D1900EB12139EAF05120FDBECFF120FDBA3E002
:100D2900FF120FDB7F0112129C901E0DE0FF14F0E1
:100D3900EF60191213FC901E0AE0FBA3E475F001A1
:0D0D490012049BA9F0FAEF12047780DD225E
:10135600AD07AC067F5012139EAF05120FDBECFFF4
:03136600020FDB98
:1012DA00AC077F5212139EAF04120FDBAF05120F39
:0612EA00DBAF03020FDB85
:1012F000AC077F5312139EAF04120FDBAF05120F22
:06130000DBAF03020FDB6E
:100C1400901DECEBF0A3EAF0A3E9F0A31204ED902D
:100C24001DF8E0FF901DF3E0FBA3E0FAA3E0F91246
:100C340011F3901DF8E0FF901DF6E0FCA3E0FD1217
:100C44001263901DECE0FBA3E0FAA3E0F9A3A3A3D5
:100C5400E0FFA3E0901DB4CFF0A3EFF0901DF8E007
:040C6400FF020DE896
:100CBB00901D9E1204ED7F5512139E901D9EA3A3B3
:100CCB00A3E0FF120FDB901D9EA3A3E0FEEEFF122D
:100CDB000FDB901D9EE0FCA3E0FDA3E0FEA3E0FF75
:100CEB0078101204C7120FDB901D9EE0FCA3E0FDF1
:0E0CFB00A3E0FEA3E0FF78181204C7020FDB8F
:101172007F1912139E7F021213ED1213FCAD077C2E
:10118200001213FCEFFEE42DFDEC3ED294FEAF05FF
:01119200223A
:10124900EF60167BFF7A087966901DB3E4F0A3EF8F
:0A125900F012006E12129580FB22C5
:100DA0007E007F237D007B017A1D797012052A78F1
:100DB000707C1D7D017B017A1D796C7E007F0412A1
:100DC000043878747C1D7D017B017A1D79977E0043
:100DD0007F0412043878787C1D7D017B017A1D79AF
:080DE000937E007F0402043839
:10100C007E007F1C7D007B017A1D795012052A9091
:10101C001D9BE0FFA3E0901D63CFF0A3EFF0901DAC
:0B102C005A7403F0901D5C7401F02268
:100D5600901D5AE0FDE4FF12131B901D63E0FCA3F7
:100D6600E0FDE4FF12127CE4FF121102AA07121240
:100D760049E4FF121060AA071212497A01AF0290E5
:100D86001D5AE0FD12131BAF02901D63E0FCA3E0A9
:090D9600FD12127C0AEAB408E423
:010D9F002231
:05073E00901DAAEFF080
:100743001212ADA3EFF0901DABE020E2030207E32A
:10075300901DAAE0FF121213901DACEEF0A3EFF070
:100763007BFF7A087973901DB3EEF0A3EFF01200CC
:100773006E901DACE0FEA3E0FF4E7003020865D34C
:10078300EF9464EE94004009901DACE4F0A374640C
:10079300F0901DAAE0FF7E007C047D301204897472
:1007A300002FF974003EFA7B01E0FF901DACE0FCE2
:1007B300A3E0FD120BBD901DAAE0FF7E007C047D2B
:1007C3003012048974002FF974003EFAE0FF901D83
:1007D300ACE0FDA3E0901DB4CDF0A3EDF0120DE865
:1007E300901DABE030E37B7BFF7A08798512006EC6
:1007F300901D5CE06401706A901DAAE0FF7B007AA3
:1008030000790D120EE57812E6FE18E67C0024004E
:10081300FFEC3E901DAEF0A3EFF07BFF7A087992D8
:10082300780DE6FF901DB3E4F0A3EFF008E6FFA315
:10083300E4F0A3EFF008E6FFA3E4F0A3EFF008E68B
:10084300FFA3E4F0A3EFF012006E7BFF7A0879AC0C
:10085300901DAEE0FFA3E0901DB3CFF0A3EFF01225
:02086300006E25
:010865002270
:100ACA00121172901D9EEEF0A3EFF030E0097B0147
:100ADA007A1D79A0120F4E901D9FE030E2097BFF2C
:100AEA007A0879B712006E901D9FE030E405E4FFA2
:100AFA0012073E901D9FE030E5057F0112073E90E8
:100B0A001D9FE030E6057F0212073E901D9FE030F0
:100B1A00E7057F0312073E901D9EE030E0057F0443
:100B2A0012073E901D9EE030E1057F0512073E90B8
:100B3A001D9EE030E2057F0612073E901D9EE030C2
:070B4A00E3057F0712073EDF
:010B51002281
:100E6E007F6512143BEF649A60037FFA227B017A4E
:100E7E001D79701211937B017A1D79741211B37B57
:100E8E00017A1D79781211D37F027E007D007C00DD
:0B0E9E00120CBB7F6412129C120FDECE
:010EA9002226
:10137A00759850758780758921758DF3D28ED299AB
:01138A002240
:1009AF007B04E4FDFF1212DA7B027D04E4FF1212D6
:1009BF00F07B047D067F011212DA7B027D0A7F0134
:1009CF001212F07B047D0C7F021212DA7B027D1073
:1009DF007F021212F07B047D127F031212DA7B0268
:1009EF007D167F031212F07B047D187F041212DA3A
:1009FF007B027D1C7F041212F07B047D1E7F05128B
:100A0F0012DA7B027D227F051212F07B047D247F98
:100A1F00061212DA7B027D287F061212F07B047D0C
:0F0A2F002A7F071212DA7B027D2E7F070212F058
:100B52007F6412129C12137A7BFF7A0879DB1200EF
:100B62006E12144512140F901D9DEFF0C394445061
:100B72000E7BFF7A0879EF12006E12129580FB123B
:100B82000DA0120E6E901D9DEFF01212491209AFC8
:100B92007F187E0212135612141ABF01077FC81261
:100BA200129C80F37BFF7A09790412006E12100CFA
:0B0BB200120D5620B3FD120ACA80F895
:03000000020A3EB3
:0C0A3E00787FE4F6D8FD758121020A855E
:10036800E709F608DFFA8046E709F208DFFA803E77
:1003780088828C83E709F0A3DFFA8032E309F60864
:10038800DFFA8078E309F208DFFA807088828C83CC
:10039800E309F0A3DFFA806489828A83E0A3F60880
:1003A800DFFA805889828A83E0A3F208DFFA804C5A
:1003B80080D280FA80C680D4806980F28033801031
:1003C80080A680EA809A80A880DA80E280CA80339A
:1003D80089828A83ECFAE493A3C8C582C8CCC58312
:1003E800CCF0A3C8C582C8CCC583CCDFE9DEE780E2
:1003F8000D89828A83E493A3F608DFF9ECFAA9F061
:10040800EDFB2289828A83ECFAE0A3C8C582C8CCB6
:10041800C583CCF0A3C8C582C8CCC583CCDFEADECF
:10042800E880DB89828A83E493A3F208DFF980CC31
:1004380088F0EF60010E4E60C388F0ED2402B4042A
:100448000050B9F582EB2402B4040050AF232345D1
:0604580082239003B8733B
:10045E00BB010689828A83E0225002E722BBFE029C
:09046E00E32289828A83E49322CF
:10047700BB010689828A83F0225002F722BBFE0164
:02048700F3225E
:10048900EF8DF0A4A8F0CF8CF0A428CE8DF0A42E87
:02049900FE2241
:10049B00A3F8E0C5F025F0F0E58215827002158314
:0604AB00E0C838F0E82271
:1004B100EB9FF5F0EA9E42F0E99D42F0EC6480C8C2
:0604C10064809845F02262
:1004C700E8600FECC313FCED13FDEE13FEEF13FF13
:0304D700D8F12237
:1004DA00E8600FEFC333FFEE33FEED33FDEC33FC80
:0304EA00D8F12224
:0C04ED00ECF0A3EDF0A3EEF0A3EFF02282
:1004F900A8828583F0D083D08212051012051012CC
:100509000510120510E473E493A3C583C5F0C583F0
:10051900C8C582C8F0A3C583C5F0C583C8C582C84C
:0105290022AF
:10000300E50824B3F582E4341DF583E00508229066
:100013001DB0300703901DB3E475F0011205830290
:10002300045E2000E97F2ED2008018EF540F249045
:10003300D43440D4FF30040BEF24BFB41A00500370
:100043002461FFE50960021509050CE50C70020542
:100053000B30070E901DB0E475F001120583EF021B
:1000630004770210DB7403D2078003E4C207F508A8
:10007300901DB012059AE4F509F50BF50CE509603E
:10008300077F2012004680F5750AFFC201C200C235
:1000930002C203C205C206C208120012FF700D306D
:1000A30007057F00120057AF0CAE0B22B4255FC2C9
:1000B300D5C204120012FF24D0B40A00501A75F0FE
:1000C3000A780930D50508B6FF0106C6A426F6202E
:1000D300D5047002D20380D924CFB41A00EF5004A0
:1000E300C2E5D204020258D20180C6D20080C0D237
:1000F3000280BCD2D580BAD20580B47F20120046DC
:100103002002077401B5090040F1120003FF120039
:1001130046020080D208D2068095120003FB12002B
:1001230003FA120003F94A4B700679297A037BFF1D
:1001330020022EE509602A7E008E82758300120557
:100143005660060EEE650A70F0C2D5EBC0E0EAC059
:10015300E0E9C0E0EE12029FD0E0F9D0E0FAD0E08F
:10016300FB12045EFF60AAEBC0E0EAC0E0E9C0E076
:10017300120046D0E02401F9D0E03400FAD0E0FBCD
:10018300E50A0460DCD50AD980877BFF7A02799B74
:10019300D202809C791080027908C206C2088008C6
:1001A300D2D5790A8004790AC2D5E50A047002F52A
:1001B3000AE4FAFDFEFF120003FC7B082001131280
:1001C3000003FD7B1030000A120003FE120003FF40
:1001D3007B20EC3382D592D55013C3E43000069FC5
:1001E300FFE49EFEE42001039DFDE49CFCE4CBF8C8
:1001F300C201EC700CCFCECDCCE824F8F870F380BC
:1002030017C3EF33FFEE33FEED33FDEC33FCEB337B
:10021300FB994002FB0FD8E9EB300105F8D0E0C4AD
:1002230048B201C0E00AEC4D4E4F78207B0070C20B
:10023300EAB50A0040BCC0E01202A1D0F0D0E02031
:100243000104C4C0E0C4B201C0F012002FD0F0D545
:10025300F0EB0200801205A3011D5301975800EE35
:100263004C00EA42019B4F01A34401A3490103430C
:0802730001A955018D46018D22
:10027B0045018D4703495000F22D00F62E01192B35
:10028B0000FA2301172003322A00B24800000111A3
:10029B003F3F3F00790AA2D5200314300509B9105E
:1002AB00020404B9080104A2D5200602500104205F
:1002BB0002689202B509005034C0E07F2030031968
:1002CB007F30A20272067205500F1202F8C202C2F0
:1002DB0006C205C2087F30800F300503E9C0E0126B
:1002EB000046300503D0E0F9D0E0B509CC30051756
:1002FB007F30B9100C1200467F583004077F78808E
:10030B0003B908031200463002057F2D0200467F19
:10031B00202008F87F2B2006F322920280CF286E34
:10032B00756C6C2900D2011200033001F8C2017800
:10033B000930D50108F60200B22D5043495812007E
:10034B00032403B405004001E490034493120037E7
:0D035B00743A120037D203750904020197AD
:10052A00EF4E6012EF60010EEDBB010B89828A83E8
:10053A00F0A3DFFCDEFA2289F05007F709DFFCA9F5
:0C054A00F022BBFEFCF309DFFCA9F0224C
:100A4A00020B52E493A3F8E493A34003F68001F265
:100A5A0008DFF48029E493A3F85407240CC8C333AD
:100A6A00C4540F4420C8834004F456800146F6DF7C
:100A7A00E4800B010204081020408090122EE47ECC
:100A8A00019360BCA3FF543F30E509541FFEE49371
:100A9A00A360010ECF54C025E060A840B8E493A338
:100AAA00FAE493A3F8E493A3C8C582C8CAC583CA63
:100ABA00F0A3C8C582C8CAC583CADFE9DEE780BE1B
:0112480000A5
:10055600BB010CE58229F582E5833AF583E022505A
:1005660006E92582F8E622BBFE06E92582F8E222A4
:0D057600E58229F582E5833AF583E49322BE
:10058300F8E0FBA3A3E0F925F0F0E5821582700201
:070593001583E0FA38F022A5
:09059A00EBF0A3EAF0A3E9F02262
:1005A300D083D082F8E4937012740193700DA3A3E7
:1005B30093F8740193F5828883E4737402936860FB
:0605C300EFA3A3A380DFFB
:1010DB00EFB40A07740D1210E6740A309811A89930
:1010EB00B8130CC2983098FDA899C298B811F63075
:0710FB0099FDC299F599224D
:00000001FF
